:1000000050430020D59A000001CA011001CA011016
:1000100001CA011001CA011001CA011001CA011070
:1000200001CA011001CA011001CA011001CA011060
:0C00300001CA011001CA01103FCA0110F2
:10003C0021490868C2430A600A680242FAD1704733
:10004C001E490A68002AFCD1CA610860C8690028E8
:10005C00FCD00020C86148687047194801686FF0EF
:10006C000202114041F400710160032115488160C6
:10007C0041F2300141610121C160502141610121F6
:10008C00C1604FF4CA6141610121C16001607047D8
:10009C000D4802680A6082684A60C2688A60406BD8
:1000AC0020F0784040F08050C8607047704701469F
:1000BC001022064802F070BA1010044000100440E0
:1000CC0000000460004104404C1300501800002153
:1000DC007047012070470000200000000A0000005B
:100100003C0000000000000000000000340100007E
:1001100000000000000000000100000000000000DE
:1001200000000000000000000000000001000000CE
:0C013000000000000800000000000000BB
:10013C003400000000000000000000006801000016
:10014C0000000000000000000100000000000000A2
:10015C00010000000000000000000000080000008A
:04016C00000000008F
:1001700030000000000000000000000098010000B6
:10018000040000000000000001000000FFFFFFFF6E
:10019000FF00000001000000080000000000000057
:1001A0002C0000000000000000000000C40100005E
:1001B000040000000000000001000000FFFFFFFF3E
:0C01C000FFFFFFFF08000000000000002F
:1001CC0034050000E401000099A1011095A701106D
:1001DC00A5C2011009B2011045B8011000000000C1
:0801EC00000000002F000000DC
:1001F40028000000000000000000000014020000BD
:100204000000000000000000FFFFFFFF00000000EE
:080214000800000000000000DA
:10021C00300500003002000069C201106DC10110F0
:10022C001FC2011095BA0110000000000000000070
:04023C002D00000091
:10024000300500005402000075C20110A9B601106B
:100250009DBF011049B60110000000000000000021
:040260002E0000006C
:1002640024000000000000000000000080020000E4
:100274000000000000000000000000000800000072
:040284000000000076
:10028800240000000000000000000000A40200009C
:10029800000000000000000000000000080000004E
:0402A8000000000052
:1002AC00240000000000000000000000C802000054
:1002BC000000000001000000000000000800000029
:0402CC00000000002E
:1002D00000000000940E0020040000000000000058
:1002E000000000002000000070010000300000004D
:1002F0001C020000B40E00200400000000000000FA
:10030000000000000C000000300400001800000095
:1003100040020000BC0E00200400000000000000AD
:100320000000000024000000480400001800000045
:1003300000000000FC0E002004000000000000008F
:100340000000000010000000A00100002C000000D0
:10035000CC010000040F0020040000000000000099
:1003600000000000200000006402000024000000E3
:10037000FFFFFFFF240F002004000000000000002A
:100380000000000028000000880200002400000097
:10039000FFFFFFFF540F00200400000000000000DA
:1003A00000000000580000003C0100003400000084
:1003B000FFFFFFFF5C0F00200400000000000000B2
:1003C00000000000100000006004000018000000A1
:1003D000FFFFFFFF640F002004000000000000008A
:1003E000000000001C000000AC020000240000001F
:1003F000FFFFFFFF6C0F0020040000000000000062
:100400000000000038000000F40100002800000097
:10041000FFFFFFFFD40F00200400000000000000D9
:100420000000000054000000000100003C0000003B
:100430001800000000000000000000004004000060
:080440000800000000000000AC
:100448001800000000000000000000005804000030
:08045800080000000000000094
:100460001800000000000000000000007004000000
:0804700008000000000000007C
:08047800010000003C9B0000A4
:01048000007B
:040484000100000073
:0404880000000E0062
:04048C0000000F005D
:040490003200000036
:040494000100000063
:040498009C0E002096
:04049C00000200005A
:0404A0000000000058
:0404A40001CA011078
:0404A8000000000050
:0404AC00000000004C
:0404B0000800000040
:0404B4000000230021
:0404B800C40E00204E
:0404BC00010000003B
:0404C0000C0F0020FD
:0404C400080000002C
:0404C8000000000030
:0404CC00000000002C
:0404D0000000000028
:0404D4000000000024
:0404D8000000000020
:0404DC00010000001B
:0404E000740F002075
:0404E400060000000E
:0404E800010000000F
:0404EC00DC0F002001
:0404F0000000000008
:0404F4000000000004
:0404F80000020000FE
:0404FC0000000000FC
:020502002900CE
:020504000100F4
:020506002500CE
:020508002D00C4
:02050A002E00C1
:02050C002F00BE
:02050E000100EA
:0105100001E9
:0805140004000000149B00002C
:08051C000000000000000000D7
:0405240000000100D2
:0405280000000300CC
:04052C0087C401106F
:04053000380500008A
:040534003805000086
:0405380000000000BF
:04053C00900000002B
:040540009000000027
:0405440000000000B3
:040548000C0F002074
:04054C00316F00000B
:040550002000000087
:04055400EC9A00001D
:04055800A098000067
:04055C000DC30110BA
:04056000FD1B00007F
:04056400FF1B000079
:0405680099C801101D
:04056C009BC8011017
:040570000000000087
:0405740080040000FF
:04057800E097000008
:04057C00F8970000EC
:04058000C897000018
:0205840008006D
:0205860009006A
:02058800010070
:02058A0000006F
:01058C00016D
:040590000000000067
:040594000000000063
:04059800000000005F
:04059C00000000005B
:0405A000491B0000F3
:0405A400691B0000CF
:0405A8006D1A0000C8
:0405AC00931B00009D
:0405B000B51A000078
:0405B4008B1A00009E
:0405B800E71A00003E
:0405BC00BF1B000061
:0405C000A96E000020
:0405C400F56F0000CF
:0405C800F96F0000C7
:0405CC000800000023
:0405D0002400000003
:0405D400180000000B
:0405D80028000000F7
:0405DC0020000000FB
:0405E0003C000000DB
:0405E4000C00000007
:0405E80034000000DB
:1005EC00DFF800F049C10110DFF800F019C201106A
:1005FC00DFF800F041AC0110DFF800F0CDA00110E5
:10060C00DFF800F085C10110DFF800F0C1C2011065
:10061C00DFF800F0E3BF0110DFF800F0CDC10110EE
:10062C00DFF800F03DC10110DFF800F0DDB2011081
:10063C00DFF800F085B00110DFF800F029AF0110F1
:10064C00DFF800F079B50110DFF800F0C1C101103E
:10065C00DFF800F009B70110DFF800F0D5C0011089
:10066C00DFF800F0E1B5011020B1082328220021A9
:10067C00FFF7D2BF704720B1082330220021FFF7CB
:10068C00CFBF704738B500F06FFE25680DB12968F3
:10069C002160FFF7A9FF284632BD70B504460D4610
:1006AC002668002028601EB9FFF79AFF25600DE030
:1006BC00FFF796FF00E0366831680029FBD1AE42A7
:1006CC0003D1FFF791FF002070BD3560FFF78CFF61
:1006DC00012070BD0022DFF8801C01EB4211CB7FA2
:1006EC001B0605D5B1F91C30834201D10846704771
:1006FC00521C082AEFDB00207047F8B500F034FEDE
:10070C000546DFF81C0AC17D0A001CD0491EC175C4
:10071C00C9B2C1B9DFF80C7A082107F14C0001F01D
:10072C0050F984B1B86B703001F059F8B86BDFF840
:10073C002C1CC0680968201A07F1EC0600F0B4FD07
:10074C003046FFF765FF2846BDE8F240FFF74CBF87
:10075C0010B50446207B00F00F00022802BFDFF822
:10076C00C009007D002817D100F0B4FCA1688908ED
:10077C00A1EB90006FF0704188420DDAB0F1704F30
:10078C00BCBFDFF8041B0818DFF89819896BC9681F
:10079C0001F57A71814200DB002010BD38B5DFF81D
:1007AC00EC0ADFF8EC2A0168DFF8784902EA010567
:1007BC00E9430160A90606D54068800603D54FF4CD
:1007CC00005100F090FB15F4602F0BD0A06905F4DC
:1007DC0060210843A061002104F19C00BDE8344075
:1007EC0001F0EFB831BD70B5FFF7FAFEDFF8344910
:1007FC000646A06910F4602F27D0A069C5012D0E04
:10080C00E80748BF002506D4A80748BF012502D435
:10081C00680748BF0225681D40B200F0E2FEA069DF
:10082C00012105F1110291408843A0613046FFF788
:10083C00DBFE04EB85008668300009D0606800227E
:10084C004FF00063691DB04702E03046FFF7CCFE65
:10085C00A06920B1002104F19C0001F0B2F8E07F06
:10086C0080070DD56569280006D0606800224FF01E
:10087C0000436FF00101A847E07F00F0FD00E07736
:10088C0070BD70B5FFF7D4FBDFF89858DFF8D04A8D
:10089C00AB6A024690071DD4D3E90401104007D07F
:1008AC00EB629969084398614FF4804100F0F8FCC1
:1008BC00A86A002849D16E6A002E46D0F068A96B50
:1008CC00884224D005F14C00BDE870404FF48051B3
:1008DC0001F077B80BB9A86AEAE70020A862D3E95F
:1008EC0004019E69024042F0020232439A6162693D
:1008FC0082436261E26822EA0100E060194605F178
:10090C003000FFF7CAFE022100F0CAFCE3E7B06832
:10091C00FFF71EFFA86418B1A86CBDE87040ECE6A8
:10092C00D6E90401626902436261E26841EA0200AD
:10093C00E0600020E061B0682060E0690028FCD035
:10094C0005F12400FFF79EFEAE6270BD0020D4E6D8
:10095C00F8B506461446376E1D4607B1B847A007D2
:10096C0008D4D6E91601204029400022914208BF44
:10097C00904207D0C6E91A4506F13800BDE8F240AE
:10098C00FFF736BEF1BDFEE780B501F00BF8DFF8DE
:10099C0094270146906BD26BBDE80840104710B508
:1009AC00DFF880470FF23D01E06B884202D101F085
:1009BC002DF9206404F14C00BDE81040042101F035
:1009CC0000B880B5FFF734FBDFF89819084207D060
:1009DC00BDE804404FF00051DFF8A40B00F0F1BF6C
:1009EC0001BD000038B5042951D1DFF83847606AE1
:1009FC00A16B08B1C16803E0E07FC00748BF616824
:100A0C00A1630846DFF8B42A41680B7813601268BA
:100A1C0009788A421CBF8569002D05D000224FF051
:100A2C0000736FF0FF01A847022001F02BFA112090
:100A3C0001F03DFADFF8E8060121C176A16B407E9A
:100A4C00097C014204BF0E2001F031FAA06BDFF8E3
:100A5C00101940688268002A04BFC068002804D0BE
:100A6C000020C861DFF8C40A086040F2FF70DFF8AC
:100A7C00C02A106000208861DFF8E80848610FF296
:100A8C001100E0631920BDE83240FFF7CDBD31BD48
:100A9C002DE9FF418046880040F19780DFF88456AD
:100AAC00A86B40684068010018BF8047A86BDFF84E
:100ABC00B06840688168002904BFC168002912D061
:100ACC00F1690029FCD00021F1618068010018BF98
:100ADC008047A86B4068C068010018BF8047DFF8EA
:100AEC00A40AFFF7ADFA0020F06108F10807DFF85F
:100AFC00980A30600120FFF7EBFA00220FF21D106C
:100B0C00E86340F60A01DFF8180642800180027B98
:100B1C0002F0F002027300224260427B02F0F0020B
:100B2C0042F00102427300223C68628000E01446ED
:100B3C006268002A1CBF13888B42F8D1606040F6B3
:100B4C000302617B01F0F0016173696A89680988AD
:100B5C0091421CBF40F60402914217D0398BA9B1C7
:100B6C0000217983F96108F12C010A7802F0F00276
:100B7C000A704A7802F0F00242F001024A7008F161
:100B8C0020014160417B01F0F001417369463868F6
:100B9C00FFF77EFA6846FFF78AFA3868FFF786FA9D
:100BAC00F0690028FCD00020F061012001F03EFC2F
:100BBC00012808D0607B00F0F00040F00100607369
:100BCC000FF20D00E86338683060BDE8FF8100006B
:100BDC00DFF84C0A014200D17047012010B501F03A
:100BEC0025FC0128DFF83C4508D10FF23100DFF875
:100BFC007017E063DFF82805086010BDDFF8241AD1
:100C0C0009683220EC34B0FBF1F12046FFF7FCFC14
:100C1C002046BDE81040FFF7FBBC00002DE9FE4369
:100C2C0006460D466804DFF8FC4417D5FFF7D8FCE0
:100C3C00E66AB769FFF7D8FCB8070CD45EB1B069A7
:100C4C00B843B061706830B1B6F91C10F0687668C2
:100C5C003A460023B04725F480453DE1A807DFF86C
:100C6C00C0747BD5266B002E70D0B168202001E0BB
:100C7C004968401E79B1C2B26AB10A8840F60303D2
:100C8C009A421CBF40F604039A42F1D1F068182234
:100C9C00203001F091FCB0690021B1617168E1B1C3
:100CAC0040F00202F07F002300F00700012807D07B
:100CBC00022809D0042804BF00224FF0805306E01C
:100CCC0000224FF0005302E000224FF08043B6F9AF
:100CDC001C10F068D6F804C0E047FFF781FC804692
:100CEC00E08E401CC0F30B00E086206BC17F01F04E
:100CFC007F01C17704F13000FFF7C4FC00F0EDFB7D
:100D0C00B4F93610F06800F19402B2F9003099424F
:100D1C0004BF397D002919D1917809B9016821B92D
:100D2C0000209070FFF7E9FC10E0A26B126812F142
:100D3C00010F0BD0DFF824261268B1FBF2F17030F2
:100D4C00FFF762FCF0687030FFF762FC206B002844
:100D5C0025F0020501D045F00205BDE0A80004F124
:100D6C00800840F6090957D5206CB8B1042001F071
:100D7C005DFB98B100F04AFF216C814228BF401EF8
:100D8C00401A000B00F58D70F06040F2D761A0F2B4
:100D9C00EE20884224BF40F6C410F060002020648E
:100DAC00D6F818C0BCF1000F0DD0787B0F2108428B
:100DBC0004BF708C484506D100224FF000736FF4CD
:100DCC0080713046E0470022DFF85C18404600F0A6
:100DDC0017FEB87E50B10220ADF800006846FFF750
:100DEC002FF9BDF80800A0830020B876012084F804
:100DFC002000F87D401CF8750020F876192000F0D2
:100E0C0002FE77692FB100224FF08063002130463B
:100E1C00B84725F000555FE0B87F25F0080620B1F3
:100E2C00280702D50020B87743E0280743D50020D7
:100E3C0084F82000012038770020FFF749F90FF2E1
:100E4C00B100DFF8E817DFF8D056E0630022404627
:100E5C0000F0D6FDB97E787E81F00101084202D106
:100E6C00012078760FE0A06CF8B100F0CFFE216C79
:100E7C00626C401A02EB10306064A16CB0EBC11FC5
:100E8C0013D300206064A7F80090787B00F0F0008A
:100E9C0040F00100787300207880387B00F0F0007F
:100EAC003873002078602F6003E04FF0005100F0A1
:100EBC001AF8354610E0A8040ED5A66A002E1CBF01
:100ECC007068002806D0B6F91C10F068766800220D
:100EDC002023B04725F4005515B1294600F003F83E
:100EEC00BDE8F783022104F14C0000F06ABD00005C
:100EFC0070B50646880028D5FFF7AFF8894CDFF8A7
:100F0C003007874DE063687D18B906F13800FFF7AC
:100F1C006FFBDFF81C1600200860022000F048FF71
:100F2C00112000F059FF307C10B90E2000F054FF56
:100F3C000020A883287E40B100202876042104F1EB
:100F4C004C00BDE8704000F03CBD70BD30B58DB0BC
:100F5C0000F0AFFEDFF8DC06DFF8DC460168714D0F
:100F6C0041F00201016001A8FFF77EFBA078DFF8D9
:100F7C00CC160790002301AA05F14C00FFF758FB93
:100F8C0001A8FFF778FB0020ADF81C0001AB20781E
:100F9C00DFF89826099019210020009005F18000B7
:100FAC00FFF74AFB01A8FFF75FFBE078DFF890162C
:100FBC000790002301AA05F19C00FFF739FB01A85B
:100FCC00FFF759FB0120ADF81C0001AB6078DFF88E
:100FDC00742609901A210020009005F1D000FFF72B
:100FEC002BFB00230022DFF8601605F1EC00FFF765
:100FFC0027FBDFF83C06E86301214FF6FF70A8835E
:10100C000DB0DFF8480681760021E9774176C1768C
:10101C0081838177296430BD2DE9F041404E04462F
:10102C00707D8EB00F4690461D4618B9FFF78EFFA7
:10103C0001207075002F1CBF6760B8F1000F47D0FE
:10104C00C4F80880FFF7CCFAB17D00293ED101210C
:10105C00B175FFF7C9FA35B909A80FF2206114224E
:10106C0001F0AAFA09AD286820606868E060287A67
:10107C002074E86860612869010018BFA0617821BC
:10108C0004F1200001F0C4FA082324220021684650
:10109C00FFF7DAFA01208DF818006A46002104F1F6
:1010AC003800FFF7D5FA0823242200216846FFF701
:1010BC00A7FA06946B460022DFF8941504F1700031
:1010CC00FFF7BEFA20460EB0BDE8F081FFF78CFAB0
:1010DC000020F8E738B5FFF783FA124991F8201091
:1010EC0031B1DFF874150C68FFF77EFA204632BD7B
:1010FC00FFF77AFA00F08AFD10F50030DFF85C2576
:10110C0041F10001A2FB0045054802FB01550169B4
:10111C000020221845EB0103184632BD00000000E8
:10112C0068230020582200202DE9F84F80460C46F9
:10113C0092469B46FFF754FADFF818558146B5F9ED
:10114C003400B5F93610401AC0F30B0008286FF0C4
:10115C00010648DAA88E401CC0F30B00A886B5F92E
:10116C003400ADF8000000207B4901EB4017F97FFB
:10117C00090604D5401CC0B20828F5DB002708F18D
:10118C00700000F02CFBBC6087F81EA0C7F804B000
:10119C002021BDF80000B883C7F80C80DDE90A23D4
:1011AC00DFF8BC0410401940C7E9040108F19404AD
:1011BC000020F87740F6FF78686A0028394605F178
:1011CC00240008D0FFF769FA40B1BDF8000000F028
:1011DC0061F848464BE0FFF760FA48B9A88E4044E6
:1011EC00C0F30B00A8864846FFF7FEF9304649E0ED
:1011FC00BDF80000DFF8546400F04CF80020A0703B
:10120C0095F82010707F084207D00120B07700209D
:10121C007077B076F07D401CF0754846FFF7E4F926
:10122C00A86A68BB95F8200018B1192000F0EBFBF8
:10123C0026E0F07E20BBFFF7D3F90446307F10B1D7
:10124C000120307612E0B868FFF782FAA86488B102
:10125C00A86CA96BC968401ADFF8C813096805F1B6
:10126C00EC0600F021F83046FFF7D2F92046FFF7E4
:10127C00BBF905E02046FFF7B7F9042100F010F8A0
:10128C00BDF90000BDE8F28FF6FFFF1F0810044007
:10129C0020000E002080F87F40F08000F877704727
:1012AC0005F14C0000F08DBBB0FBF1F13046FFF7BF
:1012BC00ABB92DE9F04106460F4614461D46FFF723
:1012CC00CBF980463846FFF705FA070003D14046B4
:1012DC00FFF7C6F90AE0F87F0721084209D040461B
:1012EC00FFF7BEF90721F87F0842FCD1022000214C
:1012FC0014E07968DFF86C03814202D079683166BA
:10130C007860C6E916454046FFF7AAF94FF0FF3161
:10131C0006F13800FFF770F9D6E91A01BDE8F08143
:10132C00DCB5DDE906670446CDE90067180008BFA7
:10133C00DFF830332046FFF7F7FE002803D50020F6
:10134C004FF00041DCBD0146204602B0BDE8D04064
:10135C0002224FF0E043ACE788110020E8000000C7
:10136C0000100440020000400446FFF739B901E0C8
:10137C0042F002022DE9F843DFF8D842606A00908F
:10138C00894603271546FFF72BF919F1010F05F0D4
:10139C00010680460AD1A06A002819BFA06AB0F9DC
:1013AC001C90E08E00F101090020E0770FFA89F023
:1013BC00FFF790F901007CD0A06A814205F002058C
:1013CC0025D1280003D0606A0090002060620122C1
:1013DC00C87FB2401043C877FFF73EF90746002E8E
:1013EC0014BFDFF88402DFF88402FEF729FE00F058
:1013FC0074F825B906E000F063F800F069F800987D
:10140C000028F8D13846FFF72BF9832753E0009AD0
:10141C008A4204F1EC0016D100F0E1F9280012BF69
:10142C000020606A0068606200F057F8009800F0D5
:10143C0047F800F04DF8009818B32800F6D120E0DA
:10144C00009A12680092009AEAB112688A42F7D1A7
:10145C0000F0C5F9009800681DB1009A00211160D8
:10146C0004E00168009A116000210160009003E023
:10147C0000F026F800F02CF800980028F8D100F0C5
:10148C002CF8832701E000F028F8DFF8C001C17EBA
:10149C0011B1FFF727FD0EE0007F60B9DFF8D00136
:1014AC00E063FFF71FFD94F8200020B96048E0636B
:1014BC0001E000F012F83846BDE8F283D021084074
:1014CC00C07F009940F00400C8776846FFF7DAB88F
:1014DC00014604F13000FFF7E0B84046FFF784B84E
:1014EC0038B5FFF741FF05465A4890F8200068B11F
:1014FC002046FEF7A5FD044600F048F804F0FF0076
:10150C00012801D1812032BD022032BD00F03EF80D
:10151C00012032BD00000000001004400A464D4975
:10152C00896B884201D0032070470AE051000706FE
:10153C00000004600A464749896B884201D00320A9
:10154C00704700211046CBE770B542498A6B904238
:10155C006FF07F0412D191F8200078B1FFF740F8BA
:10156C0005464448FEF76CFD064600F00FF806F001
:10157C00FF00012802D13002001670BD204670BD5C
:10158C00A42200200100070601010E042846FFF7E3
:10159C002BB870B50E461546FFF722F883242D495B
:1015AC001EB1022E0DD004D30FE08A6A3AB1896ABB
:1015BC0002E0264A927E12B9898B298006E08024AB
:1015CC0004E091F82010297000E00324FFF70CF8D8
:1015DC00204670BD80B50846FFF77CF800B18068E6
:1015EC0002BD38B5FFF7C0FE1A49CA7F520702D5B3
:1015FC008B7F9C4210D001228B8B02FA04F52B437B
:10160C008B830C341C490B68A24023EA02020A604B
:10161C00096809B90D4A1175BDE83240FEF7E4BFFF
:10162C0004000020E80000008F080000CF09000033
:10163C00F109000000200940749600009509000093
:10164C00F3070000A9070000AB0900006823002085
:10165C0059090000582200200430044000093D00C4
:10166C00F1EFFF9F5D09000001000204010001047D
:10167C00290C0000010003040C100440FFFFFFFFC5
:10168C00C4090000010000000000000093090000E4
:10169C00DFF800F0F5C00110DFF800F049BA0110D6
:1016AC00DFF800F0E5C10110DFF800F013C1011004
:1016BC00DFF800F0B5C10110DFF800F0D5C2011061
:1016CC00DFF800F0F5B80110DFF800F021B30110DD
:1016DC00DFF800F095C00110DFF800F00DA8011044
:1016EC00DFF800F0BDBE0110DFF800F021C10110E1
:1016FC00DFF800F0A5B90110DFF800F021BA0110F5
:10170C00DFF800F0BDC20110DFF800F015B60110D3
:10171C00DFF800F019A70110FEE7DFF89002007D5A
:10172C0070476EE038B5FFF7FCFFDFF888520446CF
:10173C00A8680021FFF7CCFF6969081AA9698142E2
:10174C0038BF002084F3118832BD2DE9F041FFF73A
:10175C00E8FFDFF860520446A8680121FFF7B8FFE4
:10176C000121A9830021E9836E6929682A68871BF6
:10177C00801A711A884204D20020A88384F311883D
:10178C002BE084F31188002406E0A61931460120D1
:10179C00FFF7A2FF3F1B0446A742F6D2FFF7C1FF9B
:1017AC008046E88B012804D131460020FFF794FFD6
:1017BC000446A96914F1010F08BF084603D0E01BC9
:1017CC00814238BF08468119FFF78AFF012028841F
:1017DC000020A8832E6088F31188BDE8F0810021D9
:1017EC008182DFF8CC11C0684969884204D1DFF8E6
:1017FC00F4010068FEF70CBF7047808A7047704791
:10180C0000BFDFF8E4110968EFF3118081F3118850
:10181C0070470021DFF8D421016012681044FFF7F3
:10182C004FBF38B50446FFF7EBFF0546207C022876
:10183C0008D12046FFF758FF002020742946A068E5
:10184C00FFF756FF00F0D6B803681A4003680B4048
:10185C008B4208BF0A4312B10168914301601046E4
:10186C0070472DE9F0411F4617F1010F18BF002FEB
:10187C0092B000F0B3F80AD06B463A46DFF870111C
:10188C0008A8FFF739FF08A80390022002E0002007
:10189C00039003208DF8100006950796FFF700FFC4
:1018AC000290FFF7ADFF8046324629462046FFF7EF
:1018BC00CBFF050009D0039818B1FFF721FF0020DA
:1018CC00039088F31188284632E01FB988F31188F9
:1018DC0000202DE0FFF7DCFE05460299DFF80C0135
:1018EC00C1F818D0694600682044FFF7E1FE029861
:1018FC00FFF70AFF9DF81000022804BF0398FFF7BA
:10190C0007FF88F311882846FFF7C6FEFFF778FF1C
:10191C000446039818B1FFF7F3FE00200390002053
:10192C000299886184F311889DF8100000B1059824
:10193C0012B0BDE8F081F8B50446DFF8B0000068DD
:10194C000E462718FFF75CFF0546206830432060E1
:10195C003846FFF7A9FE10B185F31188F1BDFFF7EA
:10196C0097FE06463846FFF7A7FE0746FA69B9699F
:10197C002046FFF769FF786160B13846FFF7B4FE87
:10198C0001203874F86808B1FFF729FFB8682946B8
:10199C00FFF7AEFE85F311883046BDE8F240FFF745
:1019AC007BBE2EE7DFF8540080687047A40100204E
:1019BC007801002078010020616280F311882046B4
:1019CC00704738B504460D46FFF7EBFF616A2943B3
:1019DC00FFF7F2FFBDE83240FFF776BE04460D4636
:1019EC0016467047349B0000E4000000389B000052
:1019FC002F18000085F3118831BD0000C8010020AC
:101A0C00816042607047102804D3DFF80C10103846
:101A1C00C1F8000F7047000000E000E000F0FCBDD2
:101A2C00FFF7EFBEDFF89811C20744BF01220A602E
:101A3C00820744BF4FF480720A60400744BF4FF4E2
:101A4C00803008607047DFF87C21C30748BF116005
:101A5C00830748BF5160400748BF91607047000042
:101A6C0010B504460020D4E90A2347F6906101F032
:101A7C00CDF80123994228BF4FF0FF3010BD10B5AF
:101A8C000C4600F0B9F8011D201AB0F1004F05D832
:101A9C00081BB0F1004F38BF8C4200D20C462146D7
:101AAC00BDE810400120CEE72DE9F04180460A4602
:101ABC00D8E90A01D8E90C45A0FB026701FB0277C3
:101ACC00A6196F41340C002244EA07414046FFF747
:101ADC00D6FFC8E90E67BDE8F081F8B50646FFF7FA
:101AEC009FFF0446DFF8E050DFF8E0700120E8616A
:101AFC00FFF798FFF96A096A142088473069B0F536
:101B0C00802F34BF0421010C0120FFF79CFF3A68A1
:101B1C001268232100209047DFF8B41001200860E0
:101B2C00DFF8B400016821F4E02141F48031016058
:101B3C000120286084F31188F1BD000000F066B824
:101B4C0010B5DFF89000446800F006F86069A169F0
:101B5C00BDE8104008470000012063E7F8B50446D3
:101B6C000D4600F053F8D4E90A6732463B4601F0C3
:101B7C004DF83DB1A6FB002306FB013307FB0033F8
:101B8C00C4E90C23F2BD10B5DFF83C00DFF84C4083
:101B9C00002101600121C16121602068FFF7DCFF99
:101BAC00DFF848100968096A14208847206810BDBE
:101BBC00000080B500F02AF8000C40EA014002BD9C
:101BCC00042009401820094000002443840100101F
:101BDC0080022443E4010020002009402C2009400D
:101BEC00DFF81000C088704700000000B001001042
:101BFC00FEE77047F001002009480168426803685D
:101C0C009942FAD1100C40EA0140704710B5044AD1
:101C1C00136850681468A3421946F9D110BD00002E
:101C2C000820094020B1082324220021FEF7E8BC3B
:101C3C00704780B50120009009234FF400720021F9
:101C4C00DFF8080701F09FF801BD80B500230122E1
:101C5C003421DFF8F80601F0A9F800B10120C0B278
:101C6C0002BDDFF8EC0680687047DFF8E416401818
:101C7C0090F8ED0070470022022904D1012806D10A
:101C8C0040F2EE2203E0012808BF4FF47A721046AE
:101C9C007047DFF8BC06D0F8DC007047DFF8B00600
:101CAC0090F8E61021B1D0F80C01010018BF0047E4
:101CBC0070472DE9F041DFF8988608F1E1058AB00C
:101CCC00A879002861D10120A871DFF88866DFF8B7
:101CDC008876307B68717068C8F80C0101A8FFF732
:101CEC00A1FF00200690ADF81400079001AB002274
:101CFC000FF2F54108F10C00FEF7A2FC01AB00223B
:101D0C000FF2A15108F13000FEF79AFC01AB002252
:101D1C000FF2D94108F15400FEF792FCB168012092
:101D2C008847DFF8380600787868C0F38154707BF8
:101D3C0020B1032C02D10120287003E0032C18BF22
:101D4C00022C16D1022000F09DF8032CDFF810169F
:101D5C000CBF4FF47A7042F210700968B0FBF1F1CD
:101D6C0008F15400FEF750FC08F15400FEF750FC4B
:101D7C0005E0012C03D100F063FAFFF75AFF386835
:101D8C0040075CBF002000F07DF80AB0BDE8F08190
:101D9C0010B508B1140001D1022010BD8160C260E1
:101DAC0003610146DFF8A80501F01AF8002010BD08
:101DBC0010B50446FEF714FCDFF89415621892F87F
:101DCC00E8305B1E82F8E830DBB223B98A68012365
:101DDC00A3409A438A6066E02DE9F0410546FEF780
:101DEC00FFFB8046DFF86815681890F8ED20521E4E
:101DFC0080F8ED20D2B2002A3FD10FF2A050DFF8CC
:101E0C00644500EB85052E786F88300615D5216862
:101E1C00096A384688472168896A384688472168A4
:101E2C00096B38468847DFF8401501200860DFF859
:101E3C003C0500688007FAD512E0700606D501EB68
:101E4C0087010020D1F80011884709E021688969D1
:101E5C00384688472168496B384688470228F9D1AB
:101E6C0006F03F003F2818BFFFF7B6FF687800F078
:101E7C003F003F2818BFFFF7AFFF4046BDE8F041D9
:101E8C00FEF7B2BB10B50446FEF7AAFBDFF8C01490
:101E9C008A680123A3401A438A60611891F8E820EC
:101EAC00521C81F8E820BDE81040FEF79DBBF8B548
:101EBC000646FEF795FB0446DFF89454701990F82B
:101ECC00ED104A1C002980F8ED2039D10FF2CC40DE
:101EDC0000EB8607387800F03F003F2818BFFFF76B
:101EEC00E6FF787800F03F003F2818BFFFF7DFFFD0
:101EFC007E883878DFF86C7401060ED53968C969AC
:101F0C00304688473968496A304688473968C96A13
:101F1C003046884700F019F812E0400606D505EB6C
:101F2C0086010120D1F80011884709E03968496918
:101F3C00304688473968496B304688470128F9D1C3
:101F4C002046BDE8F240FEF74FBBDFF81C14012021
:101F5C000860DFF8180400688007FAD570472DE98F
:101F6C00F04F002483B04FF0000A0128D04618BF70
:101F7C00012664D1DFF8D893D9F8DC0001285DD1B3
:101F8C000220C9F8DC00FFF783FB0090012000F071
:101F9C0062F9060054D1FEF75FFBDFF8D81301900D
:101FAC000C60012000F042FA012804D1002000F05E
:101FBC00A7F94FF0010ADFF8C013DFF8B4030C6087
:101FCC0000681120FFF751FE08B14FF001081020F6
:101FDC00FFF74BFE08B148F002080F20FFF745FE53
:101FEC0008B148F004080B20FFF73FFEDFF87463DC
:101FFC0020B13168096B4FF4806088470A20FFF7E5
:10200C0034FE20B13168096B4FF481608847DFF8EA
:10201C005813DFF86873DFF868B30120086048F0E4
:10202C002000316889698847DFF85813012008605F
:10203C0099F80800C00707D5012416E0042673E0C0
:10204C000120C9F8DC006CE0584600F0EBFE0546B8
:10205C00042DF9D0012D04D1326A5268032158465F
:10206C0090473868800880003860002000F0E2FE5D
:10207C00BF4800683068806B804754B9012D04D18B
:10208C00326A5268012158469047386840F0030084
:10209C0038600120B8490860404631684969884772
:1020AC000B20FFF7E2FD20B13168C96A4FF4806064
:1020BC0088470A20FFF7D9FD20B13168C96A4FF46F
:1020CC0081608847A849012008600020AD4908605C
:1020DC000320C9F8DC003168496B40468847012869
:1020EC00F9D1042000F0B7F8A24901200860A048FB
:1020FC000068A54800688006FBD5BAF1000F1CBF2C
:10210C00012000F0FDF800F0E1FF082000F0A3F83A
:10211C0006460120C9F8DC000198FEF7A1FA00F090
:10212C0059FF0098FFF7B8FA3046BDE8FE8F38B576
:10213C000446FEF755FA05462146854800F064FE34
:10214C0028464BE030B5002401288BB004D021D3B5
:10215C0003281DD018D31DE001A8FFF763FD7C4DAB
:10216C008A490694ADF81440079401AB012205F19D
:10217C007800FEF765FA00940023854A2C2105F1BE
:10218C009C00FEF759FA05E000F0C0FF044601E0A0
:10219C0001F062F820460BB030BD00F054B938B5F0
:1021AC00FEF71EFA05466A4890F8E000012410B1CB
:1021BC00FFF74BFD04462846FEF716FA204632BDC3
:1021CC0038B5FEF70DFA624D044695F8E00020B1E3
:1021DC0000F080F9002085F8E0002046BDE8324090
:1021EC00FEF702BA000000007047000010B582B084
:1021FC00042000F01BF9022818BF032807D100F0B7
:10220C001FF8FFF716FDBDE816400220D0E5614827
:10221C00534900684E4CC0F3815003280CBF4FF457
:10222C007A7041F288300968B0FBF1F104F1540086
:10223C00FEF7EAF904F15400BDE81640FEF7E8B9E0
:10224C00032000901C234FF0405200213F4800F027
:10225C009ABD0020704770B504463D4E304600F0E4
:10226C00B5FD002598B9304600F0B6FD0646B068BD
:10227C00204207D03269F368002120469847054672
:10228C00012D05D0304600F0A9FD0600EFD12846FF
:10229C0070BD414901280CBF40F2FF70002008605E
:1022AC000020704770B5FEF79BF9294E294D044666
:1022BC0096F8E00028B100F00DF968B1002086F81E
:1022CC00E0000220AD68A84706461020FFF7C3FFC8
:1022DC008EB10320A8470EE0214909683220B0FBDB
:1022EC00F1F101B9012106F13000FEF78DF906F18B
:1022FC003000FEF78DF92046BDE87040FEF774B94A
:10230C0038B501281ED100F091F801281CD000F03E
:10231C00D7F80F4C1249012084F8E00032200968EC
:10232C00B0FBF1F505B9012504F13000FFF757FAC0
:10233C00294604F13000FEF767F904F13000FEF78E
:10234C0067F901E000F0E8F8002032BD00A00C4075
:10235C005C100020E8950000B03F0050182E0020C3
:10236C00E8000000B8010010282008602820084070
:10237C002C2009400C400940000222432422084032
:10238C00004003408001044314100940A1330000B5
:10239C0071310000B43F0050000004608F3F00001A
:1023AC008F3F01008F3F02008F3F0300903F0001E1
:1023BC008F3F0101903F0002903F00038F3F0104CB
:1023CC008F3F00058F1208048F3F00048F3F0006DB
:1023DC00513F00007F3F01003F3F04003F3F0200A0
:1023EC003F3F01007F3F020070B50446E00782B01A
:1023FC000D46624E05D5A8B200900023012200F0D4
:10240C0011F8A00705D5A8B200900123022200F014
:10241C0009F8600705D5ADB2009502230C2200F037
:10242C0001F873BD0021304600F0ADBC0146042913
:10243C0007BF1D234FF0C0421C234FF080524F4862
:10244C00342100F0B3BC38B50546FFF7D5FB4C4C36
:10245C00A168401A4FF47A71484305EB104501F01E
:10246C006FF82169401A48BF404240F6B9318D429D
:10247C0007D2062805DAA068E168814201D32268F8
:10248C005AB940494A68D2074FF4FA6017D4086821
:10249C0000F0FF007D21484308E0081A3A49484300
:1024AC00000C00EB9000904238BF1046C82801D2B7
:1024BC00C82032BDB0F57A6F88BF4FF47A6032BD58
:1024CC0080B501210320FFF78FFFFFF795FB2C4907
:1024DC00886001BD80B50120FFF7A8FF012819D045
:1024EC00002301223421254800F060FC98B100F053
:1024FC0026F8FFF781FB22498B680A68C860A2EBBB
:10250C009202C01A204B5843000C0860904238BF0E
:10251C0010460860012002BD10B500210320FFF712
:10252C0063FF0120FFF782FF08B100F008F8144C9C
:10253C00FFF762FB606001F003F8206110BD1348E7
:10254C00006801F011B810B511490A681149096801
:10255C00140424161B384443E41004EB22441206E2
:10256C0000FB00F3121609065A435843091604EBF4
:10257C00A222484302EBA04010BD000000A00C407A
:10258C00F02D0020AC3F005040420F0080000010A6
:10259C0090130050A410005062B38B0708D0521E49
:1025AC0011F8013B00F8013B00F024808B07F6D1B9
:1025BC00830740F0208000BF103A07D330B4B1E855
:1025CC003810103AA0E83810F9D230BC530724BFA9
:1025DC00B1E80810A0E8081044BF51F8043B40F8DB
:1025EC00043BD20724BF31F8022B20F8022B44BF46
:1025FC000B7803707047083A07D3B1E80810083A13
:10260C0040F8043B40F804CBF7D25307E4E7000052
:10261C00002200F0DBBF000010B5DFF824050468D1
:10262C0014F1010F08BF002401F052F8DFF8141563
:10263C00002008600120DFF810150860DFF80C1589
:10264C00086000F04CFADFF80805006828B1DFF8E4
:10265C0004050068204600F022F8DFF8FC14DFF8CF
:10266C00FC2400200860DFF8F80401686FF31B41BC
:10267C0011430160DFF8EC040168C1F30131012959
:10268C0007D10168DFF8E024114041F40032026008
:10269C000160DFF8D80400680028FAD110BD70B5CD
:1026AC000546DFF8CC0401210160DFF8C814096885
:1026BC000029FAD0DFF8C044DFF8C024C021216023
:1026CC005368DFF8BC149B075DBF13681B0C43F009
:1026DC00F00372230B70002101639668304600F002
:1026EC0031F83146284600F061F8DFF89804816D26
:1026FC0089B240F20F22914214D201680068C1F3F2
:10270C000361C0F3034001B1491E072805D0062818
:10271C000EBF0720801C00F00F0041EA0010DFF80C
:10272C0068140870304600F0B2F8DFF860140968DD
:10273C00C96802208847402020600120DFF850142F
:10274C00086070BD10B50446DFF848040068C0F39B
:10275C00046000F0C0F92117491C08181628A8BFFE
:10276C00152004DA6FF009018842B8BF084600F062
:10277C001F00DFF8241440F4F8500880DFF81C0424
:10278C00006880074FBF44F040640020DFF810144D
:10279C000860DFF81004C4F3C06181F0010101602E
:1027AC00C4F3806181F00101816010BD70B50546F4
:1027BC0082B0084600F0F0F80246DFF8EC4318212E
:1027CC0000F062F800F014F980B20090002340F29F
:1027DC00FF322C21204600F0D6FADFF8D063F068E7
:1027EC00C0F30D021C2100F04FF8706800F0FC32B1
:1027FC00142100F049F83068DFF8B413DFF8B46343
:10280C0001EA0002102100F03FF8284600F0FAF827
:10281C0002460C2100F038F8284600F01EF9400062
:10282C0040F020003072284600F020F940F01000F3
:10283C003072284600F023F90246282100F024F8D3
:10284C00284600F001F9400040F06000F072284684
:10285C0000F02FF9C00040F080003070284600F0E6
:10286C0031F98000DFF8501340F47C400880284692
:10287C0000F012F90246082100F006F8DFF83C13CC
:10288C004FF48000086073BD204600F077BAF8B5AD
:10289C00810C01F003010129C94CC84D02D0022959
:1028AC002AD026E0216A8A0323D44FF480422A607E
:1028BC006FF08F06C34AD2F8023033404E0A06F04E
:1028CC0080063343C1F303363343C2F80230C1F3FD
:1028DC000326D2F801301B0946EA0313C2F8013073
:1028EC006FF0E7061368334001F0E70119431160FC
:1028FC0002E04FF000412960B34EB44AB1680907B9
:10290C005CBF4021A9624FF400712964800D216ADB
:10291C00C90C01F0030141F0300110F003001170FB
:10292C0003D0022826D008D326E001210420FFF78B
:10293C005BFDA74800F0F4F822E00120FFF776FDDC
:10294C00074639460420FFF74FFD0420FFF76EFDC4
:10295C00B842FAD1366826F07F4000F0E1F89D4B82
:10296C001B681B684FF060220721300E98474FF40C
:10297C0080602860032100E002210420FFF734FD71
:10298C002068954900F03F00087047F618009349FD
:10299C00088093480068F1BD92490968C1F38362CD
:1029AC008303C1F38F2120D4000400164FF6FF736C
:1029BC0007E0490804D11946520804BF012201213D
:1029CC00401C0028F5D401280FDB490041F001011F
:1029DC00B1F5803F21BF0121520042F00102102AC3
:1029EC0024BF0F221946401EEDE741EA0240704712
:1029FC007C48016800680002C1F3870100F4407054
:102A0C000843704730B55D4C77490A686568ED0737
:102A1C00C2F30351C2F303430AD42468250501EB26
:102A2C002571240481F3040103EB247383F3040361
:102A3C001B0443EA015193B21943222824BF02F02C
:102A4C0080400143084630BD0021202803D367484D
:102A5C000068C0F30151084670470121222803D3B6
:102A6C0063480068C0F300710846704701212228B2
:102A7C0003D35F480068C0F34071084670470021DB
:102A8C00202807D359480068C10C01F44071C0F3E9
:102A9C0084500143084670472028564907D35348B1
:102AAC00554A0068810A02EA003040EA8151084622
:102ABC0070470021222803D34D480068C0F3C06141
:102ACC00084670470021222803D349480068C0F308
:102ADC004551084670471628A8BF20387047234830
:102AEC0000680028FBD14548454A416812688908AE
:102AFC00890041F0005141F00401520748BF41F0F8
:102B0C0001010BD4026812F0030F07D041F003024D
:102B1C004260026802F00302032AFAD14160704756
:102B2C00384982B20A60C0F30740486001208860CF
:102B3C00354800680028FBD00020886070470000F2
:102B4C001C130050840460425C600C400822044357
:102B5C0080012843000120438C21084000003901EA
:102B6C004820034004000940FFFFFCFC0C006842B5
:102B7C00101009409402224300600C40AC3F0050FE
:102B8C0056620840BC12005002600840A0010010C0
:102B9C0094046042B81200506E6208400000094074
:102BAC0094042A430000204300A00C4070130050F2
:102BBC00FFFFFC0041A10C40DCA10C4040A00C40EC
:102BCC006C1300500A600840A83F005008A10C404C
:102BDC00BD378600B40100100BB00C4070B00C4037
:102BEC002C200940501300507813005098130050BB
:102BFC008C13005000803F4000F03F000040034029
:102C0C00B03F00503C600C4084088C431B4213D1F5
:102C1C00094236D12AB18446B0FBF2F002FB10C255
:102C2C00704700F05FBDFCD30022002370470B00FF
:102C3C000200002100207047904271EB030CF6D388
:102C4C0070B5B1FA81F4B3FA83F52C1BA340C4F12F
:102C5C00200532FA05F63343A2405FF00046E64009
:102C6C0002E05B085FEA3202841A71EB030524BFB1
:102C7C00204629467641F4D302000B003000002197
:102C8C0070BD012ACFD970B5140C20D0B1FA81F4E3
:102C9C00B2FA82F5C4F120046419B4F12006D6D33B
:102CAC00B2405FF00044F440002502E052085FEAB5
:102CBC003303C61A71EB020E24BF304671466441D1
:102CCC006D41F3D302000B002000290070BD0C46AF
:102CDC00B1FBF2F102FB11452D0445EA1045B5FBA1
:102CEC00F2F402FB145580B240EA0545B5FBF2F054
:102CFC0002FB105240EA044070BD000070B504465F
:102D0C000D46164600F0DEF9401E8041C00F1A49F0
:102D1C000A68002AFCD0012E02D0022E02D003E059
:102D2C00257002E0258000E0256001220A60002861
:102D3C001CBFBDE8704000F0C9B970BD38B5044681
:102D4C000D4600F0BFF9401E8041C00F0A490A68C9
:102D5C00002AFCD0012D02D0022D02D003E02478F1
:102D6C0002E0248800E0246801220A6008B100F027
:102D7C00ADF9204632BD000000800C400B461146D8
:102D8C0004221818BAE710B500EB4100102B1446BA
:102D9C0000F5007002D3103B001D240C02999940E1
:102DAC0041EA0441BDE810400422A7E738B51D46AE
:102DBC000818102D144602D3103D801C240C02213F
:102DCC00FFF7BCFF204080B2E84032BD006800280D
:102DDC000CBF0120002070470068704700687047E6
:102DEC0038B504460D4600F07EFC00212960616870
:102DFC0069606168002914BF0D6025606560FFE79C
:102E0C00BDE8324000F071BC0B684A68002B0CBF67
:102E1C0042605A604A680968002A0CBF0160116060
:102E2C0070470000006801074CBF042000F003004D
:102E3C00704700002DE9F84F06469348934C006804
:102E4C00934D800704D50820A87192482060BFE0FC
:102E5C0000F076FB80469048006800900027001731
:102E6C0000F101090098800208D4C8F13E00C0109E
:102E7C000928A8BF08208145B8BF8146874800684B
:102E8C00C0F30460FFF727FE824685480068C0F354
:102E9C000440FFF720FE09EB0A011629A8BF1521F3
:102EAC0004DA6FF009029142B8BF114601F01F021B
:102EBC007C4B42F4F8521A807B4A126812F0030FD2
:102ECC0018BF0127520748BF47F002070EB147F061
:102EDC00040795F90720A8EB0202052A02DAAA7961
:102EEC0097425DD0A8F10F0C0026BCF1000FB6463E
:102EFC0007F0010207F00403DFF8B09123D40CEBC8
:102F0C000C1C4FEA2C2EBEF1080F28BF4FF0070EF9
:102F1C007646072E28BF062609EB860A59F8266046
:102F2C00DAF804A0AAEB060A0AF0FF0613B1CAF3FA
:102F3C00072B5E445FEA877B44BFCAF3074B5E44B2
:102F4C000AB106EB1A6659F82E9009F0FF0A13B174
:102F5C00C9F307239A44BB0744BFC9F307439A44F8
:102F6C000AB10AEB196A401AACEB0E220099AF7148
:102F7C00724380320128B8BF0120342301F0FF01D5
:102F8C0058430AEB12224843B0FBF2F0B0F5803FF5
:102F9C0028BF4FF6FF7008F30708A88085F8078054
:102FAC0043480068A988286000201F2904D21F21EB
:102FBC00A98004E04908401CB1F5007FFAD20F3912
:102FCC00090940EAC1003B490843206000206060C9
:102FDC00BDE8F18F10B53848006884B21CB300F01E
:102FEC00AFFA2B4991F90720904205DA6FF07F0276
:102FFC009042B8BF1046C8718888844201D28C8038
:10300C0010BD2B4A12680B68D21A921C202A28BFBA
:10301C001F22231A5208D3401818B0F5803F28BF3E
:10302C004FF6FF70888010BD2448026802B97047C3
:10303C0010B5234B996801F04060B0F1406F21D07E
:10304C0011480468A4071DD45C68A4071AD404684A
:10305C001B68C3F303531C331B0114F0050F06D07C
:10306C009A420FD26FF005012140016010BD9342CE
:10307C0008D20A0158BF44F00104490158BF44F07A
:10308C000404046010BD0000000009403010094029
:10309C00042E0020FDFDA400B43F0050B8120050D7
:1030AC003C1100506E620840242208409C130050D2
:1030BC000820094000E7A48034100940285009403A
:1030CC00AC3F0050EFF3108072B67047EFF31080F6
:1030DC0062B670470138FDD170477047DFF800F0D9
:1030EC0099C8011010B50C18FFF7ECFF401E804179
:1030FC00C00FDFF8F0130A68002AFCD02468012204
:10310C000A6008B1FFF7E2FF204610BD38B5DFF8C2
:10311C00D843DFF8D8132078897B002508430AD0E0
:10312C00FDF75EFAA178002906BF0121A1700125E7
:10313C00FDF75AFA0DB1002032BD0220FEF7A2FEB7
:10314C000E20FEF7B4FEDFF8A803016809B10120D8
:10315C0032BDDFF8A023402111600121C1610020A4
:10316C00607032BD70B5DFF88C0382B00021016055
:10317C004821C160DFF8800300F1D804A17A00294E
:10318C0068D00129DFF8742329D110684BF2F5219E
:10319C004843050ADFF868030068C0F38140012842
:1031AC0006D100F0CDF9FFF7CEF9684305EB905549
:1031BC00607B10B10020607305E0D248006800020B
:1031CC0015EB10204508D0480560290C4160012101
:1031DC008160C648807B00283AD0052039E002295E
:1031EC0009D11568284600F0FDF8A5F2FF50032818
:1031FC002ED308202DE003292CD1116800F1B8053D
:10320C00A1F5C0612868E961002848BF4042002947
:10321C0048BF49428842A8BF002018DA6868BB4EF4
:10322C0080B2009008234FF47F4230213046FFF7E4
:10323C00AAFDA86800F072F904213046FFF7A3FD3F
:10324C00A86900F071F93046FFF79DFD0120207050
:10325C000B202073BDE873402DE9F041A64CDFF83C
:10326C00AC82AB4FAB4EA34804F1E10582B0E978D8
:10327C004A1E0B2A00F28080DFE802F00622334659
:10328C005B33465B3346636EA349096809682020AB
:10329C0088470F20F860072341F61D5038614FF422
:1032AC00C0720220009000F070F807234FF4C07237
:1032BC0000214046FFF77AFD01203060022044E0F7
:1032CC000120F861287800281DBF00203061032000
:1032DC000620E8700320386000207060706880075A
:1032EC0034D4E878032804D1022000F04BF80420F1
:1032FC0007E0002000F046F8E87806280CBF07200D
:10330C000A20E87001201AE0042903D12021B961B8
:10331C00012105E00122BA610A290CBF0321022117
:10332C006970002139600821C1600160012038609A
:10333C0026E005290CBF06200920E87000207060EB
:10334C0004E00020306070600C20E87004F178001C
:10335C00BDE8F641FDF75CB900210160012064492C
:10336C0008600E20FEF738FD0220FEF721FD01203B
:10337C00E8700020A87003E0BDE8F341FFF7AEBE93
:10338C00BDE8F38100900523602200214046FFF741
:10339C00FABC000080B558495E4891F8E410891ECB
:1033AC000A291AD8DFE801F0060A0E190A0E190AC2
:1033BC000E19120001688907FCD510E041688907D5
:1033CC00FCD40CE041688907FCD508E0016889074A
:1033DC00FCD441688907FCD401E0FFF77FFEBDE80F
:1033EC00014039E7F8B50746484C30212046FFF735
:1033FC0079FE414E06F1B805C0F307206860042140
:10340C002046FFF76FFEC0F38440A86020212046C1
:10341C00FFF768FEC0F38120A861B7F5C060286093
:10342C0002D186F8D800F1BD296996F8D8202AB9BE
:10343C006A68A968EA60E861AA696A61E8690028B3
:10344C004CBF6FF00102022200EB4000101842103A
:10345C0000EB927001EBA0006968E960012810DABA
:10346C006A69032A04D1153001281DDA01201BE0FA
:10347C000B300128B8BF0120491E48BF0021E9606C
:10348C0007E01F2812DB6A692AB915381F28A8BF64
:10349C001E20032109E00B381F28A8BF1E20491C41
:1034AC004029A8BF3F21E9600021696128610823F8
:1034BC00E86880B200904FF47F42302100F03CF875
:1034CC000120009011234FF4003200F034F82869E9
:1034DC0000F024F800F02FF8686900F025F800F0EF
:1034EC002BF8F1BD00800C403D110020E895000048
:1034FC0004800C402C500C405C10002008400C4008
:10350C00B43F0050102009403C600C4000A00C401F
:10351C0000400C4034600C40A001001080B20090C0
:10352C0012234FF4F802704780B200900A234FF434
:10353C0040622021704704212046FFF724BC000084
:10354C000748084A81681278006852B2A0F54070AA
:10355C00C9035043C913A1EB2010803000127047EF
:10356C00285009400C13005070B50446FFF7AAFD13
:10357C00451EAD41ED0F124E30680028FCD0A0471F
:10358C0001203060002D1CBFBDE87040FFF79EBDD0
:10359C0070BDF8B504460D46FFF794FD461EB641C6
:1035AC00F60F074F38680028FCD02846A0470120AA
:1035BC003860002E1CBFBDE8F140FFF787BDF1BDA0
:1035CC0000800C4062F30F2262F31F4200B500BF73
:1035DC00130096469446103928BFA0E80C50FAD830
:1035EC005FEA417C28BF0CC048BF40F8042BC907D8
:1035FC0028BF20F8022B48BF00F8012B00BD0000AB
:10360C0030480068000C00F00700052828BF4FF078
:10361C00FF3070472C490A68C2F30F324BF69A13ED
:10362C009A424FF0FF3006D10868000F0B280CBFF0
:10363C000420002070474BF6BE118A4201D10120B4
:10364C0070474BF641318A4201D1032070474BF64B
:10365C0020318A4208BF0220704700001A48F8B592
:10366C000068050F1948006800F0FF06802E28BF7F
:10367C000026FFF7CFFF04284FF0FF3406F10A07AE
:10368C001DD8DFE800F003121A1A1B00012D12D00E
:10369C00032D06D0072D06D0082D08BF06F1160401
:1036AC000DE014240BE0152409E025B1022D08BF10
:1036BC0006F1140403E00A2401E005B93C4660B2AB
:1036CC00F2BD00009412005018130050A0100050CE
:1036DC0080B5FFF79FFF20B9FFF7C0FF162800DB6E
:1036EC0001BDFEE77047FCF77BBFFCF77DBF000018
:1036FC00DFF800F0D9C10110DFF800F025B101109E
:10370C0000B583B000F00DF8032114E0E0B500F033
:10371C0008F8042100F012F808B100200EBD029840
:10372C000EBD0821ADF800100190704700B583B0B4
:10373C00FFF7F7FF052100F001F807BDADF8021007
:10374C006846DFF8401B0968084700B58FB00823AE
:10375C003C2200216846FFF7CBFFDFF82C0B00F171
:10376C005001079100234FF4806108916A460121B2
:10377C0006910FF22D21FFF7BFFF0FB000BD30B542
:10378C0085B00820ADF800000120DFF8F81ADFF84A
:10379C00FC4A09680FF66905ADF8020068468847CF
:1037AC009DF8040020740298206404F1A40000F039
:1037BC00F4FD606404F1B00000F0EFFDA064C823D8
:1037CC0010200190C82201200090294604F15C00D1
:1037DC0000F098FD202001900023002000900E2284
:1037EC00294604F1800000F08DFD06211F2001F018
:1037FC008DF801208DF801000DF101020020ADF8CB
:10380C000A00012101208DF800000A20ADF8080003
:10381C00ADF806000020ADF80400C820ADF8020099
:10382C0040F2053001F0ACFA0DF10A02022140F22F
:10383C00063001F0A5FADFF8582A0E214FF4427039
:10384C0001F09EFA04F1BC02072140F2073001F0AE
:10385C0097FA6A4601214FF4447001F091FA02AADA
:10386C00022140F2113001F08BFA0DF10602022117
:10387C0040F2123001F084FA01AA022140F2133016
:10388C0001F07EFA0DF1020202214FF4457001F0B5
:10389C0077FA04F1C4020C21002000F030FFA021C3
:1038AC00062001F033F8A021072001F02FF8A02109
:1038BC00082001F02BF8A021092001F027F84FF087
:1038CC00FF3000F019FF4FF0FF3000F0D4FE01F094
:1038DC0041FF4FF0FF3002F047F80FF6EC1103A850
:1038EC00D1E90023C0E9002302208DF80200032057
:1038FC008DF8010004200FF6D8118DF80000D1E9E5
:10390C00002301A8C0E9002303AA0521002002F02E
:10391C005DF80DF102020121012002F057F80DF1C2
:10392C0001020121022002F051F86A460121032014
:10393C0002F04CF801AA0521042002F047F804F12A
:10394C00DC0002F03CF804F1D80001F0EDFB207C27
:10395C00DFF8405900F068FE207C00F0AAFE01F070
:10396C0042F90020E0630FF2CD6002F04EFA02F053
:10397C0045FB00F017FB00F05EFC286810B94FF413
:10398C0000702860A88808B90220A8804FF47A71CA
:10399C0000F0FDFA81B201B90520A08305B030BD5D
:1039AC002DE9F04B8CB0FFF7EAFEDFF8E898DFF872
:1039BC00E868DFF8D8580DF114087AE0688B401CE1
:1039CC00688380B2022803D10021002002F01FFB83
:1039DC00F07B05284CD100F007FA02F021FB318B6B
:1039EC0000B2731800F07F021A74491C3183C011A5
:1039FC0089B272181074481C308380B2082816D112
:103A0C00D9F80000082206F11001C00002F04EFBAC
:103A1C00D9F80000401CC9F800004A46708B401CC5
:103A2C007083202100203083812001F06EF9708B8F
:103A3C00B0F5007F1AD1B9F80400000302F02CFB9A
:103A4C00B9F80400401CA9F80400002180B2B0F5BC
:103A5C00006F71830AD14FF40070C9F800004FF465
:103A6C00805002F019FB0220A9F804000020F0732A
:103A7C00688BA98B884209D100206883707B28B1A0
:103A8C000121002002F0C3FA0120B073287D80B11F
:103A9C0005F1800000F05AFC00F017FBDFF8FC0782
:103AAC00FFF718FB288B810603D54FF6DF71084012
:103ABC0028830820ADF800000A20ADF802004FF072
:103ACC00FF30DFF8C0170968019068468847002866
:103ADC0040F04F810820ADF808000920DFF8A4174A
:103AEC000968ADF80A0002A888479DF80E20049FCB
:103AFC00002870D1BDF80C000124102804BF297CCB
:103B0C008A4237D138884FF6FF7290421CD1B87870
:103B1C0000072FD5E86C68B3697C491C697400F107
:103B2C0008020179408800F0D5FD162818BF04283A
:103B3C0083461FD0E86C297C4088002201F0B5F840
:103B4C00584600F056F915E03878B02812D178783C
:103B5C0016280AD17888082201F0A7F828B9012084
:103B6C0000F047F9EF64002404E0397907F108000C
:103B7C0000F07DFF7FB374B33846FFF7C1FD2AE038
:103B8C0005A94FF4417001F03FFA9DF814008DF82F
:103B9C0000006A4698F801008DF80100082198F899
:103BAC0002008DF8020000208DF804008DF803004F
:103BBC0098F805008DF8070098F804008DF80600B9
:103BCC0098F803008DF80500002001F0CBFD377349
:103BDC002046FFF7ABFD686CFDF766FD002840F052
:103BEC008280686C00F004FC0400F4D0208801286A
:103BFC0005D00228ECD1A07800F013F9E8E7A778FB
:103C0C00781E0528E3D8DFE800F0041C030505093D
:103C1C00DDE7B5E7142000F0ECF8D8E700F0C0FEC3
:103C2C00401E07A980B200F0D1FE20B90120A87572
:103C3C000020E875CBE7694640F2153001F0E4F955
:103C4C00C5E700F0B4F90020A875C0E7DFF85016FE
:103C5C0002F046FA04D8DFF84C1602F053FA286248
:103C6C00307B062818BF07282DD100F0BDF802F0D4
:103C7C00D7F907B2686A00F0B8F802F0D1F90FFA78
:103C8C0080FBA86A00F0B1F802F0CAF93A21317051
:103C9C0000B20121717007F07F01B170F911F17060
:103CAC000BF07F0131714FEAEB11717100F07F0164
:103CBC00C011F071B1710D2030720A210A2070729E
:103CCC00304600F078F9A86C00F092FB6068FFF7C2
:103CDC0017FD2046FFF72AFDA86CFDF7E5FC10B98F
:103CEC00286CFCF785FCA86CFDF7DEFC002840D1A5
:103CFC00A86CFDF7E1FC8468002CE4D02078102837
:103D0C00E1D1E87DA97D401C012908D0022913D1FD
:103D1C00E875C0B202280CD004280DD105E0E87576
:103D2C00C0B20A2805D0142806D10020E87500215D
:103D3C0000E0012100F03CF9287D0028C3D1616826
:103D4C00207A05F1200200F09CF910B1002070736C
:103D5C00B9E701207073A96D286A02F015FADFF833
:103D6C004815286202F084FABFF470AFDFF83C15F6
:103D7C0073E7288BC1067FF57BAE4FF6EF710840D9
:103D8C002883A87C40B9B07B002807D000210020F4
:103D9C0002F03DF90020B073A87C00283FF468AE17
:103DAC00F07B401CF07399F80E000B287FF410AEDA
:103DBC00B9F90A40B9F9080054EA00013FF408AE19
:103DCC002F6A02F067FA394602F052FA06D32046FF
:103DDC0002F060FA0146384602F04AFAFFF4EEAD02
:103DEC00002068830021F1E5286ADFF8C41402F092
:103DFC0069BA10B5DFF89444E26C5AB120B111796C
:103E0C0002F1080000F033FEE06CFFF779FC0020B3
:103E1C00E064607410BD01460120F8E00146022008
:103E2C00F5E0F0B595B004460325DFF88864012170
:103E3C0000F0BEF83046FFF74DF900F0B8F8304608
:103E4C00FFF748F96D1EF2D1002C43D169460020D2
:103E5C0001F006FE9DF801309DF803009DF802204C
:103E6C009DF80570DFF82444DFF828543D2B29D148
:103E7C00012A08BF01282DD19DF80C000D2804BF84
:103E8C009DF80D000A2825D19DF806009DF8071015
:103E9C0040EA072028819DF8080040EA012068814B
:103EAC009DF809109DF80A0040EA0120A8814FF402
:103EBC007A719DF80B00A87300F069F8A0830020BC
:103ECC0060831DE03C2B1ED1012A01BF002222750C
:103EDC00A074012859D12868C10021700822410919
:103EEC00400B6170A07001A9E01CFEF755FBA8798E
:103EFC000B222146504302F0D9F8A879401CA87136
:103F0C0000F04BF841E03B2B20D1012A02BF9DF879
:103F1C0004000D280A2F38D1A87948B92075012042
:103F2C00A87100F053F900F075F90020A8712CE08D
:103F3C0000F038F89DF8030020750120E074002093
:103F4C00A0740220A0750020E0751EE03E2B1CD151
:103F5C00012A05D1216AA06D02F0D4F8A06514E005
:103F6C00062A12D19DF80000042818BF00280CD096
:103F7C00021FEA730DF10301D2B205F11000FEF736
:103F8C000BFB00F00AF800F056F915B0F0BDA8894B
:103F9C004843C82190FBF1F070472A46202181202C
:103FAC0000F0B3BE2A462021812000F099BE0021EA
:103FBC00042002F02CB830B583B0044627200D46FF
:103FCC00ADF80000512DACBF50202846ADF80200D2
:103FDC00002364221B21002000F03AFD019068B1FF
:103FEC002A462146FEF7D8FA00226946002000F046
:103FFC00F6FB18B11B21684600F039FD37BD0000F7
:10400C00A2490A8B10430883086CFCF7F1BA38B547
:10401C0004460D460420FFF779FB48B104808570F7
:10402C0002469A4B196C586CBDE8384000F0BCB98C
:10403C0031BD0000FEB507460C4615460C20FFF7B7
:10404C0065FB06001CD037700820ADF8000002207C
:10405C008C490968ADF8020001956846884700282C
:10406C0014BF00200298706018B12A462146FEF752
:10407C0093FA864835723246016C806C00F094F9E4
:10408C00F7BDF8B514468C4D02462846FEF784FA67
:10409C000622294605F11C0002F080F998B90B267E
:1040AC0000270422A9196846FEF776FA009883497E
:1040BC0002F008F944F827007F1C361D032FF6B2D6
:1040CC00EFDB0020F2BD0120F2BD38B56F4C714D15
:1040DC00E07C10B3607D0B230E222146584301F087
:1040EC00F0FF2078617840EA0120A17840EA014095
:1040FC00A979012903D12968C0EBC10009E0022983
:10410C0009DBE17A227B41EA0221627B41EA02412E
:10411C00081A0009206500F059F8206D68B3606D2D
:10412C00102204F12C01000101F0CBFF64483B216B
:10413C000170002201214170022192B2A318521C7D
:10414C0093F82C30435492B2A318491C93F82C309A
:10415C0089B2521C4354491C89B21229EDDB0D2142
:10416C0081740A21C1741421FFF725FF206D401EB4
:10417C002065606D401C606531BD00F04BF8A8797E
:10418C0001281BD10020A082A8712A460220A880F9
:10419C0020214FF4007028604FF4807060658120FE
:1041AC0000F0B3FD002001F077FF4FF4805001F0D8
:1041BC0073FF0120A0750020E07531BD401EA87171
:1041CC000120E074607D401C607531BD38B53C4CFD
:1041DC002E4D3B202070082201206070E91C1A2013
:1041EC00A0701C20E070201DFEF7D6F9294890F92C
:1041FC000600207314216FF0170060730320A07366
:10420C000D20A0740A20E0742046FFF7D4FE002095
:10421C00E87431BD2A483B21017001214170002115
:10422C0041801A2101741C2141740D2181740A21D1
:10423C00C1741421BFE6F8B5164CE57B28001FD0DD
:10424C00134E204F681C30702A460920707004F100
:10425C001001B01CFEF7A0F92A4604F110013846F3
:10426C00FEF7AAF9A91C3246C9B24FF4427000F00D
:10427C0087FDE17B3A46BDE8F840002000F03FBAEC
:10428C00F1BD00003C0800208C270020600D0020B0
:10429C00400E0020DC2B0020540E0020A003020056
:1042AC00010034430000B4C3000034C30000B44325
:1042BC0000002041804F1200700E0020E12E65425C
:1042CC00FC2B0020240E002001020304050000003A
:1042DC000102030405000000DFF800F02DBF0110FF
:1042EC00DFF800F011BF011000B583B00821ADF864
:1042FC00001001900521ADF8021068464349096889
:10430C00884707BDF0B589B004460D4616461F46D2
:10431C000823242200216846FCF772F90F983C49C7
:10432C00096806906B464FF47A70B0FBF1F101FB13
:10433C0007F0059001FB06F20E98ADF81000294627
:10434C002046FCF77DF9204609B0F0BDFCF760B9BA
:10435C0038B504460D46FDF750FA10B12046FDF76E
:10436C003EFA00F013F800FB05F12046FCF74CF97F
:10437C002046BDE83240FCF74BB980B5FDF73DFA5D
:10438C0000B10120C0B202BDFDF729BA204909686D
:10439C004FF47A70B0FBF1F0704710B50446002171
:1043AC00FDF78EF9204610BD70B584B00446082088
:1043BC00ADF800000D460420ADF802000C201349A6
:1043CC000968019016466846884758B9029949B160
:1043DC008E602046FFF780FF15B12846FCF708F9E0
:1043EC00012003E03046FFF77FFF002004B070BDD2
:1043FC0010B50446FFF774FFA04204D08468FFF7A1
:10440C0073FF204610BD002010BD00003C080020AA
:10441C00E8000000E0B50821ADF800100190022181
:10442C0000F00FF808B100200EBD02980EBD00B5CB
:10443C0083B00821ADF800100190032100F001F8C1
:10444C0007BDADF802106846DFF85C130968084731
:10445C001FB5ADF806108DF804000824DFF84813DA
:10446C008DF808200393ADF80040ADF80240684683
:10447C000968884704B010BD30B585B014460822D1
:10448C000291ADF800201922DFF81C130968019085
:10449C00ADF802201D466846884714B1BDF80C10D3
:1044AC00218015B19DF80E102970089A049911609D
:1044BC0005B030BD00B583B00820ADF800001A205F
:1044CC0000F015F810B99DF804000EBDFF200EBDCC
:1044DC0000B583B0ADF800008DF80610002000F098
:1044EC0006F810B99DF807000EBDFF200EBDDFF8D1
:1044FC00B8120968ADF802006846084750B110F1CF
:10450C00040F01D10420704710F1030F01D10220D8
:10451C007047012070478123037042EAC1110023C8
:10452C0041F47C41C3708180704782230370818089
:10453C000023C370827170473EB504460820ADF865
:10454C0000000D462020ADF802001020DFF85812B4
:10455C000968ADF804006846884720B9029810B184
:10456C006FF004003EBD00950023002221464FF061
:10457C00FF30FFF781FF3EBD10B582B01446CA78FC
:10458C00012A03D18A88DFF8F8341A8000F010F879
:10459C0058B9009069462046FFF7CEFF28B900981D
:1045AC004478FFF744FF204616BDFFF7A7FF16BD62
:1045BC000B46022210214BE738B51C461546FFF777
:1045CC00F7FFC0B9009069462846FFF7B5FF90B9D0
:1045DC0000984578280002BF0098C079A04205D108
:1045EC000098816804982246FDF7D6FF0098FFF7E3
:1045FC001EFF284632BDFFF781FF32BDF8B500F033
:10460C005EFA00F0B5F907000DD032462946FFF7E7
:10461C008CFF00F042F93872FFF74CFF3B4601B0BB
:10462C00BDE8F04053E0F1BD10220121E6E72DE991
:10463C00F04100F061F907000FD0142200F019F8D6
:10464C003C72FD603E8287F81280FFF733FF3946DB
:10465C00BDE8F041DFF82C248EE725E038B500F0FA
:10466C002BF8050004D0152200F003F82C8128E06B
:10467C0031BD012159E70022042180E02DE9F041F0
:10468C0000F03AF907000FD0022200F010F8BC60DD
:10469C00BD81BE73C7F81080FFF70CFF3946BDE82B
:1046AC00F041DFF8E42367E70420BDE8F081042142
:1046BC003BE710220221A1E704460A20AAE60221C8
:1046CC0033E7FFF7F7FE2B4601B0BDE8304002227E
:1046DC001021BDE6F8B500F095F907000AD01522B7
:1046EC00FFF7EDFF00F029FB3946BDE8F840DFF895
:1046FC009C2341E70420F2BD002203213FE000B5DA
:10470C0083B00FF24903019306230093032300F0B7
:10471C004DF80EBD1078802802BF508840F27F61A2
:10472C00884208D19088984202BF917900988142C2
:10473C0001D1012070470020704710B582B00624CB
:10474C00FFE70094FFF7E6FF16BD00000323F4E734
:10475C001078802802BF508840F27F6188420CD1CB
:10476C009088032818BF042807D1907901001CBF3A
:10477C001028112801D10120704700207047F8B58E
:10478C0000F03BFA07000CD032462946FFF7CDFE6D
:10479C00BC60FFF78FFE3946BDE8F840DFF8F02229
:1047AC00EAE60420F2BD00003C0800202DE9F041AF
:1047BC0000F02BF807000AD0069A4146FFF7B5FE29
:1047CC003C817D8100F0BBFA079A00F059BA6BE787
:1047DC0004460D460C201DE6424603219BE670B5AF
:1047EC0082B000F06CF9FFF765FE1B2100910346C7
:1047FC0032462946204600F011F976BD10B582B03C
:10480C001D24009400F00AF916BD04460D46164608
:10481C0098461020FFF7FEBD2DE9F04180460D466D
:10482C0016461F461820FFF7F5FD040014D0002291
:10483C0000F069F800F04CFA20726572A672E7601D
:10484C000698206107986061FFF734FE2146BDE8A9
:10485C00F0410FF2E1228FE626E70FF2DD23112261
:10486C00002130E10FF2D5231222F9E7F8B500F060
:10487C00CFF807000FD00A2200F045F800F00DF831
:10488C0038727D813E73FFF715FE3946BDE8F8405E
:10489C000FF2AD2270E60420F2BD21465020FFF746
:1048AC0017BE0FF2A12306221EE12DE9F04180462E
:1048BC000D4616461F461020FFF7ACFD040011D024
:1048CC00072200F020F800F003FA20726572A6723D
:1048DC00E760FFF7EFFD2146BDE8F0410FF26922DA
:1048EC00FFF74ABEE0E60FF2652308220021FBE049
:1048FC000FF25D231022D1E004460D461646984671
:10490C001420FFF787BD0421FFF705BE70B5FFF734
:10491C005FFF06000BD03022FFF7F5FF00F009F81F
:10492C003146BDE870400FF22D22FFF725BE042062
:10493C0070BD34817581FFF7BDBD30B583B00446C1
:10494C000020ADF8040000F013F805000DD0312262
:10495C00FFF7D9FF2C81FFF7ADFD01A900910223D0
:10496C000FF2F5122946FFF727FEBDF804003EBDF5
:10497C000A20FFF74FBD1CB500F05BF904000AD00C
:10498C001222FFF776FEFFF795FD00F005F80FF207
:10499C00CD1200F018F813E001A900910123704723
:1049AC001CB500F046F904000AD01822FFF761FE8E
:1049BC00FFF780FDFFF7F0FF0FF2B11200F003F8E4
:1049CC009DF8040016BD2146FFF7F6BD70B500F04A
:1049DC0014F806000BD01922FFF74BFE00F009F873
:1049EC003146BDE870400FF28D12FFF7C5BD0420B3
:1049FC0070BD3481F560FFF75DBD04460D46102097
:104A0C00FFF708BD04460D4616461020FFF702BD01
:104A1C0004460D4616460E20FFF7FCBC2DE9F0416E
:104A2C00FFF76AFF070011D0069AFFF7D6FE3C810C
:104A3C003E74FD6000F04CF97874FFF73BFD39468D
:104A4C00BDE8F0410FF26512FFF796BDFFF72CBEE3
:104A5C0038B514460F4A15682A0006D00093024652
:104A6C000B4621460120A84732BD002032BD0A4A20
:104A7C0013681A0003D00A460146012018477047F4
:104A8C0074110020D94B0000E94B0000DF4B0000F3
:104A9C005D470000482000204C2000202DE9F0410B
:104AAC0000F00DF898460C20FFF7B4FC070004D07A
:104ABC0000F016F83C81BD72DFE0FFF7F5BD04464F
:104ACC000D46164670472DE9F041FFF79EFE070094
:104ADC0004D000F005F8BC60FD60CEE0FFF7E4BD4B
:104AEC0032460421FFF717BD2DE9F041FFF78DFE8B
:104AFC00070006D0FFF7F4FFFFF7CFFE3872FD601A
:104B0C00BBE0FFF7D1BD1078802802BF508840F27F
:104B1C007F6188420CD190884FF680710140B1F5CD
:104B2C007E4F04BF00F07F00984201D101207047F6
:104B3C00002070470023E6E71123E4E71223E2E7A5
:104B4C000A23E0E70623DEE70723DCE70823DAE79E
:104B5C001023D8E73023D6E73123D4E780B51223CE
:104B6C0000930123FFF7D6FD02BD000080B518238A
:104B7C00F6E7000080B51923F2E7000010788028D2
:104B8C0002BF508840F27F6188420DD190884FF669
:104B9C00807101404FF68052914204BF00F07F00BB
:104BAC00984201D1012070470020704770B5FFF783
:104BBC0086FF1D23FFF7E2FF30B932462946204617
:104BCC00BDE870401B23D9E7012070BD80B51423CC
:104BDC00C6E780B5152300930223C3E780B50223F3
:104BEC0000930423BEE70FF20D0142F22F000AE0FE
:104BFC000000000042F22F0347E004460D46164623
:104C0C000C20FFF707BC70B504460D4600F014F8F5
:104C1C0006000CD081203070B4800120F070FFF7BA
:104C2C0049FC2A463146BDE87040FFF7A5BC04207C
:104C3C0070BD00208DF804000820FFF7EBBB2DE9B8
:104C4C00F041FFF73CFF98460E20FFF7E3FB07000F
:104C5C0009D000F00AF83D817E81A7F80C80FFF79F
:104C6C0029FC069A0CE0FFF71FBD8120387001204B
:104C7C00F870BC8070473D81FE60FFF71BFC42461C
:104C8C003946BDE8F041FFF777BC1078802802BFA9
:104C9C00508840F27F61884204BF9088984201D1CD
:104CAC000120704700207047000038B504461546B7
:104CBC0000F00FF80FF221010091C2B22B462146F1
:104CCC004FF61840FFF7BBFF32BD3C817D81BE81A2
:104CDC0041465020FFF7FCBB4FF61843D5E70000C8
:104CEC00F8B5FFF78FFE07000DD0012200F022F877
:104CFC003C727D7200F023F83946BDE8F8400FF2A3
:104D0C007902FFF739BC0420F2BDF8B5FFF77AFE43
:104D1C0007000DD0022200F00DF83C727D7200F0FD
:104D2C000EF83946BDE8F8400FF25102FFF724BCEB
:104D3C000420F2BD0521FFF7EEBB3C81BD72FE6085
:104D4C00FFF7B8BB1078802802BF508840F27F6113
:104D5C0088420DD190884FF6807101404FF68062E9
:104D6C00914204BF00F07F00984201D101207047AE
:104D7C0000207047000000000123E3E70223E1E775
:104D8C002DE9F04EDFF8BC799246002640F2013B4B
:104D9C000C46BA787B7997F804C097F80190B0EB81
:104DAC000B0540F67B4132D06D1E38D06D1E3DD0C8
:104DBC00AD1E41D06D1E00F07A806D1E00F07D801E
:104DCC006D1E00F087806D1E00F094806D1E00F04B
:104DDC0099806D1E00F09E806D1E00F0A5806D1EEA
:104DEC0000F0AA80ED1E00F0AF806D1E00F0B480C4
:104DFC006D1E00F0B9806D1E00F0BE806D1E00F0BF
:104E0C00C3806D1F00F0CB80AD1E2DD0E1E0102CC7
:104E1C0040F0DD801022514607F1A40081E0102CF7
:104E2C0069D11022514607F1B4007AE0042C62D10A
:104E3C00DAF80000F862D7E0012C5CD1012B34D0F9
:104E4C009AF800003871BCF1000F06D00028F2D19E
:104E5C00022A19D0052AEED116E00028EBD0012A3F
:104E6C001FD0042A1BD11CE0012C44D1BCF1010F32
:104E7C001BD09AF80000787153B1002807D1032A8F
:104E8C001CBF072A052A02D14846FFF72CFDABE0D0
:104E9C000028FCD0012A1CBF042A062A01D0052AAE
:104EAC0002D1012000F047FC9EE012269CE0022C6F
:104EBC0021D1BAF80000F88396E0202C0BDA07F128
:104ECC00CC0600F094F800F09AF8BC7133462246F8
:104EDC0001210BE0202C7ADA07F1EC0600F087F8C0
:104EEC0000F08DF8FC713346224600214846FFF74E
:104EFC00DCFC76E0012C6AD19AF80000052866DA11
:104F0C00387271E0012C62D19AF8000004285EDA44
:104F1C00787269E0062C5AD14FF4867006225146FD
:104F2C003844FDF739FB5FE0012C50D19AF80000B2
:104F3C0008284CDAB87257E0012C48D19AF80000D6
:104F4C00042844DAF8724FE0012C40D19AF80000A2
:104F5C0006283CDA387447E000F04DF837D1821F50
:104F6C008A4234D278823FE000F045F82FD1821F7C
:104F7C008A422CD2B88237E000F03DF827D1B0F548
:104F8C00FA7F24DAF8822FE000F035F81FD1A0F177
:104F9C000A0140F67742914219D2388324E0012C61
:104FAC0004BF9AF80000012811D107F18000FFF727
:104FBC00E4F950B907F1100100F070FB060013D1B1
:104FCC0007F15C00FFF7E0F90EE016260CE018265E
:104FDC000AE0282807DA022C05D1BAF80010FFF7EE
:104FEC0095FC064600E002263046BDE8F08E1F21F7
:104FFC00304601F005BABAF80000022C7047224680
:10500C0051463046FDF7C8BA38B500244FF440730A
:10501C000D46C21ADFF82C1736D0521E36D0521E4F
:10502C0037D0521E38D0521E39D0521E3AD0521E92
:10503C003CD0521E3CD0521E3DD0521E3ED0521E71
:10504C003ED0521E3ED0521E40D0521E40D0521E58
:10505C0040D0921E40D0521E40D0521E40D0521E04
:10506C0040D0521E40D0521E40D0521E46D0521E2E
:10507C0046D0521E46D0921E48D0521E14D0521EFC
:10508C0042D0521E44D046E0C87842E01022A431EF
:10509C0030E01022B4312DE0C86A286042E00622CC
:1050AC00C43127E0087934E0487932E0C88B36E027
:1050BC008A79CC311EE0CA79EC311BE0087A28E001
:1050CC00487A26E006224FF4867012E0887A20E0B7
:1050DC00C87A1EE0088C22E0087C20E0488A1EE09A
:1050EC00888A1CE0C88A1AE0088B18E006224FF464
:1050FC008A7001442846FDF74FFA13E0488C0EE005
:10510C00888C0CE0C88C0AE0087B02E0887800E010
:10511C00487B287006E0282803DAFFF70EFC28806D
:10512C0000E00224204632BD1CB5DFF81846A178F9
:10513C0081B900B1206304F12C00019004F1B4009A
:10514C00009004F1A403E17860780022FFF764FB7F
:10515C00002016BD112016BDDFF8E8058178062960
:10516C0018BF072904D1018C40781322FFF77EBBAE
:10517C001220704700B58FB008233C2200216846EE
:10518C00FEF7B6FADFF8C00500F1500107910023D5
:10519C004FF4DC7108916A46032106910FF2D1019C
:1051AC00FEF7AAFA0FB000BD70B584B000F019F983
:1051BC000120DFF89815DFF88C4509680FF291553E
:1051CC00ADF802000026684688479DF80400607020
:1051DC000298A0620020A0704FF6FF702084FFF7A9
:1051EC00CAFB2070002301200190002200200090B7
:1051FC00294604F13800FFF785F8022000F02FF85B
:10520C0004F15C00FFF77EF8042000F028F804F1AC
:10521C008000FFF777F80420E07004F1A40200206E
:10522C000021002300252BC204F1B405103A4BC514
:10523C00E06220726072E1720720A07210210220DD
:10524C00FFF74EFD103D2A4610210320FFF748FDC5
:10525C0004F12C0204210420FFF742FD7FBD0190D4
:10526C000023002000900022294670470000000017
:10527C00FEB5FFF799FFDFF8CC54DFF8D04405F109
:10528C00800700F0AEF80A20ADF802004FF0FF30B6
:10529C00019068462168884700284BD100F0A1F89E
:1052AC000920ADF802006846216888479DF8061071
:1052BC00029E00283ED1BDF80400102804BF687877
:1052CC0081422DD130884FF6FF71884209D1708808
:1052DC00400425D505F12C0204210420FFF715FD0F
:1052EC001EE03078A22805D0D02804BF304600F04C
:1052FC007CF815E07079132812D13089012804BF8D
:10530C00A87B022805D13846FFF73EF8FFF724FFAB
:10531C0006E00520FFF711FB01463846FFF718F8A9
:10532C0046B100F05EF80320ADF802000196684625
:10533C0021688847A88BC10730D54FF6FE7108400D
:10534C00A88329796879014328D018B103208DF8F6
:10535C0000000DE0287A8DF800000622687A8DF89E
:10536C0001004FF4867029180DF10200FDF714F9B5
:10537C00A87A8DF808006946E87A8DF809006878F3
:10538C00FFF78FFA00281FBF0820A870286B002891
:10539C0004D0016808001CBF08208847A88B81072F
:1053AC0008D54FF6FD710840A88305F110010020C7
:1053BC0000F074F9A88B41070AD54FF6FB71084031
:1053CC00A883A87B012804D0022808BFFFF7C4FEDD
:1053DC0057E700902B8BEA8AA98A688A00F093F928
:1053EC004FE70820ADF800007047FEB5D54DA97801
:1053FC004FF48A730446EE18A2786879130005F10D
:10540C00800715D0022A3CD0032A18BF042A5CD08E
:10541C00052A00F07F80062A00F0AC80072A00F0F5
:10542C00CD800F2A00F0E580112A00F0E780F7BD4F
:10543C00607801001AD105F1A40210210220FFF7B7
:10544C0064FC05F1B40210210320FFF75EFC062278
:10545C00E11C05F1C400FDF79FF80120A87005F1CF
:10546C00CC03AA7968780121FFF71FFA08B108204C
:10547C00A870286B20B1016808001CBFA878884769
:10548C00F7BD6278EAB9E27842B1EA79687805F159
:10549C00EC030021FFF709FA607012E0022918BF33
:1054AC0007290ED0062902D101280AD101E00329CF
:1054BC0007D005F13800FEF760FF10B9012000F0AD
:1054CC003AF960780028DBD0D1E763780BBB2B79F5
:1054DC00032A08D1062908BF0720C9D0002B0CBF0E
:1054EC0003200220C4E7E98B0A0006D018430AD037
:1054FC0005F13800FEF72CFF05E0012B07BF00205B
:10550C00287100206871A878072814BF0420062091
:10551C00AEE7ACE76078010026D10622211D3046AB
:10552C00FDF73AF8608928840620A870E089688421
:10553C00208AA884608AE884E0782873287C012873
:10554C0018BF022809D11F20FFF7F7F94FF47A7121
:10555C00414305F15C00FEF7FBFE6289E078042311
:10556C00211DFFF764F884E73128D2D1002028717F
:10557C0004207DE7A088FFF771F80621FFF738FDBE
:10558C0000206884A884E884A079687305F15C0025
:10559C00FEF7FAFE3846FEF7F7FE4FF6FF7028844A
:1055AC00687908B1032063E7A07908280CBF0520AF
:1055BC000420A870012000F0BEF85AE73846FEF728
:1055CC00E3FE6078002813D1E08868842089A884E1
:1055DC006089E88405F15C00FEF7CFFE002807D156
:1055EC006B6B002B04D0EA8CA98C688C1B689847D9
:1055FC00F7BDA0880521FFF77BF9F7BDA088ADF8B2
:10560C000000287C052803D100208DF80A0041E019
:10561C0001208DF80A0005F15C00FEF7B5FE287C30
:10562C00012818BF04281AD1688AE188814228BF52
:10563C000846ADF80200A98A2089884238BF08467E
:10564C00ADF80400E98A6089884238BF0846ADF895
:10565C000600298BA08988421AD2084618E0032834
:10566C0018BF02280AD1688AADF80200A88AADF8E2
:10567C000400E88AADF80600288B09E0E088ADF854
:10568C0002002089ADF804006089ADF80600A089FD
:10569C00ADF808006846FFF7E5F8F7BDFEB50F4614
:1056AC00284D7A880446688C904224BFB988814280
:1056BC0007D3A88CF988884202BFE88C39898842C4
:1056CC001ED00520FFF739F90646288CADF80000EE
:1056DC007888ADF80200B888ADF80400F888ADF809
:1056EC0006003889ADF808006846FFF7B6F80700E1
:1056FC0007D1AC73314605F18000FEF729FE00E0BE
:10570C0018273846FEBD3EB50E4CA578062D01D0A7
:10571C0014203EBDADF80200ADF80410ADF8062023
:10572C00ADF8083004F15C00FEF72EFE06986946D1
:10573C00FFF7B4FF3EBD03498A8B10438883886A08
:10574C00FAF756BF78080020502000203C080020B3
:10575C00F1E700000FF204237D4810221321FEF71D
:10576C008DBF00002DE9F0430024082885B00E46BB
:10577C009146784F00F28A80DFE800F0050C18247F
:10578C00303C48537D00082E76D13246494607F10D
:10579C00080076E0152E77DA152107F11000FCF7DA
:1057AC0037FF3246494607F110006AE0152E6BDAD6
:1057BC00152107F12800FCF72BFF3246494607F16B
:1057CC0028005EE0152E5FDA152107F14000FCF78A
:1057DC001FFF3246494607F1400052E0152E53DABE
:1057EC00152107F15800FCF713FF3246494607F123
:1057FC00580046E0152E47DA152107F17000FCF72A
:10580C0007FF3246494607F170003AE0152E3BDAA5
:10581C00883715213846FCF7FBFE32464946384698
:10582C002FE00820ADF808000420ADF80A0003961C
:10583C0002A8DFF82481D8F800108847C8B9049D65
:10584C00BDB1786807F1A00188420AD00821ADF8F3
:10585C00001001900521ADF802106846D8F8001030
:10586C008847324649462846FCF796FE7D603E70D6
:10587C000DE013240BE0072E06D13246494607F102
:10588C00B000FCF789FE02E0182400E00224204658
:10589C0005B0BDE8F08300002DE9FE4990464A684A
:1058AC000A9C107852780B9D00EB02201F460026B4
:1058BC0080B242F62322274B801A03EB040C07D04C
:1058CC00401E052810D9801F1ED0263829D03AE05A
:1058DC00092C28D2C4F10800854228BFC4F1080560
:1058EC003D800CF1080129E0D1F80CB0584600F0CD
:1058FC008BFD80B2A04216DB011B8D42A8BF051B9D
:10590C003D800BEB040119E018780146A1420AD343
:10591C00001B8542A8BF0D1B3D8058683A880119B1
:10592C000DE0082C01D307260FE0C4F107008542D7
:10593C0028BFC4F107053D800CF1B0013A88404600
:10594C00FCF72AFE01E03E800A263046BDE8FE89BF
:10595C0078060020C00500203C080020A558000057
:10596C0000000000000000003EB504460820ADF821
:10597C0000000420ADF8020089498A4800780968C3
:10598C00894D8000019068468847002814BF00208C
