:10000000C8430020D9AD000001CA011001CA011087
:1000100001CA011001CA011001CA011001CA011070
:1000200001CA011001CA011001CA011001CA011060
:0C00300001CA011001CA01103FCA0110F2
:10003C000000000010B5074C04F11001201D04F065
:10004C003AFD206010BD0A46C1B20248006804F0B7
:10005C00EFBD0000180800204FF0807C1CEB400F17
:10006C0094BF1CEB410F05E040EA010C5FEA4C0C1D
:10007C0001D28142704718BF884270474FF0807C94
:10008C001CEB400F94BF1CEB410F05E040EA010C48
:10009C005FEA4C0C01D28842704718BF814270470E
:1000AC0009480168426803689942FAD1100C40EA89
:1000BC000140704710B5044A136850681468A34295
:1000CC001946F9D110BD000008200940014800F084
:1000DC001ABA0000C01100200A18232A242A252A43
:1000EC00262A272A282A292A2A2A502A02000000EE
:0400FC00E40000001C
:100100003C0000000000000000000000340100007E
:1001100000000000000000000100000000000000DE
:1001200000000000000000000000000001000000CE
:0C013000000000000800000000000000BB
:10013C003400000000000000000000006801000016
:10014C0000000000000000000100000000000000A2
:10015C00010000000000000000000000080000008A
:04016C00000000008F
:1001700030000000000000000000000098010000B6
:10018000040000000000000001000000FFFFFFFF6E
:10019000FF00000001000000080000000000000057
:1001A0002C0000000000000000000000C40100005E
:1001B000040000000000000001000000FFFFFFFF3E
:0C01C000FFFFFFFF08000000000000002F
:1001CC0034050000E401000099A1011095A701106D
:1001DC00A5C2011009B2011045B8011000000000C1
:0801EC00000000002F000000DC
:1001F40028000000000000000000000014020000BD
:100204000000000000000000FFFFFFFF00000000EE
:080214000800000000000000DA
:10021C00300500003002000069C201106DC10110F0
:10022C001FC2011095BA0110000000000000000070
:04023C002D00000091
:10024000300500005402000075C20110A9B601106B
:100250009DBF011049B60110000000000000000021
:040260002E0000006C
:1002640024000000000000000000000080020000E4
:100274000000000000000000000000000800000072
:040284000000000076
:10028800240000000000000000000000A40200009C
:10029800000000000000000000000000080000004E
:0402A8000000000052
:1002AC00240000000000000000000000C802000054
:1002BC000000000001000000000000000800000029
:0402CC00000000002E
:1002D00000000000E40E0020040000000000000008
:1002E000000000002000000070010000300000004D
:1002F0001C020000040F00200400000000000000A9
:10030000000000000C000000300400001800000095
:10031000400200000C0F002004000000000000005C
:100320000000000024000000480400001800000045
:10033000000000004C0F002004000000000000003E
:100340000000000010000000A00100002C000000D0
:10035000CC010000540F0020040000000000000049
:1003600000000000200000006402000024000000E3
:10037000FFFFFFFF740F00200400000000000000DA
:100380000000000028000000880200002400000097
:10039000FFFFFFFFA40F002004000000000000008A
:1003A00000000000580000003C0100003400000084
:1003B000FFFFFFFFAC0F0020040000000000000062
:1003C00000000000100000006004000018000000A1
:1003D000FFFFFFFFB40F002004000000000000003A
:1003E000000000001C000000AC020000240000001F
:1003F000FFFFFFFFBC0F0020040000000000000012
:100400000000000038000000F40100002800000097
:10041000FFFFFFFF24100020040000000000000088
:100420000000000054000000000100003C0000003B
:100430001800000000000000000000004004000060
:080440000800000000000000AC
:100448001800000000000000000000005804000030
:08045800080000000000000094
:100460001800000000000000000000007004000000
:0804700008000000000000007C
:080478000100000048AE000085
:040484000100000073
:0404880000000E0062
:04048C0000000F005D
:040490003200000036
:040494000100000063
:04049800EC0E002046
:04049C00000200005A
:0404A0000000000058
:0404A40001CA011078
:0404A8000000000050
:0404AC00000000004C
:0404B0000800000040
:0404B4000000230021
:0404B800140F0020FD
:0404BC00010000003B
:0404C0005C0F0020AD
:0404C400080000002C
:0404C8000000000030
:0404CC00000000002C
:0404D0000000000028
:0404D4000000000024
:0404D8000000000020
:0404DC00010000001B
:0404E000C40F002025
:0404E400060000000E
:0404E800010000000F
:0404EC002C100020B0
:0404F0000000000008
:0404F4000000000004
:0404F80000020000FE
:0404FC0000000000FC
:020502002900CE
:020504000100F4
:020506002500CE
:020508002D00C4
:02050A002E00C1
:02050C002F00BE
:02050E000100EA
:0105100001E9
:02051200704730
:080514000400000018AE000015
:08051C000000000000000000D7
:0405240000000100D2
:0405280000000300CC
:04052C0087C401106F
:04053000380500008A
:040534003805000086
:0405380000000000BF
:04053C00900000002B
:040540009000000027
:0405440000000000B3
:040548005C0F002024
:04054C00CD5200008C
:040550002000000087
:04055400F0AD000006
:04055800C0AB000034
:04055C000DC30110BA
:04056000C54700008B
:04056400C747000085
:0405680099C801101D
:04056C009BC8011017
:040570000000000087
:040574003C00000047
:0405780000AB0000D4
:04057C0018AB0000B8
:04058000E8AA0000E5
:0205840008006D
:0205860009006A
:02058800010070
:02058A0000006F
:01058C00016D
:040590000000000067
:040594000000000063
:04059800000000005F
:04059C00000000005B
:0405A00011470000FF
:0405A40031470000DB
:0405A80035460000D4
:0405AC005B470000A9
:0405B0007D46000084
:0405B40053460000AA
:0405B800AF4600004A
:0405BC00874700006D
:0405C00045520000A0
:0405C400915300004F
:0405C8009553000047
:0405CC000800000023
:0405D0002400000003
:0405D400180000000B
:0405D80028000000F7
:0405DC0020000000FB
:0405E0003C000000DB
:0405E4000C00000007
:0405E80034000000DB
:1005EC00DFF800F0D9C10110DFF800F041AC0110C8
:1005FC00DFF800F025B10110DFF800F013C1011095
:10060C00DFF800F0D5C2011000B583B000F00DF892
:10061C00032114E0E0B500F008F8042100F012F812
:10062C0008B100200EBD02980EBD0821ADF80010D7
:10063C000190704700B583B0FFF7F7FF052100F07C
:10064C0001F807BDADF802106846DFF8401D0968D7
:10065C00084700B58FB008233C2200216846FFF7FD
:10066C00BFFFDFF8880D00F15001079100234FF414
:10067C007A7108916A46012106910FF29121FFF7D8
:10068C00B7FF0FB000BD3EB50820ADF8000001204B
:10069C00DFF8F81CDFF8804D09680FF6D935ADF896
:1006AC000200684688479DF8040020700298206577
:1006BC0004F1B80001F01FF9606504F1C40001F009
:1006CC001AF9A065C82310200190C82201200090BF
:1006DC00294604F1700001F0C3F84020019000237A
:1006EC00002000900922294604F1940001F0B8F88A
:1006FC000FF6B53001F03CF9A021062001F066FCA4
:10070C00A021072001F062FCA021082001F05EFC72
:10071C00A021092001F05AFCA0210A2001F056FC6E
:10072C00A0210B2001F052FC4FF47A61022001F061
:10073C004DFC50210C2001F049FC50210D2001F002
:10074C0045FC50210E2001F041FC50210F2001F0FE
:10075C003DFC5021102001F039FC5021112001F0FA
:10076C0035FC5021122001F031FC5021132001F0F6
:10077C002DFC5021172001F029FC5021182001F0EC
:10078C0025FC2D21152001F021FC2D21162001F036
:10079C001DFC4FF4C871192001F018FC00211A201F
:1007AC0001F014FC207801F03BFA01208DF80100D7
:1007BC0000230020ADF802000DF10102012140F2EE
:1007CC00053001F067FE00230DF10202022140F218
:1007DC00063001F05FFE0023DFF8402C10214FF4AF
:1007EC00427001F057FE002304F1D002072140F2C1
:1007FC00073001F04FFE0C208DF8000000236A46F4
:10080C00012140F2044001F045FE4FF4F270E11C6E
:10081C00204401F0AFFEE0784000FFF7FBFEE178EA
:10082C00E06450B1002205E04FF6FF73D2B220F81D
:10083C001230521CD3B28B42F6D3C800FFF7EAFE3B
:10084C00206660B10021002306E000EBC102491CC8
:10085C00D380137093805380E2789142F5DB04F1DE
:10086C00D8020E21002001F077FA4FF0FF3001F092
:10087C0070FA4FF0FF3001F00CFA02F0E1F84FF093
:10088C00FF3002F0E7F901208DF801000DF10102B3
:10089C0004208DF800000121002002F00DFA6A46B8
:1008AC000121032002F008FA4FF4F670204402F004
:1008BC00FCF901F00FFA2078DFF8185D01F007FA67
:1008CC00207801F019FA0FF6F13002F0A2FBFFF7D5
:1008DC00B1FB2A462821812001F078FD00F03EFF73
:1008EC00286810B94FF400702860A88808B9022055
:1008FC00A8804FF47A71A8894843C82190FBF1F085
:10090C0081B201B90520208537BD00002DE9F04FDB
:10091C0087B0FFF7B8FEDFF8BC4CDFF8FC5A0820B4
:10092C00ADF804000A20ADF806004FF0FF30DFF8F8
:10093C005C1A0968029001A88847002840F09D8144
:10094C000820ADF80C000920DFF8401A0968ADF852
:10095C000E0003A888479DF81210059E00283CD174
:10096C00BDF810000127102804BF2878814225D13A
:10097C0030884FF6FF7188421CD1B07840071DD5E6
:10098C00E86DD8B16978491C697000F108020179E9
:10099C00408801F0CCF9162818BF042880460DD0E9
:1009AC00E86D29784088002201F0F5FC404600F003
:1009BC0097FA03E0304600F044FA07466EB167B18F
:1009CC003046FFF721FE08E0706800F03AFA7068D4
:1009DC00FFF71AFE3046FFF72DFE686DFFF70CFE91
:1009EC00002865D1686D00F0B1FF0600F5D03088A5
:1009FC000128E9D0022810D0082818BF102808D0E8
:100A0C002028E7D17068DFF8D82C4089002101F04C
:100A1C000AF97068FFF70EFEDCE77068007800F0EA
:100A2C0049FBF6E7DFF8BC1CFFF716FB04D8DFF830
:100A3C00001D02F0DBFB68642879042819D10ECF65
:100A4C0005F1EC000EC0B8E88C0005F1F8010C388B
:100A5C008CC105F14001B1E888104FF482722A4430
:100A6C00A2E8881000F071FD1621DFF8EC0C00F004
:100A7C00D7FCDFF8380D0078022809D1DFF82C1DDF
:100A8C000020087005214FF49A70284400F0EAFC0D
:100A9C00A86D00F05BFF7068FFF7B6FD3046FFF7FE
:100AAC00C9FDA86DFFF7A8FD10B9286DFFF79CFDD7
:100ABC00A86DFFF7A1FD002840F0DF80A86DFFF7BF
:100ACC009FFD8668002EE3D030781028E0D1A88DE9
:100ADC00401CA88580B2B0F5167F3CD1DFF8D01C45
:100AEC000020A8859020096809688847DFF8C40CA5
:100AFC000068092102F0D1FB00220F21002002F036
:100B0C0035FCDFF8B41C0020086002F05EFCE885C0
:100B1C0002F015FCE88D02F079FC4FF03332DFF86F
:100B2C009C3C02F081FC0022DFF8943C02F04EFD6C
:100B3C0000224FF0804302F077FC02F073FEDFF8E6
:100B4C00841CFFF79BFA02D20120687406E0002097
:100B5C00687400F096FA687C01280ED1287C401C41
:100B6C002874C0B2032808BF012104D0052804D181
:100B7C0001202874002100F085FAE87BA97B401C39
:100B8C00012908D0022913D1E873C0B202280CD075
:100B9C0004280DD105E0E873C0B20A2805D014284A
:100BAC0006D10020E873002100E0012100F06AFA70
:100BBC00DFF8F81B687A0978084346D14FF4E670E1
:100BCC002F187168307A3A4600F09BFC81464FF43E
:100BDC00EC7005EB00084FF48870291842461B2076
:100BEC0000F08FFC4FF49E7005EB000A514638461E
:100BFC0002F0C3FF4FF4B070284400900146404609
:100C0C0002F0BBFF4FF4C27005EB000B5946504687
:100C1C0002F09AFE4FF4D47005EB000A009952468C
:100C2C00584602F065FE05F14001504603F0F5F818
:100C3C00287B50EA090009D0688D401C688580B279
:100C4C00332802DB0020A871687112E7A87A08B972
:100C5C00012068710020688501202873A871E96E55
:100C6C00686C03F037F9DFF8601B6864FFF706FA6D
:100C7C00BFF4D8AEDFF8541BDBE6A88BC10640F1FD
:100C8C0096804FF6EF710840A883A87C401CA8748E
:100C9C00687940B9E87900287DD000210020FFF761
:100CAC00D2F90020E8716879002874D0E87A401CE9
:100CBC00E872A07B0B2823D1B4F90A60B4F90800C0
:100CCC0056EA00011CD06F6C03F078F93946FFF737
:100CDC00D5F90BD3304603F071F901463846FFF7CE
:100CEC00CDF903D30020E884002107E0E88C401CF8
:100CFC00E88480B2022803D100210020FFF7A3F979
:100D0C00E87A022847D1686CDFF8C41A03F06EF950
:100D1C0003F0D8F9698C00B26B1800F07F021A75D9
:100D2C00491C6984C01189B26A181075481C688402
:100D3C0080B2082813D12068082205F11401C000E4
:100D4C0003F006FA2068401C20602246A88C401C48
:100D5C00A884282100206884812001F04CFBA88CF9
:100D6C00B0F5007F15D1A088000303F0E7F9A08847
:100D7C00401CA080002180B2B0F5006FA98408D17E
:100D8C004FF4007020604FF4805003F0D7F902202C
:100D9C00A0800020E872A87C052804BFE87C00280D
:100DAC0005D1A87000220121032001F08AFCE88CF7
:100DBC00298D88420FD10020E884A87958B14FF4CE
:100DCC0096700521284400F04DFB01210020FFF70F
:100DDC003AF90120E871687A80B105F1940000F0CD
:100DEC0063FD00F0F9FBDFF8EC0903F0D3F9A88BF5
:100DFC00410603D54FF6BF710840A883A87C232871
:100E0C0001BF0020A874E87C00287FF488AD01F0B5
:100E1C006FFC0026A8788642BFF681ADDFF8B809D2
:100E2C0000EBC600811C062204F1200003F0B6F989
:100E3C0028B904F120030022002101F026FC761CC5
:100E4C00E8E710B501780124B02904D0D02908BFF7
:100E5C0000F061F802E000F003F80446204610BDF3
:100E6C0038B50446DFF8B055607816280BD12978D0
:100E7C006088042201F08FFA28B9012000F030F8C4
:100E8C00EC65002032BD01F0EBF8A0B1608800F0F9
:100E9C00AFFA288421790B290DD0012912D1217A9E
:100EAC000A2918BF122906D0296E11F8300010B18A
:100EBC00204600F006FA217904F1080001F052F9FD
:100ECC00012032BD1329F6D01B29EDD1E1684FF476
:100EDC0088701B22284403F093F900202873EAE75A
:100EEC0010B5DFF83445E26D5AB120B1117902F139
:100EFC00080001F037F9E06DFFF786FB0020E06594
:100F0C00607010BD80B50146012000F0BAF9401E9A
:100F1C008041C00F02BD2DE9FC410646DFF8F844C4
:100F2C00B078E76C4FF6FF7840F2053548B10428ED
:100F3C000FD0052841D0062800F080800D2812D053
:100F4C009DE07089E083F21C0821002001F080FDF7
:100F5C0095E001F085F8E178884234BF0121002149
:100F6C0000F090F88BE03069317B0144491E00E0C1
:100F7C0010448842F6D210F8012B002AF9D00378DD
:100F8C00022B18BF032BF3D1401C521E01E0801C16
:100F9C00921ED2B2022A01DB884203D3012AE8D185
:100FAC00401CE6E70378F02B04BF4378FF2BEED10F
:100FBC003179701D00F0F2F961E0707800285ED193
:100FCC007089002100E0491CE278914205DA37F87B
:100FDC0011204245F7D127F81100307B082808BFB3
:100FEC00207109D0042807D120710121FFF72BF8BB
:100FFC000120A0730020E07301F032F8E178884200
:10100C0002D3002000F041F87589284600F0F0F971
:10101C00E2782084904207D2216E01EBC0000121BE
:10102C00017000218180418001A9E08B2278001F92
:10103C00ADF80400284600F0F9FE20E0B08800F07E
:10104C00D7F9E2782084904211D227F81080216ED3
:10105C0001EBC0000021C18000F014F80020A07347
:10106C0000F0FEFF206E218C002200F831200120C0
:10107C0000F00BF8208C00B9E07400202071BDE862
:10108C00F38100210420FEF7DEBF8DF80000002361
:10109C006A460121284601F0FDB910B5044601202D
:1010AC00FFF7B8FA28B104700146BDE810400220E1
:1010BC00E7E010BDF0B593B004460225DFF81C67DD
:1010CC00FFF7DFFF304603F065F80121FFF7DAFF89
:1010DC00304603F05FF86D1EF2D1002C48D1694602
:1010EC00002001F01EFE9DF801309DF803009DF8D4
:1010FC0002209DF804109DF80540C74DDFF8D4641C
:10110C003D2B29D1012A08BF022831D19DF80B00B3
:10111C000D2804BF9DF80C000A2829D144EA0120AF
:10112C0030819DF806109DF8070040EA012070817F
:10113C009DF808109DF8090040EA01209DF80A105E
:10114C00B173B0814FF47A714843C82190FBF1F030
:10115C0028850020E88483E0B7793C2B25D1012A2F
:10116C0006D1002268716A7208B901201BE00128BF
:10117C0078D13068DFF86846C10021700822410937
:10118C00400B6170A07001A9E01C03F039F80B2032
:10119C000B222146784302F0DBFFB079401CB07182
:1011AC0000F062F80020A8725CE03B2B21D1012AF0
:1011BC0004BF0D290A2C55D157B9002068720120A3
:1011CC00B07100F091FA00F0B5FA0020B07149E06E
:1011DC0032462821812001F0F9F89DF8030068724D
:1011EC0001202872002068710220A8730020E87387
:1011FC0038E03E2B36D1012A0BD1032805D1696C7E
:10120C00E86E01F0F3FFE8662CE0DFF8A01508703B
:10121C0028E09DF80000062A11D1042818BF0028E8
:10122C0020D0021FF2730DF10301D2B206F11000AF
:10123C0002F0E6FF00F018F800F090FA12E0052A30
:10124C0010D1042818BF00280CD0002042420DEB0E
:10125C0002013218097A82F82010401C0628F5DBAE
:10126C0000F002F813B0F0BD32462821812001F0C5
:10127C00C2B8000068498A8B10438883086DFFF759
:10128C00B3B938B504460D460820FFF7C3F948B189
:10129C00048045600246604B196D586DBDE83840BE
:1012AC0000F030BB32BD000010B504460120FFF742
:1012BC00B1F928B104700146BDE810400820E0E700
:1012CC0010BD30B5044687B06088534D00F090F8DF
:1012DC00EA782884904256D221797F2953D02A6EFD
:1012EC0002EBC0000278012A0FD103294BD10FF277
:1012FC0018510988ADF800100222022101702B78D8
:10130C006088694600F099FD3DE0022A2CD107293E
:10131C000AD1218941B100F03BF84180E1688A781B
:10132C00C97802EB012181802179072906BF6278F7
:10133C001A2A012927D1418829B303210170418838
:10134C002A78ADF8041001A98088ADF806000220B7
:10135C008DF80800F1208DF80900FF208DF80A00A7
:10136C00608800F081FD0EE0032A08BF09290AD12C
:10137C00218941B100F00CF8C18004200021FEF756
:10138C0062FE0120E87407B030BD00003C0800206C
:10139C00E1680A78497802EB012170472DE9F047A2
:1013AC001D4EB7780C2F80468A461DDA0025DFF8D3
:1013BC00289400E06D1CE8B2B8420AD2EDB209EBF9
:1013CC00C500811C0622404602F0E8FE0028F1D13F
:1013DC000AE009EBC70406224146A01C02F010FFEC
:1013EC0084F801A0781CB070BDE8F087D8220020EA
:1013FC0010B50021084A00E0491CD4788BB2A342F6
:10140C0007D2D36C89B233F811308342F4D1084639
:10141C0010BD4FF6FF7010BD9C0900208C0B0020F6
:10142C0030B583B0044627200D46ADF80000512D91
:10143C00ACBF50202846ADF80200002364221B21CB
:10144C00012000F080FE019058B100F031F800222C
:10145C006946012000F01BFD18B11B21684600F005
:10146C0081FE37BD3EB504461E200D46ADF800008A
:10147C00512DACBF50202846ADF8020000230020AF
:10148C008DF80800642201208DF80900122100203B
:10149C0000F059FE019050B100F00AF869460020A6
:1014AC0000F0E4FC18B11221684600F05BFE37BD79
:1014BC002A46214602F0A4BEFEB507460C46154648
:1014CC000C20FFF7A7F806001AD037700820ADF8EB
:1014DC0000000220C3490968ADF802000195684676
:1014EC008847002814BF00200298706008B1FFF7ED
:1014FC00DFFFBD4835723246016D806D00F002FA97
:10150C00F7BDF8B51446B94D0246284602F078FEF0
:10151C000622294605F11C0002F040FE98B90B2664
:10152C0000270422A919684602F06AFE0098B04907
:10153C0002F05CFD44F827007F1C361D032FF6B229
:10154C00EFDB0020F2BD0120F2BD2DE9F14F824C02
:10155C00DFF87C823A202070002501206070022682
:10156C004FF0030B009800EB85074146386802F0FA
:10157C003DFD02F0A7FD0FFA80F97868414602F0B4
:10158C0035FD02F09FFD0FFA80FAB868414602F073
:10159C002DFD02F097FD09F07F01A155A2194FEA2C
:1015AC00E911517000B20AF07F019170ED1C4FEA05
:1015BC00EA11D17000F07F011171C011A119B61D93
:1015CC00BBF1010B4871CDD10D2020750A2060753F
:1015DC00BDE8F18F7027002070B5834C854D207AC3
:1015EC0018B3607B7E4E0B230E223146584302F01B
:1015FC00BAFD3078717840EA0120B17840EA0140B8
:10160C00A979012903D12968C0EBC10009E002299D
:10161C0009DBF17A327B41EA0221727B41EA024119
:10162C00081A0009606600F05FF8606E68B3A06E7F
:10163C00102204F13001000102F095FD6E483B21AF
:10164C000170002201214170022192B2A318521C98
:10165C0093F83030435492B2A318491C93F83030AD
:10166C0089B2521C4354491C89B21229EDDB0D215D
:10167C0081740A21C1741421FFF7D2FE606E401EE2
:10168C006066A06E401CA06670BD00F053F8A8798F
:10169C0001281DD100206072A8712A460220A88062
:1016AC002821002060734FF4007028604FF4807084
:1016BC00A066812000F09FFE002002F03FFD4FF459
:1016CC00805002F03BFD0120A0730020E07370BD40
:1016DC00401EA87101202072607B401C607370BD9D
:1016EC0040E201000100344310B5434C43493B2018
:1016FC0020700822012060701A20A0701C20E0705D
:10170C00201D02F07DFD3B4890F90600207314214A
:10171C006FF06F0060730120A0730D20A0740A207D
:10172C00E0742046FFF77CFE2F490020087210BDA4
:10173C000000B4C330483B210170012141700021ED
:10174C0041801A2101741C2141740D2181740A21DC
:10175C00C174142164E6000098270020F8B5254CCC
:10176C00E57B280020D0264E264F681C30702A4678
:10177C000920707004F11001B01C02F041FD2A46E2
:10178C0004F11001384602F03BFDA91C002332463F
:10179C00C9B24FF4427000F07DFEE17B3A46BDE8E1
:1017AC00F840002000F0D8BAF1BD0000C40B0020B6
:1017BC00A00100108C0000101C900C403333114021
:1017CC0000FEAF4034335340000034C30000B44338
:1017DC000000204100EE020010270020804F120074
:1017EC00F82700203C0800209C090020A00B0020BA
:1017FC00E12E654270270020B0270020FB27002037
:10180C008C0B0020740A0020F0FF0000DFF800F0C1
:10181C0085C10110DFF800F0C1C20110DFF800F043
:10182C00E3BF0110DFF800F079B50110DFF800F02C
:10183C00F5B80110DFF800F02DBF0110DFF800F053
:10184C0011BF011000B583B00821ADF80010019054
:10185C000521ADF80210684643490968884707BD61
:10186C00F0B589B004460D4616461F4608232422BF
:10187C0000216846FFF7CAFF0F983C49096806909B
:10188C006B464FF47A70B0FBF1F101FB07F0059059
:10189C0001FB06F20E98ADF8100029462046FFF722
:1018AC00C1FF204609B0F0BDFFF7B8BF38B50446FC
:1018BC000D4602F086FD10B1204602F074FD00F0DA
:1018CC0013F800FB05F12046FFF7A4FF2046BDE806
:1018DC003240FFF7A3BF80B502F073FD00B10120C9
:1018EC00C0B202BD02F05FBD204909684FF47A70A6
:1018FC00B0FBF1F0704710B504460021FFF796FFDE
:10190C00204610BD70B584B004460820ADF8000028
:10191C000D460420ADF802000C2013490968019013
:10192C0016466846884758B9029949B18E602046D8
:10193C00FFF780FF15B12846FEF756FE012003E0A5
:10194C003046FFF77FFF002004B070BD10B5044691
:10195C00FFF774FFA04204D08468FFF773FF2046A2
:10196C0010BD002010BD00003C0800203CAE000063
:10197C0030B50446214D83B005F1300105F1380036
:10198C0003F099F8A8600FF22D0103F081F9A86813
:10199C001B4A4FF4E02103F08BF9002001900090DA
:1019AC00002364220FF2150105F10C00FFF758FF1C
:1019BC006C6037BD1348FFF777BF000038B50F4C8C
:1019CC006068C8B100202070032003F012F970B9D0
:1019DC00207840F00100207032250B4802F0DAFB31
:1019EC00032003F006F9012801D06D1EF5D12078F3
:1019FC006168BDE83440084731BD0000480800204C
:101A0C000300058054080020C0D40100E0B5082173
:101A1C00ADF800100190022100F00FF808B1002081
:101A2C000EBD02980EBD00B583B00821ADF80010B4
:101A3C000190032100F001F807BDADF802106846D3
:101A4C00DFF8C013096808471FB5ADF806108DF80C
:101A5C0004000824DFF8AC138DF808200393ADF8CC
:101A6C000040ADF8024068460968884704B010BDD4
:101A7C0030B585B0144608220291ADF80020192229
:101A8C00DFF8801309680190ADF802201D46684606
:101A9C00884714B1BDF80C10218015B19DF80E10BB
:101AAC002970089A0499116005B030BD00B583B057
:101ABC000820ADF800001A2000F015F810B99DF8B8
:101ACC0004000EBDFF200EBD00B583B0ADF80000C4
:101ADC008DF80610002000F006F810B99DF80700EC
:101AEC000EBDFF200EBDDFF81C130968ADF8020017
:101AFC006846084750B110F1040F01D1042070471B
:101B0C0010F1030F01D1022070470120704781238F
:101B1C00037042EAC111002341F47C41C3708180FF
:101B2C0070478223037081800023C37082717047D9
:101B3C003EB504460820ADF800000D462020ADF857
:101B4C0002001020DFF8BC120968ADF804006846EA
:101B5C00884720B9029810B16FF004003EBD009583
:101B6C000023002221464FF0FF30FFF781FF3EBDDE
:101B7C0010B582B01446CA78012A03D18A88DFF8DE
:101B8C00F8351A8000F010F858B9009069462046D4
:101B9C00FFF7CEFF28B900984478FFF744FF2046A2
:101BAC0016BDFFF7A7FF16BD0B46022210214BE70F
:101BBC0038B51C461546FFF7F7FFC0B900906946CB
:101BCC002846FFF7B5FF90B900984578280002BF6A
:101BDC000098C079A04205D10098816804982246EB
:101BEC0002F00EFB0098FFF71EFF284632BDFFF7F0
:101BFC0081FF32BDF8B500F0D1FA00F019FA0700F8
:101C0C000DD032462946FFF78CFF00F0A2F938724E
:101C1C00FFF74CFF3B4601B0BDE8F04084E0F1BD5E
:101C2C0010220121E6E7F8B500F04CFA07000AD0C3
:101C3C00132200F02CF800F0F6FB3946BDE8F84012
:101C4C00DFF8382594E70420F2BD2DE9F04100F0CF
:101C5C00B3F907000FD0142200F019F83C72FD60A4
:101C6C003E8287F81280FFF721FF3946BDE8F0412C
:101C7C00DFF80C257CE725E038B500F04AF80500C4
:101C8C0004D0152200F003F82C8147E031BD01216E
:101C9C0047E700220421A0E02DE9F04100F08CF987
:101CAC0007000FD0022200F010F8BC60BD81BE739B
:101CBC00C7F81080FFF7FAFE3946BDE8F041DFF8AF
:101CCC00C42455E70420BDE8F081042129E7102243
:101CDC0002218FE710B500F025FB04000AD0112279
:101CEC0000F01AF8FFF7E2FE2146BDE81040DFF8DD
:101CFC0098243DE7042010BD38B500F00AF8050023
:101D0C0006D0122200F008F800F023F9287205E042
:101D1C0031BD04460A2079E6022102E7FFF7C6FE30
:101D2C002B4601B0BDE83040022210218CE6F8B5FC
:101D3C0000F0C8F907000AD01522FFF7EDFF00F0FC
:101D4C0072FB3946BDE8F840DFF8402410E7042068
:101D5C00F2BD0022032140E000B583B00FF249032D
:101D6C00019306230093032300F04EF80EBD107868
:101D7C00802802BF508840F27F61884208D1908849
:101D8C00984202BF91790098814201D1012070479D
:101D9C000020704710B582B00624FFE70094FFF7CF
:101DAC00E6FF16BD000000000323F3E7107880283F
:101DBC0002BF508840F27F6188420CD19088032882
:101DCC0018BF042807D1907901001CBF10281128D6
:101DDC0001D10120704700207047F8B500F099FA46
:101DEC0007000CD032462946FFF79BFEBC60FFF77C
:101DFC005DFE3946BDE8F840DFF89423B8E60420D0
:101E0C00F2BD00003C0800202DE9F04100F055F82F
:101E1C0007000AD0069A4146FFF783FE3C817D817C
:101E2C0000F003FB079A00F0A1BA4BE7022300F085
:101E3C0058B904460D460C20E8E52DE9F04100F0B8
:101E4C00BBF807000FD0062200F01FF83C81BE72D1
:101E5C00FD6000F0B3FA00F03BF93946BDE8F04103
:101E6C000FF2614284E62DE734233AE138B5FFE7FF
:101E7C0004460D46FFF71AFE02462946204601B0DD
:101E8C00BDE8304036232CE1424603213FE670B5D5
:101E9C0082B000F083F9FFF709FE1B210091034685
:101EAC0032462946204600F034F976BD10B582B092
:101EBC001D24009400F02DF916BD04460D4616465F
:101ECC0098461020FFF7A2BD2DE9F04180460D4643
:101EDC0016461F461820FFF799FD040014D0002267
:101EEC0000F071F800F06AFA20726572A672E76071
:101EFC000698206107986061FFF7D8FD2146BDE880
:101F0C00F0410FF2113233E6DCE60FF20D33092209
:101F1C0002E00FF209331122002143E10FF20133E9
:101F2C001222F9E7F8B500F0D6F807000FD00A2214
:101F3C0000F049F800F00DF838727D813E73FFF720
:101F4C00B5FD3946BDE8F8400FF2D92210E6042061
:101F5C00F2BD21465020FFF7B7BD0FF2CD2304226E
:101F6C00DAE70FF2C923052224E00FF2C52306227B
:101F7C0029E12DE9F04180460D4616461F461020FA
:101F8C00FFF744FD040011D0072200F01CF800F00C
:101F9C0015FA20726572A672E760FFF787FD21467D
:101FAC00BDE8F0410FF28D22FFF7E2BD8AE60FF299
:101FBC0089230822002106E104460D461646984660
:101FCC001420FFF723BD0421FFF7A1BD70B5FFF767
:101FDC0030FF06000BD03022FFF7F5FF00F009F8B8
:101FEC003146BDE870400FF25522FFF7C1BD042009
:101FFC0070BD34817581FFF759BD30B583B004468F
:10200C000020ADF8040000F013F805000DD03122CB
:10201C00FFF7D9FF2C81FFF749FD01A9009102239D
:10202C000FF21D222946FFF7C3FDBDF804003EBD8B
:10203C000A20FFF7EBBC1CB500F071F904000AD0C4
:10204C001222FFF724FEFFF731FD00F005F80FF226
:10205C00F51200F018F813E001A900910123704764
:10206C001CB500F05CF904000AD01822FFF70FFE33
:10207C00FFF71CFDFFF7F0FF0FF2D91200F003F889
:10208C009DF8040016BD2146FFF792BD70B500F017
:10209C0014F806000BD01922FFF7F9FD00F009F82F
:1020AC003146BDE870400FF2B512FFF761BD042058
:1020BC0070BD3481F560FFF7F9BC04460D46102065
:1020CC00FFF7A4BC04460D4616461020FFF79EBC35
:1020DC003874FFF7EBBC04460D4616460E20FFF78E
:1020EC0095BC2DE9F041FFF767FF07000FD0FFF714
:1020FC00CBFE3C81FD60314600F061F9FFF7E8FF53
:10210C003946BDE8F0410FF25D12FFF731BDFFF724
:10211C00D9BD2DE9F041FFF74FFF070011D0069A0A
:10212C00FFF7B3FE3C813E74FD6000F047F9787414
:10213C00FFF7BCFC3946BDE8F0410FF28D12FFF7FA
:10214C0017BDFFF7BFBD38B51446124A15682A00F3
:10215C0006D0009302460B4621460120A84732BD0B
:10216C00002032BD0C4A13681A0003D00A460146FF
:10217C000120184770470000C4110020F522000010
:10218C00FB22000015230000012300000B2300009C
:10219C00B91D0000C8200020CC20002004460D46AC
:1021AC00164670472DE9F041FFF787FE070004D073
:1021BC0000F005F8BC60FD60D5E0FFF783BD32464A
:1021CC000421FFF7A4BC2DE9F041FFF776FE0700D0
:1021DC0006D0FFF7F4FFFFF7BCFE3872FD60C2E0DB
:1021EC00FFF770BD1078802802BF508840F27F61E5
:1021FC0088420CD190884FF680710140B1F57E4F2A
:10220C0004BF00F07F00984201D1012070470020EC
:10221C00704700000023E5E70923E3E71123E1E71A
:10222C001223DFE70A23DDE70423DBE70523D9E7E5
:10223C000623D7E70723D5E70823D3E73023D1E7D5
:10224C003123CFE780B5122300930123FFF78FFDD5
:10225C0002BD000080B51823F6E7000080B51923F5
:10226C00F2E700001078802802BF508840F27F61AE
:10227C0088420DD190884FF6807101404FF6805204
:10228C00914205D100F07F00012801DB012070474D
:10229C00002070471078802802BF508840F27F6180
:1022AC0088420DD190884FF6807101404FF68052D4
:1022BC00914204BF00F07F00984201D10120704789
:1022CC00002070470623E5E770B5FFF767FF1D2375
:1022DC00FFF7E0FF30B9324629462046BDE8704092
:1022EC001B23D7E7012070BD80B51323ACE780B565
:1022FC001423A9E780B5112300930223A6E780B528
:10230C00152300930223A1E780B502230093042335
:10231C009CE704460D4616460C20FFF777BB0020C1
:10232C008DF804000820FFF771BB2DE9F041FFF791
:10233C0035FF98460E20FFF769FB070009D000F027
:10234C000AF83D817E81A7F80C80FFF7AFFB069A57
:10235C000CE0FFF7B7BC812038700120F870BC800E
:10236C0070473D81FE60FFF7A1FB42463946BDE850
:10237C00F041FFF7FDBB1078802802BF508840F277
:10238C007F61884204BF9088984201D10120704738
:10239C0000207047000038B50446154600F00FF8D1
:1023AC000FF221010091C2B22B4621464FF6184084
:1023BC00FFF7BBFF32BD3C817D81BE814146502081
:1023CC00FFF782BB4FF61843D5E70000F8B5FFF7CF
:1023DC0079FE07000DD0012200F022F83C727D72CC
:1023EC0000F023F83946BDE8F8400FF27902FFF708
:1023FC00BFBB0420F2BDF8B5FFF764FE07000DD09B
:10240C00022200F00DF83C727D7200F00EF8394695
:10241C00BDE8F8400FF25102FFF7AABB0420F2BD51
:10242C000521FFF774BB3C81BD72FE60FFF73EBB1C
:10243C001078802802BF508840F27F6188420DD10D
:10244C0090884FF6807101404FF68062914204BF34
:10245C0000F07F00984201D10120704700207047A6
:10246C00000000000123E3E70223E1E700B583B09D
:10247C00ADF800008DF806100020DFF8B4150968DF
:10248C00ADF802006846884710B99DF807000EBDEC
:10249C00FF200EBD2DE9F041DFF8985517460024BA
:1024AC0040F2053395F80180C21A0E4608D0521E30
:1024BC0021D0521E24D0521E31D0FC3A41D047E0DC
:1024CC00012E43D1E8783978E97030B1002949D12F
:1024DC004046BDE8F041FFF76ABD002942D0FFF746
:1024EC00BFFD2978884202D3EC7015203BE0012017
:1024FC0000F097FA36E0022E28D13888688331E054
:10250C00202923DA05F198041F21204602F03AFC19
:10251C0000F02BF82E712346324601210DE02029C4
:10252C0014DA05F1B8041F21204602F02BFC00F050
:10253C001CF8AE712346324600214046FFF719FDC8
:10254C000DE0012E02D13878E8720BE0182409E076
:10255C00282806DA022E04D13988FFF737FD044605
:10256C0000E002242046BDE8F08132463946204680
:10257C0001F046BE1CB5DFF8BC4400B160622078A7
:10258C00087004F12000019004F180000090E27AC0
:10259C00A178607804F17003FFF796FC002016BD5B
:1025AC000146DFF8900440781322FFF7BBBC00B55E
:1025BC008FB008233C2200216846FEF711F8DFF8A3
:1025CC00780400F15001079100234FF4DC7108915D
:1025DC006A46032106910FF22111FEF709F80FB09C
:1025EC0000BD3EB50820ADF800000120DFF8401416
:1025FC00DFF8404409680FF24545ADF80200684623
:10260C0088479DF80400607000230298E061002266
:10261C000120019029460020009004F12800FFF7CA
:10262C001FF902200190002300200090002229466F
:10263C0004F14C00FFF714F90C20A070002104F1F8
:10264C0070000022002300252EC004F1800500201C
:10265C000FC52062E0712072A17207206072103DDC
:10266C00FFF7E9FC207004F1700210210220FFF743
:10267C00ADFE2A4610210320FFF7A8FE04F120022C
:10268C0004210420FFF7A2FE37BDFEB50646DFF895
:10269C00A4030F46417814461D465020FFF7E6FE72
:1026AC008DF800008DF801608DF802708DF80340F4
:1026BC000622294601A801F0A3FD6846FFF725FC78
:1026CC00FEBD70B50446DFF86C030D46417882B050
:1026DC0016465020FFF7CAFE8DF800008DF8014019
:1026EC008DF802508DF803606846FFF736FC76BD16
:1026FC00D0484078FFF735BCF0B585B0FFF771FFD7
:10270C00CB4CCC4D0820ADF800000A20ADF80200EF
:10271C004FF0FF300190684621688847002856D159
:10272C000820ADF808000920ADF80A0002A82168BD
:10273C0088479DF80E10049E002848D1BDF80C0067
:10274C000127102804BF6878814232D130884FF6B7
:10275C00FF71884209D1708840042AD505F1200206
:10276C0004210420FFF747FE23E03078A22802D092
:10277C00D0281AD01DE0707913281AD1308901287D
:10278C0004BF6879022807D105F14C00FFF7AAF8BD
:10279C007088FFF705FF0CE00520FFF72EFC0146C3
:1027AC0005F14C00FFF782F803E0304600F044F8E6
:1027BC000746002E18BF002F09D00820ADF80000E6
:1027CC000320ADF802000196684621688847288BE3
:1027DC00C1071CD54FF6FE7108402883E878B0B1CC
:1027EC00E8798DF808000622287A8DF8090005F1A1
:1027FC00D8010DF10A0001F003FD687A8DF8100084
:10280C0002A9A87A8DF811006878FFF7AEFB288B27
:10281C0081070BD54FF6FD71084028836879012894
:10282C0005D0022804BFE889FFF7BAFE6AE705F174
:10283C000C0100F0B7F865E730B5044689B0A07814
:10284C007C4D01000CD002282ED0032818BF042880
:10285C0043D0052858D0062871D0112877D01AE01B
:10286C006078C0B905F1700210210220FFF7C3FD9A
:10287C0005F1800210210320FFF7BDFD0622E11CAB
:10288C0005F1900001F0BCFC2A79687805F19803F9
:10289C000121FFF76EFB686A002801D0016808006F
:1028AC007DD0204688477BE0607890B9E07840B1D5
:1028BC00AA79687805F1B8030021FFF75AFB60701C
:1028CC0007E005F12800FFF706F810B9012000F029
:1028DC00A8F860780028DED161E0617800295ED12B
:1028EC00032802D10120E870D5E7698BE8780A004B
:1028FC0006D00028CFD005F12800FEF7D7FFCAE795
:10290C000128C8D10020EEE76078010015D1237BA7
:10291C006289E078211DFFF798F9207B0428BAD151
:10292C000020E870002301208DF80C0003AA01217F
:10293C0040F20530FFF7AEFDADE73128E1E7A088A6
:10294C0004A9FFF7A3FBA088FFF796F9A3E7A088DB
:10295C00ADF80000287B022808D1686A40B14268B3
:10296C00100005D06946201D904715E0012803D1C1
:10297C0000208DF80A000FE070B901208DF80A00D4
:10298C00E088ADF802002089ADF804006089ADF84C
:10299C000600A089ADF808006846FFF7BFFA0120D1
:1029AC0009B030BD2DE9F041044688B00D4603A9AD
:1029BC006888FFF76BFB9DF80C00C00758BF14200C
:1029CC002CD51C4E06F14C00FEF785FF28BB0520CC
:1029DC00FFF713FB07466888ADF80000A888ADF830
:1029EC000200E888ADF804002889ADF80600688973
:1029FC00ADF808006846FFF78CFA804658B9747138
:102A0C000C22294606F10C0001F0FAFB394606F1BE
:102A1C004C00FEF74BFF404600E0162008B0BDE826
:102A2C00F08104490A8B10430883C869FDF7DCBDAB
:102A3C003C080020BC080020D0200020F1E700005A
:102A4C000FF204237D4810221321FFF725B9000053
:102A5C002DE9F0430024082885B00E469146784FA6
:102A6C0000F28A80DFE800F0050C1824303C485353
:102A7C007D00082E76D13246494607F1080076E0F3
:102A8C00152E77DA152107F1100002F07BF932468A
:102A9C00494607F110006AE0152E6BDA152107F193
:102AAC00280002F06FF93246494607F128005EE033
:102ABC00152E5FDA152107F1400002F063F932465A
:102ACC00494607F1400052E0152E53DA152107F163
:102ADC00580002F057F93246494607F1580046E0D3
:102AEC00152E47DA152107F1700002F04BF932462A
:102AFC00494607F170003AE0152E3BDA883715216C
:102B0C00384602F03FF93246494638462FE0082055
:102B1C00ADF808000420ADF80A00039602A8DFF80F
:102B2C002481D8F800108847C8B9049DBDB17868D5
:102B3C0007F1A00188420AD00821ADF800100190DD
:102B4C000521ADF802106846D8F8001088473246C7
:102B5C004946284601F054FB7D603E700DE013247D
:102B6C000BE0072E06D13246494607F1B00001F0C2
:102B7C0047FB02E0182400E00224204605B0BDE823
:102B8C00F08300002DE9FE4990464A680A9C1078B3
:102B9C0052780B9D00EB02201F46002680B242F6B5
:102BAC002322274B801A03EB040C07D0401E052868
:102BBC0010D9801F1ED0263829D03AE0092C28D2F3
:102BCC00C4F10800854228BFC4F108053D800CF112
:102BDC00080129E0D1F80CB0584602F0D7F880B2C1
:102BEC00A04216DB011B8D42A8BF051B3D800BEBE1
:102BFC00040119E018780146A1420AD3001B854252
:102C0C00A8BF0D1B3D8058683A8801190DE0082CAF
:102C1C0001D307260FE0C4F10700854228BFC4F199
:102C2C0007053D800CF1B0013A88404601F0E8FA06
:102C3C0001E03E800A263046BDE8FE897806002079
:102C4C00C00500203C080020912B00000000000073
:102C5C00000000003EB504460820ADF8000004203A
:102C6C00ADF8020079497A4800780968794D8000FE
:102C7C00019068468847002814BF00200298010084
:102C8C00686001D113203EBD4FF6FF7002F09AF838
:102C9C00E00708D50FF2C0131022112105F1A00096
:102CAC00FEF7FAFF3EBD00203EBD18B16949086031
:102CBC00002070471120704770B584B01446002571
:102CCC00644E10B1032809D027E0012923D14B22EF
:102CDC00214606F1080001F093FA1FE001291AD1F0
:102CEC004B2106F1540002F04DF82278611C06F1DC
:102CFC00540001F085FA0FF25500029006F1A00382
:102D0C00FF20019000221120009006F15401706800
:102D1C0002F072F802E0182500E00225284604B003
:102D2C0070BD10B50246084600244A4912B1032A68
:102D3C0003D007E04B22083101E04B22543101F063
:102D4C005FFA00E00224204610BD000038B51046A2
:102D5C00049A00240AB10B2032BD0A78022A20D131
:102D6C004A681578527805EB022292B24FF6F1754B
:102D7C00521B012A04D9D21E08D0521E08D00DE0D5
:102D8C0001221A80C968097801700CE04B2200E01E
:102D9C0005221A80C96801F033FA04E01C800A2469
:102DAC0001E01C800124204632BD2DE9FC410D467A
:102DBC000024297A890690461F4648BF082036D43D
:102DCC002978022918BF012430D16A681378527807
:102DDC00089903EB022292B242F60213D21A28D0BF
:102DEC004DF2EF63D21A01D0921E2CD119B94C2F8F
:102DFC0003DB0D241AE00B2418E0EE684B2130465F
:102E0C0002F0F2F837703A464146701C01F0F8F9BE
:102E1C001049E86801F108029042096814BF0220C9
:102E2C00002019B109680A0018BF88472046BDE880
:102E3C00F6810122019200913B464246294602F05E
:102E4C003EF80446F2E70A24F0E700003C080020B4
:102E5C00BC080020CC0C0020592D0000B72D000020
:102E6C0000000000DFF800F0A9C10110DFF800F04D
:102E7C0021B90110DFF800F0B5C10110E0B500F088
:102E8C0010F8042100F012F808B100200EBD0298D1
:102E9C000EBD00B583B000F004F8052100F006F873
:102EAC0007BD0821ADF8001001907047ADF8021075
:102EBC006846C649096808472DE9F843C54CDFF850
:102ECC001893C34E1EE0B17006F18805B178284600
:102EDC0002F0C6F800F003F9B369180003D0B27819
:102EEC002946102098473089F188884203D27069AE
:102EFC00012101F004FBB80704D500F044F808B92F
:102F0C0000F03DF870694FF0FF330F22002101F003
:102F1C008CFA0746780725D500F035F8E8B902F0A9
:102F2C00D6F8D0B9D9F800008047804600F02BF8CD
:102F3C0080B9F068FFF796FF05000BD0A9684868C8
:102F4C003061497802F0FCF8A868FFF7A2FF284628
:102F5C00FFF79FFF21684046884700F014F808B936
:102F6C0000F00DF8F807C6D5B088401CB08002F010
:102F7C0063F83189F080814228BF0146A3E770696C
:102F8C00042101F0BCBAF068FDF736BB10B5904CCB
:102F9C000020206186B00021FFF768FFE060082365
:102FAC0018220021684602F0F1F9694604F1740018
:102FBC0002F0F0F904F1740060610FF219120FF2D3
:102FCC00F1010FF2CD0002F069F8FFF775FF06B0C2
:102FDC0010BDDBE730B5814C4FF424758FB0DD228A
:102FEC00294604F1500002F0FBF908233C22002191
:102FFC006846FDF7F5FA04F1500007900895022099
:10300C00069000236A4676492046FDF7F1FA0FB088
:10301C0030BD6F49886170472DE9F041044684B09A
:10302C000D460820FFF72AFF06466B4800688047CC
:10303C008046EEB1002030700820ADF80000022070
:10304C0062490968ADF80200019568468847002876
:10305C0014BF0020029870607570706818B12A4611
:10306C00214601F0CDF80C20FFF708FF0746BE60A3
:10307C00307838B9564CE0683946FFF7FBFE60698A
:10308C00FFF77EFF5349096840468847BDE8FF813A
:10309C001CB54F4C206930B1FFF703FF0321FFF73C
:1030AC0005FF002020610221606901F028FA13BDA0
:1030BC0010B5044601F0CDFF844209DAA0B201F04C
:1030CC0097FF43484069BDE81040012101F017BA51
:1030DC00FEE700003E484069082101F010BA10B527
:1030EC003B4C207801286FD1E288607804F188018C
:1030FC0050B1012815D0022825D0042834D0082836
:10310C004BD0102855D010BD0B2104F11C00FFF73B
:10311C0083FF012060700021BDE810400420FCF703
:10312C0092BF00F05FF8C0B200284DD10220607051
:10313C000B2104F13400FFF76FFFBDE810400121B3
:10314C000420FCF780BF00F04DF8C0B200283BD142
:10315C000B2104F15800FFF75FFF04206070002181
:10316C00BDE81040FCF76FBF04F1640001F016F8E5
:10317C00C0B260B90B2104F14C00FFF74DFF0820E1
:10318C0060700121BDE810400420FCF75CBF04F125
:10319C005800BDE810400B213EE700F023F8C0B208
:1031AC0090B90B2104F12800FFF736FF1020607056
:1031BC0010BD00F017F8C0B230B901210420FCF7A3
:1031CC0042FF00206070207010BD00003C08002001
:1031DC00C40B00203808002034080020D81200202E
:1031EC00DF2F000004F1400000F0D8BF90EA010F7F
:1031FC0044BF81F0004100F075BE00BF421A3CBFD5
:10320C00801A89184FF0004CC0F3C752FF2A24D003
:10321C00C1F3C75313B3D21AD2F1190327DD4CEA09
:10322C0001214CFA03F321EA0303D140C20D4CEA0D
:10323C000020401834BF20EA0C004CEA5000D205A4
:10324C0053EA006373EB0C0C52EB1020420012F1AA
:10325C00807F38BF7047C00DC0057047490212BF50
:10326C009A4200EB5120F8E7D2F11703D9D57047F9
:10327C0070B5044600F086FF451EAD41ED0F124EB1
:10328C0030680028FCD0A04701203060002D1CBF06
:10329C00BDE8704000F07ABF70BDF8B504460D462D
:1032AC0000F070FF461EB641F60F074F3868002835
:1032BC00FCD02846A04701203860002E1CBFBDE87A
:1032CC00F14000F063BFF1BD00800C4070B50446C6
:1032DC000D46164600F056FF401E8041C00F3E4979
:1032EC000A68002AFCD0012E02D0022E02D003E084
:1032FC00257002E0258000E0256001220A6000288C
:10330C001CBFBDE8704000F041BF70BD0B461146BC
:10331C00324A904201D132480EE0181800F8101FC2
:10332C0070470B4611462D4A904201D12D4803E0BF
:10333C00181800F8201F70470122C018C6E710B5F6
:10334C00264C49220A212046FFF7EBFFFB220821DD
:10335C002046FFF7E6FF012209212046FFF7E1FF97
:10336C002149002008602149086010BD70B516463F
:10337C000C4640F0010218B9062C38BF42F040024E
:10338C00164DD2B20A212846FFF7C0FF00F016F8FE
:10339C00002E16480FBF40F6011115490E6041F67C
:1033AC0001610160E200D2B208212846FFF7AEFFAE
:1033BC002846BDE8704003220821A7E70A480121EE
:1033CC00016001688907FCD570470A480168C90784
:1033DC00FCD440687047000000800C4000B00C40EA
:1033EC0010B00C4020B00C4030600C4010900C40E1
:1033FC000037084014900C40010040F10980F4465D
:10340C00404200F005F851F000416047010000BF58
:10341C0009D0B0FA80F18840C91CC1F58461090556
:10342C0001EBD02140057047B0B581EA030C0CF0DC
:10343C00004C40F2FF7515EA11541DBF15EA1357E5
:10344C00AC42AF4239E0E41923EA455343F480130C
:10345C00C90241F0004141EA505EC7021100A7FBCE
:10346C00020200284FF00000EEFB01204FF000019B
:10347C00E3FB072118BF42F001024018002149412B
:10348C00E3FB0E01A4F580640F0302D2520040410D
:10349C00494154F101046CDD470872F1004250F1CE
:1034AC00000051EB0451A1F580115CBF41EA0C0105
:1034BC00B0BD4CEA05510020B0BD05EA1357AC4233
:1034CC0014BFAF4241E050EA410E1CBF52EA430E1A
:1034DC0002E061460020B0BD24423C441BD15FEAAF
:1034EC00070EF6D0090302BF01460020AEF1140E00
:1034FC00B1FA81F7AEEB070401FA07FE0C37C7F1FE
:10350C00200100FA07F7C8404EEA000E23EA4553A3
:10351C0043F48013A2E733F00043B3FA83F704BFFC
:10352C00B2FA82FE77440B3FE41BB7F1200E2FBF9B
:10353C0002FA0EF3BB40C7F1200E22FA0EFE38BF82
:10354C0043EA0E03BA40641C82E750EA410E14BFF2
:10355C0052EA430E6FF000014FF4001717EB430FC4
:10356C008ABF194617EB410FB5E74CEA055100200D
:10357C00B0BDD4F10104B4F120070FDAC4F1200777
:10358C00520828BF42F0010210FA07F501FA07F7BA
:10359C00E1BF2A43E0403843E1400FE0352C98DC92
:1035AC00C7F1200452EA400220FA07F218BF42F099
:1035BC00010231FA07F0A1400A43002172F10042E6
:1035CC0050F1000051EB0C01B0BD00002DE9F041B1
:1035DC0040F2FF7581EA030C0CF0004C15EA115413
:1035EC001DBF15EA1357AC42AF42E9E0BC41C1F331
:1035FC001301C3F31303801A994143F4801304D2CB
:10360C00641E4000494180185941C90241EA505199
:10361C00B1FBF3F603FB1611A2FB0675D7EBC0202A
:10362C00A94102D2761E80185941C90241EA505173
:10363C00B1FBF3FE03FB1E11A2FB0E75D7EBC020F2
:10364C00A94103D2AEF1010E80185941890241EA19
:10365C009051760546EA8E2EB1FBF3F603FB16115C
:10366C00A2FB0675D7EB8020A94102D2761E8018EA
:10367C005941C90241EA50514EEA060EB1FBF3F62C
:10368C0003FB1611A2FB0675D7EBC020A94102D291
:10369C00761E80185941C90241EA5051B1FBF3F72B
:1036AC0003FB1711A2FB0735D3EBC020A94167F12F
:1036BC0000070CBF004247F0010766F3D5274FEA1D
:1036CC001E31B80814F5806414DDBD0775F1004295
:1036DC0050EB0E5051EB045111F5801F5CBF41EAC9
:1036EC000C01BDE8F0814CF07F6141F0E04100201D
:1036FC00BDE8F081BD076D0840EA0E5041F4801121
:10370C00D4F10104B4F120060ADAC4F12006020057
:10371C00E04001FA06F3E1401843B24015430EE0D5
:10372C00342C14DCC6F1200445EA40056D0820FA5F
:10373C0006F2154321FA06F0A1400D43002175F164
:10374C00004250F1000051EB0C01BDE8F08100206B
:10375C005FEA0C01BDE8F081CFB992185B41B3FA76
:10376C0083F704BFB2FA82F6BF190B3FB7F12006FC
:10377C002FBF02FA06F3BB40C7F1200622FA06F669
:10378C0038BF3343BA401CB1E419641E2FE77F42A3
:10379C0031F00041B1FA81F404BFB0FA80F6A419FB
:1037AC000B3CB4F120062FBF00FA06F1A140C4F186
:1037BC00200620FA06F638BF3143A0403C1B16E722
:1037CC00AC421ABF05EA1357AF4214E050EA410667
:1037DC001CBF52EA4306BFE750EA41073046614638
:1037EC001CBF41EA0551BDE8F08152EA430C08BF09
:1037FC00C143BDE8F08100204FF4001616EB410FD9
:10380C0098BF16EB430F08BF16EB410F24BFC14303
:10381C0005E016EB430F0CBF61464CEA0551BDE8C1
:10382C00F08100004FEAF17CBCF1E04C2CBFBCF500
:10383C00001F11E05FEA4C0C34BFBCF17F5F2EE03F
:10384C005FEA9C0C4FEA0C1C4FEA3C0CC10071F176
:10385C0000414CEB50707047C90241EA5051C00214
:10386C0018BF41F0010141F000414FEA6C50C0F12A
:10387C000900212810D240EACC7CCCF1200C11FAA2
:10388C000CF070F10040CCF1200C21FA0CF00CF093
:10389C00004C40EB0C0070474FEACC70704749006D
:1038AC0011F5001F04D84FEACC10FF30C00570474B
:1038BC00C8177047E0B50821ADF80010019004213D
:1038CC0000F00FF808B100200EBD02980EBD00B537
:1038DC0083B00821ADF800100190052100F001F82B
:1038EC0007BDADF802106846DFF8BC15096808473B
:1038FC002DE9F44F80468B4600260C27009807FBD9
:10390C0006F9002400EB090A00204AF824000025DF
:10391C0008EB09000BEB840107FB05F250F82500BE
:10392C00895800F063FB5AF82410FFF75FFC6D1CFC
:10393C004AF82400032DEBDB641C032CE4DB761C1F
:10394C00032EDBDBBDE8F18F2DE9F84F8846002113
:10395C004FF00C0909FB01F3002208EB0307C61812
:10396C0056F8226047F82260521C032AF7DB491CE8
:10397C000329EFDB0C20FFF79DFF009000260C20A5
:10398C00FFF798FF824600273446354609FB04F0C2
:10399C00404450F8250001F041FD21F00041FFF7B3
:1039AC0041FF01463846FCF769FB0BD20F46204617
:1039BC0000F004FB009941F82600284600F0FEFABE
:1039CC004AF826006D1C032DE0DB641C032CDCDBA9
:1039DC00384601F023FD0022DFF8D03401F046FD1B
:1039EC000022DFF8C83401F0B5FD009806D1FFF7CE
:1039FC006EFF5046FFF76BFF0020B7E050F8260033
:103A0C0000F060FB0746B7420FD0002509FB07F01A
:103A1C00404400EB850109FB06F0404400EB8500B7
:103A2C0000F0A6F86D1C032DF0DB5AF8260000F010
:103A3C0049FB0446B4420DD0002709FB07F008EB04
:103A4C008401014408EB8602104400F091F87F1CBD
:103A5C00032FF2DB31014FF07E5058F8011001F0CA
:103A6C0089FD3101002548F80100B5420BD006EB69
:103A7C00460031012F1858F8270058F8011000F0B3
:103A8C00B5FA48F827006D1C032DEEDB0027B74272
:103A9C001AD0002507EB4704B54212D006EB4601BD
:103AAC003019691858F8200058F8211000F09EFAC7
:103ABC0005EB040B014658F82B0000F00BFA48F804
:103ACC002B006D1C032DE7DB7F1C032FDFDB002499
:103ADC00B4420DD004EB44003718300158F82710CD
:103AEC0058F8000000F082FA80F0004048F82700F7
:103AFC00641C032CECDB761C032EFFF644AF022671
:103B0C005AF8260000F0DEFA0546B5420FD0002424
:103B1C0009FB06F0404400EB840109FB05F040442E
:103B2C0000EB840000F024F8641C032CF0DB0098FC
:103B3C0050F8260000F0C6FA0446B4420DD0002519
:103B4C0009FB05F008EB8601014408EB84021044E4
:103B5C0000F00EF86D1C032DF2DB761ED0D500980C
:103B6C00FFF7B5FE5046FFF7B2FE0120BDE8F28F1D
:103B7C0002680B6803600A6070472DE9F04F074636
:103B8C0085B0B868DFF82843DFF828530E4601F0FB
:103B9C0045FC00F017F900F019F9FFF743FE8046D9
:103BAC00786801F03BFC00F00DF900F00FF9FFF71D
:103BBC0039FE0090386801F031FC00F003F9002266
:103BCC00DFF8F432DFF8F452FFF700FDFFF72AFEBE
:103BDC000446404601F022FC00F0FCF882468B467D
:103BEC0001221BF007FAFFF71DFE0746009801F0B3
:103BFC0015FC00F0EFF8CDE9020101221BF0FAF9F7
:103C0C00FFF710FE0190204601F008FC00F0E2F8EE
:103C1C0004460D4601221BF0EDF9FFF703FE80462A
:103C2C000022504659461BF0E5F9FFF7FBFD814693
:103C3C00DDE9020100221BF0DDF9FFF7F3FD009036
:103C4C000022204629461BF0D5F9FFF7EBFD8246F2
:103C5C000098494600F0CAF90546019800F0C2F8F0
:103C6C00834600F0D0F80446284600F0C8F82146F8
:103C7C00FFF7BCFA044600F0C1F88346284600F072
:103C8C00C2F800F0ABF805460198494600F0AEF9D1
:103C9C008146009800F0A6F8834600F0B4F8074679
:103CAC00484600F0ACF83946FFF7A0FA07464846FC
:103CBC0000F0A9F8804600F0A1F80146404600F05B
:103CCC0009F98046384600F08DF8814600F0A1F8DD
:103CDC00824600F08FF85146FFF788FA494600F00B
:103CEC00F9F8824600F08EF80146504600F0F2F8E2
:103CFC00306000F07AF88346204600F084F800F03B
:103D0C006DF84FF0804A00F07AF87060414600F090
:103D1C006DF88346204600F065F800F077F800F067
:103D2C006EF8B06000F061F88346204600F06BF846
:103D3C0000F06CF800F063F8F0602146204600F0CB
:103D4C0055F900F056F800F049F801904946FFF794
:103D5C004DFA834600F056F800F040F830614146C9
:103D6C00384600F043F98346204600F044F800F052
:103D7C0035F800F044F87061414600F037F80090D7
:103D8C003946204600F032F90146009800F0A2F8BE
:103D9C0000F035F8B0612946204600F027F900F014
:103DAC0035F800F02CF8F0614946019800F092F8D3
:103DBC00044600F027F82146FFF718FA306205B0E8
:103DCC00BDE8F08F22462B46FFF72EBB00223A4B64
:103DDC00FFF7FCBB00222B46FFF726BB01465846DB
:103DEC0000F078B8394600F001B93946284600F0A1
:103DFC00FDB883462846294600F0F8B85846514687
:103E0C0000F0F4B84046414600F0F0B85946FFF7D0
:103E1C00EDB92046214600F0E9B82DE9704304467F
:103E2C000D46002654F8260001F0F8FA804604EB03
:103E3C0086008946C06801F0F1FA42464B461BF0F9
:103E4C00EDFA00F028F800F02AF8FFF7EBFC45F843
:103E5C002600761C032EE5DB69681948FFF7C6F9C6
:103E6C006860002455F824001649FCF707F93CBF9C
:103E7C001549FFF7BBF91549FCF7EEF89CBF14493F
:103E8C00FFF7B4F980F0004045F82400641C032CC3
:103E9C00E8DBBDE870830022074BFFF7C5BA044A84
:103EAC00044BFFF793BB00003C0800200000F03FE0
:103EBC007FBDC282FB210940008066400000E03FCC
:103ECC000000B4C2000034C30000B443010034430A
:103EDC000000B4C390EA010F44BF81F00041FFF72A
:103EEC008DB900BF431A4FF000423EBF5340C01A79
:103EFC00C91800BFD3095FEAD05C13EB400F34BF85
:103F0C00B3EB410F40E07CEBD1530CD342EA0121DF
:103F1C0022D8D1EB402009D3400A28BF5FEA5001D8
:103F2C0040EBCC507047401A15D04002B0FA80F2EA
:103F3C00521C9040400A4FEA3C23B3EB026384BF0F
:103F4C0000EB730007E040F400001A16DB07C2F127
:103F5C000102D04018437047182BFCDC31FA03F2F5
:103F6C0002FA03F3591A38BF42F00102D2EB402097
:103F7C003CBF4000ACF1010C5FEACC5CC20572F1B5
:103F8C0000414CEB5020704713EB400F0FD24B000D
:103F9C0009D0ACEBD153022B03DB4902172BDDDD2F
:103FAC0070479143401A4300D5D10020704713EB62
:103FBC00410FD0D36FF0000070470000002840F193
:103FCC000780F446404200F003F850F00040604790
:103FDC000AD0B0FA80F18840D1F19D01C9050206E2
:103FEC0072F1004241EB102070470000FF2212EAF0
:103FFC00D05C1DBF12EAD153944593422BE09C44F4
:10400C00D30780EA01021A4043EA002043EA012167
:10401C00A1FB0030410038BF40007CF17F010BDB7D
:10402C00FE294ADA5B0842EAC15153EA006373F194
:10403C00004C51EB10207047D1F1080CDCF1200141
:10404C002FDB5B0810FA01F10B4373F1004120FAEE
:10405C000CF05041704794451CBF02EAD153934277
:10406C0080EA010202F000421DD0400019D0490044
:10407C0017D05BB9634514D00902B1FA81F39940AA
:10408C00BCEB030CC00140F00040C1E70002B0FAE9
:10409C0080FC10FA0CF0B3EB0C0CC90141F00041A0
:1040AC00B6E71000704740000AD0490008D010F164
:1040BC00807F94BF11F1807F02E042F0FF40704797
:1040CC00D04370474100090E7F3915D4D1F11F013F
:1040DC0014D4400007D2C00140F00040C84048BF93
:1040EC006FF000407047C00140F00040C8404CBF2A
:1040FC004FF00040404270470020704700424FF0A4
:10410C00004058BFC043704710B5044C207810B91C
:10411C0001F012FB2070207810BD0000502D002003
:10412C0013460A46194601F074BB13460A46194653
:10413C0001F08DBB4FF4805101F0C2BB10B50446A9
:10414C00FFF7E2FF18B12046BDE81040F2E710BDC2
:10415C0070B500F013F828B1324629462046BDE868
:10416C007040E2E770BD70B500F008F828B1324637
:10417C0029462046BDE87040D2E770BD04460D4686
:10418C001646C1E7EFF3108072B67047EFF310805C
:10419C0062B670470138FDD17047704703000020AC
:1041AC0013F0030F09D0521E22BF13F8010B11F8A4
:1041BC0001CBB0EB0C00F3D07047121F22BF53F8A9
:1041CC00040B51F804CB6045F7D0121D0AD200BA8B
:1041DC009CFA8CFCB0EB0C0038BF6FF0000088BF71
:1041EC0001207047521E22BF13F8010B11F801CBAE
:1041FC00B0EB0C00F6D0521C08BF10467047000004
:10420C0062B38B0708D0521E11F8013B00F8013B3A
:10421C0000F024808B07F6D1830740F0208000BF8C
:10422C00103A07D330B4B1E83810103AA0E838107F
:10423C00F9D230BC530724BFB1E80810A0E808102D
:10424C0044BF51F8043B40F8043BD20724BF31F87B
:10425C00022B20F8022B44BF0B7803707047083AEE
:10426C0007D3B1E80810083A40F8043B40F804CBF7
:10427C00F7D25307E4E70000DFF800F0F5C00110B7
:10428C00DFF800F049BA0110DFF800F0E5C10110C9
:10429C00DFF800F021B30110DFF800F095C0011039
:1042AC00DFF800F00DA80110DFF800F0BDBE011022
:1042BC00DFF800F021C10110DFF800F0A5B9011002
:1042CC00DFF800F021BA0110DFF800F0BDC20110D8
:1042DC00DFF800F015B60110DFF800F019A7011097
:1042EC00FEE7DFF89002007D70476EE038B5FFF70F
:1042FC00FCFFDFF888520446A8680021FFF7CCFFCA
:10430C006969081AA969814238BF002084F31188B1
:10431C0032BD2DE9F041FFF7E8FFDFF860520446AB
:10432C00A8680121FFF7B8FF0121A9830021E983C7
:10433C006E6929682A68871B801A711A884204D210
:10434C000020A88384F311882BE084F311880024C7
:10435C0006E0A61931460120FFF7A2FF3F1B0446D9
:10436C00A742F6D2FFF7C1FF8046E88B012804D1A3
:10437C0031460020FFF794FF0446A96914F1010FA0
:10438C0008BF084603D0E01B814238BF084681199C
:10439C00FFF78AFF012028840020A8832E6088F371
:1043AC001188BDE8F08100218182DFF8CC11C06852
:1043BC004969884204D1DFF8F4010068FDF72EBA90
:1043CC007047808A7047704700BFDFF8E4110968B6
:1043DC00EFF3118081F3118870470021DFF8D421AD
:1043EC00016012681044FDF721BA38B50446FFF796
:1043FC00EBFF0546207C022808D12046FFF758FF2A
:10440C00002020742946A068FFF756FF00F0D6B8AC
:10441C0003681A4003680B408B4208BF0A4312B171
:10442C00016891430160104670472DE9F0411F4629
:10443C0017F1010F18BF002F92B000F0B3F80AD09B
:10444C006B463A46DFF8701108A8FFF739FF08A849
:10445C000390022002E00020039003208DF810004E
:10446C0006950796FFF710FF0290FFF7ADFF804609
:10447C00324629462046FFF7CBFF050009D00398AA
:10448C0018B1FFF721FF0020039088F3118828460C
:10449C0032E01FB988F3118800202DE0FFF7ECFE05
:1044AC0005460299DFF80C01C1F818D0694600687E
:1044BC002044FEF7DFFC0298FFF70AFF9DF810007E
:1044CC00022804BF0398FFF707FF88F311882846DA
:1044DC00FFF7D6FEFFF778FF0446039818B1FFF7F5
:1044EC00F3FE0020039000200299886184F3118868
:1044FC009DF8100000B1059812B0BDE8F081F8B538
:10450C000446DFF8B00000680E462718FFF75CFF82
:10451C0005462068304320603846FCF76DF810B132
:10452C0085F31188F1BDFFF7A7FE06463846FCF768
:10453C0067F80746FA69B9692046FFF769FF7861A1
:10454C0060B13846FFF7B4FE01203874F86808B142
:10455C00FFF729FFB8682946FFF7AEFE85F31188EF
:10456C003046BDE8F240FFF78BBE2EE7DFF8540073
:10457C0080687047A4010020780100207801002099
:10458C00616280F311882046704738B504460D46A9
:10459C00FFF7EBFF616A2943FFF7F2FFBDE83240FA
:1045AC00FFF776BE04460D461646704740AE000037
:1045BC0038AE000044AE0000F743000085F31188CC
:1045CC0031BD0000C8010020816042607047102896
:1045DC0004D3DFF80C101038C1F8000F704700003E
:1045EC0000E000E001F0D0B9FFF7EFBEDFF8981162
:1045FC00C20744BF01220A60820744BF4FF4807295
:10460C000A60400744BF4FF4803008607047DFF801
:10461C007C21C30748BF1160830748BF5160400726
:10462C0048BF91607047000010B504460020D4E9E3
:10463C000A2347F6906101F0A1FC0123994228BF9F
:10464C004FF0FF3010BD10B50C46FBF729FD011DD6
:10465C00201AB0F1004F05D8081BB0F1004F38BF3D
:10466C008C4200D20C462146BDE810400120CEE71A
:10467C002DE9F04180460A46D8E90A01D8E90C45F3
:10468C00A0FB026701FB0277A6196F41340C0022D4
:10469C0044EA07414046FFF7D6FFC8E90E67BDE87C
:1046AC00F081F8B50646FFF79FFF0446DFF8E050AF
:1046BC00DFF8E0700120E861FFF798FFF96A096AFA
:1046CC00142088473069B0F5802F34BF0421010CC9
:1046DC000120FFF79CFF3A681268232100209047C5
:1046EC00DFF8B41001200860DFF8B400016821F491
:1046FC00E02141F4803101600120286084F31188AD
:10470C00F1BD0000FBF7D6BC10B5DFF89000446893
:10471C0000F006F86069A169BDE810400847000088
:10472C00012063E7F8B504460D46FBF7C3FCD4E95A
:10473C000A6732463B4601F021FC3DB1A6FB002343
:10474C0006FB013307FB0033C4E90C23F2BD10B5A3
:10475C00DFF83C00DFF84C40002101600121C16111
:10476C0021602068FFF7DCFFDFF848100968096A50
:10477C0014208847206810BD000080B5FBF79AFC18
:10478C00000C40EA014002BD0420094018200940F9
:10479C00000024438401001080022443E401002023
:1047AC00002009402C200940DFF81000C088704719
:1047BC0000000000B0010010FEE77047F00100207F
:1047CC00DFF800F049C10110DFF800F019C2011048
:1047DC00DFF800F0CDA00110DFF800F0C1C101102E
:1047EC00DFF800F009B70110DFF800F03DC101104F
:1047FC00DFF800F029AF0110DFF800F0CDC1011097
:10480C00DFF800F085B0011070B5FFF7AFFE04467D
:10481C000026DFF81C550DE024FA06F0C00708D579
:10482C0005EB8600406820B1026811001CBF3146C0
:10483C009047761C2868F6B28642EDD370BDDFF83F
:10484C00F4040168DFF8F0040160DFF8F004FFF70E
:10485C009CBEF8B50D00ECB244BF85F0204585F444
:10486C00C045A10001F1804101F5012100EA0506D6
:10487C000A68DFF8CC743E4085EA02038243324377
:10488C00034000F4E0261B0EB6F5E02F03F0010305
:10489C0002D1D30105D411E010F4E02F08BF002B96
:1048AC000CD002F4E023B3F5A02F04D0B3F5C02F45
:1048BC0004D1052300E0062363F312420A6041028F
:1048CC0007D504F18042A90D02F5083201F001016F
:1048DC00117000020ED5FFF773FF00F0A4F92C0243
:1048EC004CBF1C4600249A4322430A60BDE8F240A8
:1048FC00FFF76ABFF1BD002948BF0021800000F11D
:10490C00804000F5012001F03F010268920941EA64
:10491C0082110160704710B5DFF82804006800F0C0
:10492C007F0401F0ADFB012804D101F09FFB0228AC
:10493C0008BF641C204610BD2DE9F04FA1B0054600
:10494C0001F051FC01F09CFB0026012804D101F080
:10495C008DFB022808BF0126DFF8EC03C168C1F308
:10496C00815101294FF0010A04D10068000E0AFAA6
:10497C0000F00643DFF8D403DFF8B4930078DFF8D7
:10498C00D073FFF7C8FF5FEA000BC9F800B004D082
:10499C00FF225946384600F023FD4FF00008002452
:1049AC0005E00AFA00F07C5440EA0808641C55F84B
:1049BC00240000F0FF01FE2909D0FF29F6D059454B
:1049CC0003D226FA00F2D207EBD5022070E00920C0
:1049DC0001F007FDC9F8805008232422002117A8F4
:1049EC00FFF7FAFE8DF874A017AA012109F1D40083
:1049FC00FFF7F6FE0024DFF85CA30BE05046FFF750
:104A0C0028FF4FF0FF31E0B2FFF775FF0020CBF825
:104A1C000400641CD9F80000844213D226FA04F076
:104A2C00C00709EB840B48BF0420F0D428FA04F02B
:104A3C00C00747BF385D55F8201004F0FF0040F464
:104A4C00C041DBE70823302200210BA8FFF7CCFE86
:104A5C00DFF80453DFF80423287813900BAB002005
:104A6C000090102109F18400FFF7C2FE08232822D0
:104A7C00002101A8FFF7C0FE6868DFF8E412079078
:104A8C0000230020089001AA09F1A000FFF7B8FE4E
:104A9C00DFF8D002016821F47C5141F4005101602F
:104AAC000120DFF8C4120860DFF8C0120860002093
:104ABC0021B0BDE8F08F2DE9F0419D4E04460D4626
:104ACC0006F1D40800F05EF8002035B90020206013
:104ADC006060A06085B125E0401C15F82010FE290F
:104AEC00F4D0FF29F8D03268914204D206EB810150
:104AFC0049680029F0D000244046FBF775FD20469C
:104B0C00BDE8F08106EB81020123546003FA01F148
:104B1C0062681143616055F820208E49204600F0F0
:104B2C00C7F8384615F82010FE29E5D0471CFF2998
:104B3C00E8D1F6E72DE9F04105000E46F7B203D0B7
:104B4C007B4C2068874201D3022019E004F1D40881
:104B5C0000F018F804EB8700416809B101250BE05F
:104B6C00456001216868B94008436860324679495C
:104B7C00284600F09DF800254046FBF735FD2846F9
:104B8C00BDE8F0814FF0FF314046FFF721BE10B574
:104B9C000C46F0B1416821FA04F2D20719D5012272
:104BAC00A240914341600020614901EB84025060B6
:104BBC006748025D6748FF2A0EBF44F02041D1F8D8
:104BCC00801051F82210FFF744FE4FF0FF312046C1
:104BDC00AAE0022010BD10B5044606E090FAA0F041
:104BEC00B0FA80F12046FFF7D2FF60680028F5D1BB
:104BFC0010BD5F4932E038B50C464D4915460A6880
:104C0C00944204D201EB84014968814201D0022014
:104C1C0032BDFFF7D5FD00F006F89A4305FA04F310
:104C2C001A430A60AAE053490A680123A34070475B
:104C3C0010B53F4B1C68A14204D203EB81035B68A7
:104C4C00834201D0022010BD01F18041100001F51A
:104C5C00083118BF01200870002010BD0968C14040
:104C6C0001F00100704710B5314B1C6801F0FF02D8
:104C7C00A24204D203EB82025268824201D002208B
:104C8C0010BD0A464FF4E02100F012F8002010BDD0
:104C9C0010B10160002070470220704780B500F011
:104CAC001CF880F0005080F4C04040F0004002BD81
:104CBC0038B51F4C25680B46114601F0FF02AA427D
:104CCC0004D204EB82025268824201D0022032BD2F
:104CDC001846FFF7BEFD002032BD810001F1804176
:104CEC0001F50121164A09681140234A1368014352
:104CFC00C340DB07126D48BF41F48001C240D007AE
:104D0C0048BF41F40001084670470B4610B51146E8
:104D1C00074A1468A34204D202EB8302526882420F
:104D2C0001D0022010BD1846FFF7E5FD002010BD94
:104D3C0008280020E0200240E0200260A828002083
:104D4C00007F077F44130050A83F0050562D0020D1
:104D5C00F8280020007FC76720A900004B480000FE
:104D6C0015480000003009400C400940080009407B
:104D7C00C0200240D020024080200240FFF724FDDA
:104D8C00002032BD002200F02FBB000000F1010317
:104D9C00810704D010F8011B89B18107FAD1026890
:104DAC00B2F10131914311F0803F04BF50F8042F50
:104DBC00F6E710F8011B11B110F8011BFBE7C01A44
:104DCC007047000038B54FF6FF74A0420DD100209B
:104DDC00654A137898420EDA21F8204001EB8005E1
:104DEC000023401CAB70C0B2F3E700F0A9F810B17F
:104DFC0004800021817031BD2DE9FE4F80460026D4
:104E0C00B8F1000F82B006D0080004D0180002D010
:104E1C00109F380001D1022035E00F9C00252CE0BA
:104E2C00EDB2A94638F829004FF6FF7188421EBF33
:104E3C0008EB890A9AF8020000281DD0029ABDF8E6
:104E4C003810049800F02AF85FEA000B14D09AF896
:104E5C000200C00705D500F019F8012100F086F812
:104E6C0006439AF80200800706D500F00FF80221DD
:104E7C0000F07CF80643F6B26D1C3B490978E8B2A9
:104E8C008842CDD3F0B205B0BDE8F08F0197009405
:104E9C009DF80C2038F829005B46704730B500248B
:104EAC0000E0641CA3B28B4207D2A4B200EB041343
:104EBC00DD689542F5D1184630BD002030BDF8B5FF
:104ECC00044606980D460026F0B9022B1AD110782C
:104EDC00517800EB01270798C043B9B201420FD1BA
:104EEC00E8680168204600F012F8B9B288420CD08C
:104EFC00E8680168BAB2204600F00FF8064604E0F4
:104F0C00802602E00D2600E00B263046F2BD80B56F
:104F1C0000F016F800B1807802BD70B504460D465D
:104F2C00164600F00DF840B929464FF6FF7000F018
:104F3C0007F808B9112070BD04808670002070BD80
:104F4C0010B5002200E0521C074C2478D3B2A342C7
:104F5C0007D2D2B231F822308342F4D101EB820075
:104F6C0010BD002010BD0000BC0800202DE9F04150
:104F7C0086B00D4690461F46044603AB4FF6FF72B3
:104F8C001B21FDF7E0F8059040B3FF21029102468A
:104F9C00BDF80C10DDF834C001910DF112030021A5
:104FAC00009120463946E047064688B97889ADF825
:104FBC001000E80705D5424604A92046FCF767FF18
:104FCC0005E00C9B424604A92046FCF76FFF064601
:104FDC002EB11B2104A8FDF7C5F800E015263046BC
:104FEC0006B0BDE8F0810000002201F097BC000083
:104FFC00F8B5284C284F0646608800258119812970
:10500C0008DBC0F18005A9B2381800F082F8002046
:10501C00761B6080B1B26088384400F07AF8608802
:10502C00301880B2810900EB5161C909A0EBC110A5
:10503C006080A81980B2F2BD164841880088081A11
:10504C008030811100EB5161C911A0EBC11080B20D
:10505C00704780B5FFF7F0FFC0F1800080B202BD51
:10506C0070B50C4B0C4D1C8800220CE0A4B2521CE9
:10507C002E5D00F8016B641CA4B2A60904EB566605
:10508C00F609A4EBC61496B28E42EFD31C800846E8
:10509C0070BD00004A2D0020482A002070B504463F
:1050AC00464800680D468047064645480FF22502E3
:1050BC00C460056100F19801183001F05FFC01F04B
:1050CC00E9FC3046BDE870403E49096808473C4859
:1050DC000078704738B50C46394D0021A98068809E
:1050EC00010003D029690A0018BF8847200008D0A6
:1050FC0000202870E968080003D0E88808B9204629
:10510C008847E988080003D06869BDE8344017E097
:10511C0031BDF8B504460D4600F042F8A84202D263
:10512C0000F03EF80546264EB788F01900F118013C
:10513C002A462046FFF764F8E819B0802846F2BDED
:10514C002DE9F04104461D481D4E00681D4F0D46CB
:10515C0080478046307820B1396840468847002027
:10516C001CE0812DA3BF04F18000A5F180018025F6
:10517C000021F18070612A46214606F19800FFF764
:10518C003FF801203070B068401CB060284601F038
:10519C0092FC05463968404688472846BDE8F081B0
:1051AC00074841888088081A8030811100EB5161D2
:1051BC00C911A0EBC11080B2704700003408002068
:1051CC00C82A002038080020DFF800F0D5C00110F4
:1051DC00DFF800F00DC30110DFF800F081C60110FC
:1051EC00DFF800F095B70110DFF800F08DC2011068
:1051FC00DFF800F03DC20110DFF800F009C3011028
:10520C00DFF800F045C00110DFF800F0D1C7011045
:10521C00DFF800F067BE0110DFF800F011C80110D4
:10522C00DFF800F021C80110DFF800F0F1C5011023
:10523C00DFF800F039C601100C381F283ED8DFE823
:10524C0000F0103D3D3D3D3D3D3D3D3D3D3D3D1561
:10525C003D3D3D1A3D3D1F243D3D3D293D3D3D2EEF
:10526C003338DFF85801006800687047DFF84C01EC
:10527C00006840687047DFF8440100688068704738
:10528C00DFF838010068C0687047DFF8300100684B
:10529C0000697047DFF82401006840697047DFF847
:1052AC001C01006880697047DFF810010068C06954
:1052BC007047DFF808010068006A704700207047EB
:1052CC0000B589B009216846FFF782FF09B000BD1F
:1052DC0000B581B0FFF786F9DFF8E400DFF8E410E1
:1052EC000068884218BF00F039F8DFF8DC00B0F530
:1052FC00B26F03D001B05DF804EB30E001B000BD3B
:10530C0000B581B0FFF750FA012818BFFEF7E8FF8F
:10531C000FF21D00FFF760FFFFF762FFFFF764FF5E
:10532C00FFF766FF01B05DF804EBFFF765BF000007
:10533C0000B581B0FFF748FFFEF79EFF01B05DF8A6
:10534C0004EB0320FFF75CBF10B504460320FFF706
:10535C0057FF2046BDE81040FFF756BFFEE7FEE7BB
:10536C0000B581B0FFF754FFDFF86000C06801B0F2
:10537C005DF804EBFEF78CBFDFF85410DFF8540037
:10538C0088617047FFF748BFFFF74ABF01B9124960
:10539C00FFF74ABF10B588B00446002001900B46B9
:1053AC001820009002AA21460C48FFF741FF02A9E1
:1053BC002046FFF712F808B010BD0000F0010020E5
:1053CC0098CA011070472820900500007801002031
:1053DC004401002000040000A8AD000028AD00002E
:1053EC0062F30F2262F31F4200B500BF1300964612
:1053FC009446103928BFA0E80C50FAD85FEA417CDB
:10540C0028BF0CC048BF40F8042BC90728BF20F8A0
:10541C00022B48BF00F8012B00BD00005FF0FF0C11
:10542C001CEAD05114BF614506E0C110400721F0C1
:10543C00E04101F16051704779B900F00041000280
:10544C000AD0B0FA80FC00FA0CF001F16051A1EB2B
:10545C000C5101EBD0214005704741020CBF40F4C8
:10546C00E0016FF00001002070470000F0B44FF035
:10547C00004591EA030C44BF6B4001F047BB00BFF1
:10548C00841A71EB030603D2001BB141121973414C
:10549C004FF4001C1CEB410F34BF7CEB430443E086
:1054AC000C0DA4EB1356352E50DC45EAC323DB0A56
:1054BC0045EAC121C912B6F120050DDD63FA05F6E6
:1054CC00EB4086EA0305124218BF45F00105C018EF
:1054DC0051F100010CD213E062FA06F5F24055408E
:1054EC00F3415A40B340F3405A408018594107D316
:1054FC0049085FEA30005FEA350528BF45F0010531
:10550C0001F58011420875F1004250F1000041EBA9
:10551C000451F0BC4FF4001C1CEB410F38BF70471A
:10552C000020090D090570471CEB410F10D252EAFF
:10553C0043060BD0BCEB410F05D80C0DAB43661EDC
:10554C00342EB5DD02E0AB4380185941F0BC7047F6
:10555C00F0BC704790420CD141EA030C50EA4C0C61
:10556C0007D0994205D14FF4001C1CEB410F38BFFA
:10557C008942704710B5FF2313EAD0541DBF13EABC
:10558C00D1529C429A4239E0A41ADA0780EA01030C
:10559C00134042EA012142EA0020421A3CBF641E39
:1055AC0001EB4202090AB2FBF1FE01FB1E221202C0
:1055BC00B2FBF1F001FB10226EF30F201202B2FBD2
:1055CC00F1FE4EEA00207F3406DDFE2C24DA53EA8D
:1055DC00500050EBC45010BDD4F1020401FB1E224C
:1055EC0040F08071192C1DDC21FA04F0C4F1200468
:1055FC00A140114371F10042584110BD9C421ABFA9
:10560C0003EAD1529A420FE080EA010E0EF00043F9
:10561C00400004D0490016D143F0FF4010BD4900B2
:10562C0008BFD343180010BD9C4205D1D21AF7D045
:10563C0001F00041484010BD4A0212BF08464840E4
:10564C0000F0004010BD4AB90902B1FA81F2914054
:10565C0044B1A418C00140F000409EE7C90141F0DC
:10566C00004152420002B0FA80F4A040141B94E7AF
:10567C00BF48006A002202E0BD48006A01220621F0
:10568C00FFF7D6BA10B50FF2F4210A6882B0009277
:10569C00FFF7EEFF00F00FF818B1FFF7EDFF002059
:1056AC0016BD0221B34800F050F900F043F8601E1B
:1056BC008041C00F16BD0421684633E110B50FF2CE
:1056CC00C020007882B08DF80100FFF7D1FFA84808
:1056DC00816A896809680C310968C906F8D4FFF732
:1056EC00CBFFFFF7C5FF01210DF1010000F01AF906
:1056FC000121684600F029F900F01CF814B16FF094
:10570C00010016BD9DF80000C007EAD4002016BDAC
:10571C0010B50FF27020007882B000F055F801211E
:10572C00FFF7CAFF00F006F814B16FF0020016BDC7
:10573C00002016BD04469FE738B58D4C04F12C01B2
:10574C0004F13400FFF7B7F9002820623BD0204663
:10575C0001F0BCFC88482061214600202073207099
:10576C0001F09FFCA062C8B1AB2000F02DF8012124
:10577C00FFF7A2FF451EAD41FFF77EFFED0F28009E
:10578C0003D0FFF79BFF00B10025280018D0FFF7CE
:10579C0079FFA0B104F14000764902E0002511E048
:1057AC00083002683AB10B780579AB4202BF4B78EE
:1057BC004579AB42F4D160620AB1012502E00025C3
:1057CC0000F005F8284632BD8DF8000050E738B5DA
:1057DC00674C206AE0B1B920FFF7F6FF0121FFF713
:1057EC006BFFFFF749FF606A0079EF2805D10A25A6
:1057FC00FFF748FF08B16D1EFAD1A06A18B101F08D
:10580C004DFC0020A062206AFFF7E5F90020206221
:10581C0031BD70B582B004460D461646FFF74EFFFB
:10582C0048B9032000F044F800F078F8FFF743FF84
:10583C0018B1FFF721FF002076BD2946304600F055
:10584C0084F8FFF777FF601E8041C00F76BDF8B576
:10585C0004460D46164602E0FFF70EFFF6192DB36F
:10586C00FFF72CFF10B9FFF753FF08B10020F2BD72
:10587C0004F0FF00C0F580702F46854288BF0746B4
:10588C00022000F015F8ED1B200A8DF802003C19DF
:10589C00FFF7EEFEFFF70FFF28B93946304600F050
:1058AC0041F80028D8D0FFF7E7FEDFE70120F2BD72
:1058BC008DF800008DF80340200C8DF80100704726
:1058CC0070B50918040B491E240382B0081B202252
:1058DC0000F6FF708DF80020050B002604E0FFF7A2
:1058EC00CBFE04F58054761CAE4215D2FFF7E6FED3
:1058FC0010B9FFF70DFF08B1002076BD200C8DF814
:10590C0001008DF8034000F009F8FFF7D4FE0028E1
:10591C00E5D0FFF7B1FEEFE7012076BD200A8DF848
:10592C000200A5E600B585B001900020039002901E
:10593C00009169460E48806A01F0CDFB002814BF27
:10594C0000204FF0FF3005B000BD00B585B00091D0
:10595C00029000210648019103916946806A01F08A
:10596C00BAFB002814BF00204FF0FF3005B000BD7B
:10597C00A8070020482D002000093D0090FFFF00E3
