:10C2300038B504460D4611F063FD084821680160D9
:10C2400061684160A16881600FF0AFF90FF09FF95C
:10C250002846BDE8324007F0C1BD00BF9C47002022
:10C26000894E0100B78A0100C36B0100B78C010041
:10C27000193301001D8F010021ED0000EB030100C7
:10C280001DC400000900C08602000000D8BC0100E7
:10C2900002000000D4BC01000061310098C200001F
:10C2A000010000000000D0020A05000000000000AC
:10C2B000020100000000000010000000000000006B
:10C2C000EC0000210000000000000000C0C20000DF
:10C2D000A4C2000000000000A8C20000ACC2000020
:10C2E000B0C20000B4C20000B8C20000BCC200006E
:10C2F000F8460020DFF800F041950010DFF800F06C
:10C3000071950010DFF800F0D1950010DFF800F013
:10C310003D970010DFF800F065970010DFF800F09F
:10C3200029980010DFF800F0F5980010DFF800F011
:10C33000C9990010DFF800F0F9990010DFF800F05B
:10C34000159A0010DFF800F0319A0010DFF800F0C5
:10C35000859A0010DFF800F0A19A0010DFF800F0D5
:10C36000F59A0010DFF800F0159C0010DFF800F0DF
:10C370008D9C0010DFF800F0099D0010DFF800F040
:10C38000459D0010DFF800F0D19D0010DFF800F0AF
:10C390002D9E0010DFF800F04D9E0010DFF800F039
:10C3A0006D9E0010DFF800F08D9E0010DFF800F0A9
:10C3B000AD9E0010DFF800F0CD9E0010DFF800F019
:10C3C000ED9E0010DFF800F00D9F0010DFF800F088
:10C3D000499F0010DFF800F0699F0010DFF800F0BF
:10C3E000D19F0010DFF800F011A00010DFF800F07E
:10C3F00031A00010DFF800F075A00010DFF800F0A9
:10C40000F1A00010DFF800F009A10010DFF800F043
:10C41000B5A10010DFF8181A087070472DE9FE4327
:10C420000C46200454D5DFF8080A007800F01BFE03
:10C4300005004AD0DFF8FC7939680126002918BFC9
:10C4400011F1010F07D0DFF8F009007800F0ADFD21
:10C450004FF0FF3038602878812802D082282CD015
:10C460002FE000208DF808608DF80900AE88AF79C4
:10C4700095F80280B00A3F2807D1C6F3C21020B158
:10C4800000F029F800F02EF803E000F024F800F0A6
:10C4900078F88146284600F079FD9DF80800A0B1A3
:10C4A000DFF8980901904B469DF8090000903A4644
:10C4B0003146404600F0B0F907E0284600F0FAFBAC
:10C4C000064616B1284600F061FD84F4004000E005
:10C4D0000020BDE8FE8302AB0DF10902294630467B
:10C4E0007047000038B500F07F04C00900F0070075
:10C4F000401E04280D4642D8DFE800F0030C323716
:10C500003C00122C3BD12A7CE9682889BDE83840E0
:10C5100001F055B82889E968012C1DD00B2C17D0E3
:10C520000D2C11D0132C0BD0192C05D01E2C26D17C
:10C53000BDE8324001F04EB9BDE8324001F01BBA0F
:10C54000BDE8324001F004BABDE8344001F0D2B990
:10C55000BDE8344001F0C0B9BDE8344001F069B92C
:10C560001A462046BDE8384014E2204601B0BDE836
:10C570003040C4E2204601B0BDE8304086E10120F1
:10C5800032BD0B4640F21D41401A00F09A8040F245
:10C59000E471401A00F09880801E00F09B802A38D9
:10C5A00000F09A80363800F0928040F29E31401AB6
:10C5B00000F09780401E00F09680401E00F09580AD
:10C5C000801F00F094804FF47F71401A00F091803A
:10C5D00040F6FC31401A00F08F80801E00F08F8002
:10C5E000001F00F08E80083800F08D80401E00F0A3
:10C5F0008C80401E00F08B80401E00F08D80801EDD
:10C6000000F08F80401E00F08F80401E00F08F8071
:10C61000401E00F08F80401F00F09080401E00F010
:10C620009480401E00F08C80401E00F092804DF6F9
:10C63000E231401A00F08F80401E00F09080C01E52
:10C6400000F09180401E00F09280401E00F0928029
:10C65000401E00F09780401E00F09A80401E00F0BF
:10C660009980401E00F09A80401E00F09980401E84
:10C6700000F09980401E00F09980C01E00F0988064
:10C68000801E00F09980401E00F09980401E00F04E
:10C690009B80801E00F09C80401E00F09E80801ECB
:10C6A0006CD0401E00F09F80401E00F0A180401E14
:10C6B00000F0A180801E00F0A280401E00F0A58046
:10C6C000A8E01889FFF716BE9868FFF717BE9868AC
:10C6D00001F0A1BA01F0CEB959891889C9B2FFF7A2
:10C6E00011BE01F001BB01F0D6B9FFF70FBEFFF795
:10C6F00011BE188901F024BB986801F0D8BAFFF781
:10C700000DBEFFF70FBEFFF711BEFFF713BE18896E
:10C71000D968C0B2FFF712BE1889D968C0B2FFF756
:10C7200011BE9868FFF712BE1889FFF713BE18896B
:10C7300001F04ABAD9689868FFF710BEFFF712BE39
:10C740009A7A597A187A01F054BA1889C0B201F06D
:10C7500059BAFFF70BBE1889C0B2FFF70BBE188994
:10C76000C0B2FFF70BBED9689868FFF70BBE986898
:10C77000FFF70CBE1889C0B2FFF70CBE1889C0B213
:10C78000FFF70CBE59891889C9B2C0B2FFF70ABEBB
:10C79000FFF70CBE1889C0B2FFF70CBEFFF70EBE44
:10C7A0009868FFF70FBE1889FFF710BEFFF712BE9B
:10C7B0001889C0B2FFF712BE1889FFF713BE598956
:10C7C0001889C9B2FFF712BED9681889FFF712BEDF
:10C7D00018895989C0B2FFF711BE59899A891889F9
:10C7E000C9B201F062BA18895989C0B2FFF70ABE0E
:10C7F000188901F048BA1889C0B201F031BA5989D4
:10C800001889C9B2C0B2FFF701BE1A69D968986821
:10C8100001F04BB9012070472DE9F843089C804690
:10C8200004F10C000F461546994680B200F09CFBBF
:10C83000060016D08020307086F8019040F27F60AC
:10C840007080B780B57106F10C00F471B0602246BB
:10C85000099900F03AFB31464046BDE8F44300F048
:10C86000A4BBBDE8F1830022831E012B02D99B1ECD
:10C8700002D004E0102900E0042904D002E080384E
:10C88000102800D3022210467047000070B5401EE9
:10C89000052882B00C461546DFF8A4654FD8DFE8BE
:10C8A00000F0030C15182A3D00F04BF808BBE268B5
:10C8B0003146284601F086FC76BD00F042F8C0B94A
:10C8C000E2683146284601F08DFC76BD01F0A5FCFA
:10C8D0000FE0A06868B1DFF86C150160DFF868153B
:10C8E00009888180912181717F2101810C21418101
:10C8F00023E0022076BDDFF854351B6808330022A0
:10C900001B68002100209847B071010AF171010CE9
:10C91000000E70723172042028700EE04FF6FF7026
:10C92000ADF8000002F094F9ADF8000002220220F8
:10C9300028706946B01D00F0C8FA002076BD0120BD
:10C9400076BD257A667A314628468CE738B50128C7
:10C9500015461C4602D0022809D00DE0049B0A4669
:10C960002146284601B0BDE8304002F0DDBA084655
:10C97000BDE8324002F004BE0846BDE8324002F095
:10C980000DBE0B4601281146184608BF02F008BB31
:10C9900002F01BBE38B50C460346E168227C2089B4
:10C9A000022B1D462ED0042B4FD0062B33D0082B44
:10C9B00047D00A2B51D00C2B57D00E2B59D0102B0F
:10C9C00024D0122B61D0162B63D01B2B00F0858056
:10C9D0001D2B00F08680302B18BF322B22D0342B39
:10C9E0003FD0362B49D0382B4BD03A2B5BD03C2B49
:10C9F00067D03E2B69D0402B6BD0422B49D0432BC4
:10CA000075D07AE0BDE8384002F073BEA17ABDE887
:10CA1000344002F084BE1346A27A01B0BDE8304033
:10CA200002F0A3BE6189A289A37B302D04D101B09D
:10CA3000BDE8304002F0CABE01B0BDE8304002F0AF
:10CA4000D2BEBDE8384002F0E6BE13464A880988E7
:10CA500001B0BDE8304002F0E1BEBDE8384002F070
:10CA6000FBBEBDE8384002F0F8BEBDE8384002F039
:10CA7000F7BEBDE8384002F0F4BEBDE8344002F035
:10CA800006BFBDE8344002F010BFBDE8384002F0F8
:10CA900024BF162D03D1BDE8384002F01FBFBDE80A
:10CAA000384002F066BFE17A0B0008D0062906DAAA
:10CAB000009201230A46E16802F011FF32BD022014
:10CAC00032BDBDE8384002F051BFBDE8384002F049
:10CAD0004EBFBDE8384002F04BBFBDE8384001F022
:10CAE000BDBD637C01B0BDE8304001F081BDA289CD
:10CAF000618904F0F5FB002032BD012032BD2DE933
:10CB0000FC410F4615460024DFF83463A8B3032820
:10CB10005AD004283CD005283ED0062844D0072807
:10CB200047D008284CD009283AD00A2851D00B28E1
:10CB30005DD00C2874D00D2800F098800E2869D0A4
:10CB40000F285ED0102857D0112848D012284AD07C
:10CB500030286FD0312876D0322866D0332800F0C4
:10CB60008A80342800F08B80352800F095803628A4
:10CB700063D0372800F0968098E078690190386992
:10CB80000090FB68BA7A797A387A04F0CBFB85E0BA
:10CB9000B86804F0FDFB81E0387A04F03EFC7DE0EB
:10CBA000B86804F09FFE79E0F968387A04F0D0FFA5
:10CBB00074E0FB68BA7A797A387A05F012F86DE099
:10CBC000387A05F042F869E0F968387A05F01BFB1D
:10CBD00064E03A7B7989387A05F072FC5EE0B868E7
:10CBE00005F0ABFC5AE0B86805F0DBFC56E0F968EC
:10CBF000B86805F043FD51E0B97A388905F08CFD3D
:10CC00004CE0387C0090FB68FA7AB97A388905F0F4
:10CC1000D2FD43E0FA68B97A388905F00BFD3DE0B2
:10CC20003989F86805F087FD38E0F968B86806F0DA
:10CC300025F933E038897989262831D028282FDA58
:10CC400005F096FA2AE04FF6FF78ADF800803889B3
:10CC5000FF2825DA262823D0282821DA05F095FA9E
:10CC60004045ADF800001BD002200EE0B97A3889AB
:10CC700006F05CF912E0B86805F00DF80EE0387ABD
:10CC800005F05EF8009058B104202870024669460D
:10CC9000B01D00F01AF90AE005F077F8044606E046
:10CCA000022404E000200224287000E00124204631
:10CCB000BDE8F6812DE9F04F044683B0B4F804A036
:10CCC000A0790025012694F802905D4FBAF1040F77
:10CCD00080461BD8DFE80AF09A03365A760004280B
:10CCE000AB4651D0102829D0112820D012281BD0B3
:10CCF000132818BF14280CD0152818BF162843D0A5
:10CD0000172804D018280CD0192805D07EE00A2056
:10CD100011E04FF0020B7AE0E168208906F025FA75
:10CD200072E006F087FA06E006F098FA03E0A17ACE
:10CD3000208906F068FAB871012568E0207A06F0CB
:10CD4000DDFA21E010380528AB465FD8DFE800F0B7
:10CD50001916120D0903E268A17A208901F0EEFB91
:10CD600052E0A06801F0B9FF0EE0A17A208901F03D
:10CD7000AEFF09E0207A02F0B8FC05E002F074FC96
:10CD800042E0207A01F0A0FF002640E0AB46A8B1C7
:10CD9000042804D0052806D006280AD036E0A0686A
:10CDA00006F083FC33E02089E168C0B206F056FC4F
:10CDB0002AE000F04DF806F011FC25E0A06806F02E
:10CDC00068FC21E0062821D8DFE800F01B20140FC2
:10CDD00020040A002089E168C0B203F0A1FB13E03F
:10CDE00000F036F803F06DFB0EE0E168208903F0F7
:10CDF00046FB09E02369A27BA189A06803F014FB2C
:10CE000002E0A06803F0E9FB834600E0B346204659
:10CE100000F0BCF846B1B81D019000955B46424653
:10CE200051464846FFF7F8FC0020BDE8FE8F0000A1
:10CE3000D6480020EC430020DD4800206647002053
:10CE4000604700200102020086C20000E443002087
:10CE500061892089E268C9B2C0B2704700B583B069
:10CE60000821ADF8001001900B21ADF802106846C2
:10CE7000DFF87416096888470EBD1FB58DF80610D7
:10CE80000824ADF800408DF804000624DFF8581699
:10CE90008DF808200393ADF802406846096888477A
:10CEA00004B010BD80B5052006F02BFD00F0EDF9B3
:10CEB0000C2000F001F802BDDFF82C160968ADF86F
:10CEC00002006846084706F02BBD03E011F8013B5D
:10CED00000F8013B13465A1E002BF7D1704711444E
:10CEE000491E03E011F8013900F8013B13465A1EB0
:10CEF000002BF7D1704770B504460D46A8B206F076
:10CF00002BFD060003D02A462146FFF7DEFF304600
:10CF100070BD10B513465A1E3BB110F8013B11F815
:10CF2000014BA342F6D0002010BD012010BD10B56A
:10CF3000044610460A460146204606F02DFD2046CE
:10CF400010BD01F061B9DFF8A425DFF8A435126A3D
:10CF500011541B7805E0DFF89835DFF890251B7831
:10CF6000126AC0181154704710B5040001D1002096
:10CF700010BD04F10C0080B206F0EEFC28B10021D7
:10CF800001600481FF2181720C3010BD80B508B9A9
:10CF9000052002BD10F8021CFF2901D0042002BDAB
:10CFA0000C3806F0E6FC002002BD38B50C46010640
:10CFB00022D5DFF838150A78FF2A08BF4D7805D04A
:10CFC000DFF82C351B78096A9A188D5CFF2D02D189
:10CFD000FFF768FF0EE000F09BF90146FF2004F820
:10CFE000020C234600222846FFF747FF48B120469F
:10CFF000FFF7CCFF012032BD2146BDE838400022BA
:10D0000000E032BD70B50D000446164618D020066B
:10D0100048BFFFF747FFDFF8D81409788C4204D3E4
:10D020002846FFF7B3FF032070BDA5F10C0001688F
:10D03000002904BF817AFF2904D02846FFF7A6FF04
:10D04000052070BD8472012EDFF8A004294603D1AB
:10D05000001D00F055F802E0001D00F039F800F066
:10D0600033F8002070BD2DE9F0410446DFF8840458
:10D07000DFF87874006880478046786800260025CD
:10D0800003E005B9064650F80C0C50B110F8021C2C
:10D09000A142F6D1002D08BF0546F4D000F014F8E7
:10D0A00005E04FF40041204600F0A4F825B13246D7
:10D0B0002946381D00F031F8DFF83C140968404675
:10D0C00088472846BDE8F0814FF40041204642E001
:10D0D00038B500F00FF8002145F80C1C216811B993
:10D0E000256006E0114651F80C2C002AFAD141F8CF
:10D0F0000C5C27E10446DFF8FC0300680D4600479E
:10D1000038B5FFF7F7FF216845F80C1C2560DFF8FC
:10D11000E8130968BDE83440084770B5044600F0DC
:10D1200014F8A5F10C0123680A689D420CBF226027
:10D1300046F80C2C00220A60FF228A72BDE870407B
:10D1400002E1DFF8B41309680847DFF8A8030068B4
:10D150000D46164600472DE9F0410446DFF89003DE
:10D16000DFF8885390F8008020060E462CD5042066
:10D17000FFF7FAFE070008BF042039D04FF6FF7012
:10D1800038807E80A7F10C062878FF280FBF6D78C5
:10D19000296A40440D5CFF2D05D13846FFF7F6FEA5
:10D1A000FFF780FE0EE0204600F0B2F8FF21B172DA
:10D1B0003B46014600222846FFF75FFEC0B13846D5
:10D1C000FFF7E4FE012013E0444510D200F028F8F8
:10D1D000DFF82813096831F81420324321F81420AD
:10D1E000FFF7AFFFE868FFF739FE002000E00320FB
:10D1F000BDE8F08138B50C46BD490978884205463E
:10D200000CD200F00DF8BD49096831F81520A24391
:10D2100021F81520FFF795FF002032BD032032BD15
:10D22000B4480068004730B5B04C0020606083B05F
:10D2300006F0F4FB06F041FDAD480578680006F005
:10D240008BFB20626A00FF21FFF771FE0222FF21A3
:10D25000A01CFFF76CFE06F087FD00F016F8142006
:10D26000A14D2968ADF80200684688470198206101
:10D2700000F00BF81520ADF80200684629688847D1
:10D280000198801E606100203EBD0820ADF80000BE
:10D29000704730B587B00820ADF808001B20ADF806
:10D2A0000A0001200390914D0FF27D008E4C216801
:10D2B0000590E8690690A869049002A88847049937
:10D2C000A96108B1FFF7EEFD00F053F8FFF7DDFFAD
:10D2D0000A20ADF802004FF0FF3001906846216847
:10D2E0008847F1E780B50021804A0A449378FF2BF4
:10D2F00001D1907001E0834203D141F08000C0B2BF
:10D3000002BD491C0229EFD3FFF7CCFDFF2002BD6F
:10D3100010B580F08004022CA8BFFFF7C3FD73484E
:10D320002044807810BD000038B50446FFF778FF30
:10D3300005466E48C1698C4204BFC068FFF78EFD88
:10D340004FEA0500BDE834406B490968084710B54D
:10D350000446608850B9A079FFF7C4FFFF28E07148
:10D3600002D16FF0030010BD002010BD6FF001006E
:10D3700010BD2DE9F04F8BB006F073FC00245FEA7E
:10D38000000B03D006F07FFB4FF0FF3B574DA86822
:10D39000010003D0804701E0FFF784FD0820ADF8CD
:10D3A00008000720504E3168ADF80A0002A88847EF
:10D3B0004F499DF80E20049F0978E8B9002600E047
:10D3C000761C8E42E8D2286A805D9042F8D1F6B28F
:10D3D000FF2EE1D017F8080CFFF784FF17F8061CA2
:10D3E000012908BF387002D0022908BFB870394639
:10D3F0003046FFF7DAFDD1E7404F3868E4B230F845
:10D40000140018B9641CE0B28842F5D3E0B2884237
:10D41000DFF8E480DFF8DC901DD2D9F80000804707
:10D420003968E4B231F814A0002200F047F8344A19
:10D430002C70514652F82420204690478246FF2007
:10D440002870D9F800008047396831F814204AEA7A
:10D45000020200F033F806F004FC07465F452AD0CC
:10D4600007B9284F6869B84238BF0746D9F80000A5
:10D4700080470446FFF709FF1C20ADF80200A869A9
:10D4800031680190684688470821E869ADF81410B2
:10D49000401C1321E861ADF81610099006971A494F
:10D4A000A8690891079005A8316888470798A8617E
:10D4B000204600F005F80BB0BDE8F08F21F81420ED
:10D4C000D8F80010084710B548B1002300E05B1CF5
:10D4D000DCB2944205D2DBB2C45C8C42F7D00020AF
:10D4E00010BD012010BD00009C470020D04400204A
:10D4F00084C20000A0470020A4470020B4470020B9
:10D5000060C200008EC2F52829D30000DFF800F0C9
:10D51000F5950010DFF800F031960010DFF800F00C
:10D520005D9600100A4610B5052A18BF042A03D0DC
:10D53000062A18BF072A08D10C244B4B62431A4411
:10D5400022F8301D9070002010BD022010BD38B5AB
:10D550000D4604462888052818BF042803D006284D
:10D5600018BF072801D1686808B9022032BD01211F
:10D57000204605F048FE08B9142032BD4FF6FE7073
:10D58000844207D0204605F07AFE2989884201D2DC
:10D590001B2032BD3548007800282946204603D09C
:10D5A000BDE8344001F0CCBDBDE8344001F07EBDA3
:10D5B00080B52F4B009313460A46012120E070B539
:10D5C0000D4684B004461646EB88AA8869882888E8
:10D5D00000F032FA58B10020029001960420009029
:10D5E0002A46244B1221204601F0F6FC00E01820C8
:10D5F00004B070BD80B5204B009313460A4613213A
:10D6000001F01CFD02BD38B504461C48012901701B
:10D6100011D11B480088051DADB20120FFF776FF30
:10D6200094FBF5F082B2284601B0BDE830400023FB
:10D630000021FFF76FBFBDE832400020FFF766BF53
:10D6400003B50E480078012881B003D102AA01A9D0
:10D65000FFF764FF07BD0A4A001F108003480170EE
:10D660007047074800887047584800203647002018
:10D6700041F20000BFF2000025F30000DB4800206B
:10D680004C470020704700005D490860704738B57E
:10D690000D460446288817280ADBFFF7E2FF298891
:10D6A000884205D3002000902B460222554987E08E
:10D6B000022032BD80B500F031F80422524900E06A
:10D6C000524906F0D3FD02BD38B50D46044628790F
:10D6D000022809D1E86810B1072101F09BFF0090F2
:10D6E0002B4606224A496BE0022032BD80B50A79FA
:10D6F000102A18BF022A03D100F010F80822DFE731
:10D70000022002BD80B500F009F80A224149D8E79D
:10D7100080B500F003F80C223F49D2E700220092C6
:10D720000B46704738B50D460446A888022809DB29
:10D73000286838B1012101F06DFF00902B460E22C0
:10D7400036493DE0022032BD80B50A79102A18BF63
:10D75000022A03D1FFF7E2FF1022B1E7022002BD47
:10D7600070B50D4682B00446287A1226012809D1E8
:10D77000204606F00FFE69880F38884201DA022041
:10D7800076BD9226687A0128686808BF46F0400690
:10D7900010B1032101F03EFF00902B463246204994
:10D7A000204606F063FD76BD38B50D460446A868F0
:10D7B00010B1052101F02EFF00902B4616221949C9
:10D7C000204606F053FD32BD80B5FFF7A7FF1822B3
:10D7D000154976E738B504460020009000231E2244
:10D7E0000021204606F042FD050006D104480268EB
:10D7F000100002D01E2120469047284632BD00006E
:10D80000D0470020D33E0100053F0100EB3F01005F
:10D810006D3F01007B400100D34001002341010026
:10D82000C74001008F410100094201006E490860B4
:10D83000704780B5002200920B4601226B4900F030
:10D84000BAF802BD80B50A88172A05DB00220092CB
:10D850000B4603226649F2E7022002BD38B50D46A9
:10D860000446A878012818BF02280DD1288800286E
:10D870001CBF6868002807D0022101F0CBFE009091
:10D880002B4605225B4931E0022032BD38B500F05D
:10D890001EF81CBF6868002806D000F036F800901B
:10D8A0002B460722544921E0022032BD38B500F052
:10D8B0000EF81CBF6868002807D0022101F0AAFEFC
:10D8C00000902B4609224D4910E0022032BD0D4642
:10D8D000044628880028704738B500F024F808B1BD
:10D8E00000F013F800902B460B224549204600F02B
:10D8F00062F832BD38B500F016F808B100F005F84E
:10D9000000902B460D223F49F0E7012101F082BE35
:10D9100038B500F008F808B1FFF7F7FF00902B4684
:10D920000F223949E2E70D4604466868704738B56A
:10D93000FFF7CDFF1CBF6868002807D0022101F067
:10D9400069FE00902B4611223049CFE7022032BDFC
:10D9500080B5002100910023132270E738B50D46F1
:10D960000446A86810B1052101F054FE00902B4632
:10D9700017222749BAE780B5002100910023192218
:10D980005DE738B5FFF7CFFF10B1032101F042FE8C
:10D9900000902B461B2209E038B5FFF7C4FF10B1F9
:10D9A000032101F037FE00902B461D221949204625
:10D9B00006F05CFC32BDF8B50446069800901546AA
:10D9C0001E46204606F052FC07000AD106480268AF
:10D9D000100006D0012D04BF3078451CE9B2204666
:10D9E00090473846F2BD0000CC470020A33E01001E
:10D9F000DF3E0100113F0100C93F01005740010017
:10DA000097400100114101004B41010051410100CB
:10DA1000B94101002D420100DFF800F0DD8A00105D
:10DA2000DFF800F0A18B0010DFF800F0D5700010D7
:10DA3000DFF800F09D58001030B540F67B44851F9C
:10DA4000A5423CBF8D1FA54212D2814210D3B2F530
:10DA5000FA7F0DDAA3F10A0040F67744A04207D21C
:10DA6000501C49004843B0EBC30F8041C00F30BD8C
:10DA7000002030BD80B507F0D1FA8DF8000008F025
:10DA8000E3FC9349002008706A469249088001210E
:10DA900040F6034067E080B50FF2D022412141F209
:10DAA0000200FFF7B9FF002002BD7CB5002808BFC7
:10DAB00000294FF620442DD162BB01A808F025FCB7
:10DAC0009DF8040000EBC000451DEDB2284605F0AE
:10DAD00043FF060018D02020307004207070002012
:10DAE000B0709DF8040000280CBF0022721D311D8B
:10DAF000F01C07F01DFB32462946204608F060FF67
:10DB0000304605F036FF15E004218DF80110202085
:10DB1000072106E007F00CFB04218DF801102020FE
:10DB200000218DF800008DF802106A46032120467E
:10DB300008F046FF002076BDFFF76EFF002016BDFF
:10DB400080B500208DF800006A46634800788DF8A3
:10DB50000100042100208DF80200604800788DF853
:10DB6000030042F20200FFF757FF002002BD1FB57D
:10DB70000446089802900798019006980090204665
:10DB800007F050FF8DF80C008DF80D40200A8DF83D
:10DB90000E0003AA032142F22000FFF73DFF5CE0E4
:10DBA00010B582B0044607F07FFF00F003F842F2A0
:10DBB0002100C1E78DF800008DF80140200A8DF8A2
:10DBC00002006A460321704738B5044642F2160542
:10DBD00029460020FFF724FF204607F0C0FB8DF800
:10DBE000000020B16A4601212846FFF715FF0020FA
:10DBF00032BD80B5012307F0A7FD00F01BF842F20B
:10DC00001E00B0E780B5012107F05EFE00F012F8BB
:10DC100042F21D00A7E780B530B101460822304826
:10DC2000FFF753F9002000E0122000F003F840F65F
:10DC3000634098E78DF800006A460121704710B5EF
:10DC400084B0089C0294079C0194069C009407F001
:10DC500055FF42F21301FFF7E3FE002004B010BDB0
:10DC600080B51D218DF8001004218DF8011010B928
:10DC7000FFF7DAFE00E011208DF802006A4603216A
:10DC80004FF61D400DE080B51C208DF800006A465F
:10DC900004208DF8010003210C208DF802004FF6BE
:10DCA0001C4008F08DFE002002BD08F05CBB80B572
:10DCB00030B10C4902780A7040784870002000E0CA
:10DCC0001220FFF7B7FF42F201004CE7000000000E
:10DCD000244F0020264F0020CC430020CE430020BC
:10DCE000904800208848002000B585B06A460DF1B4
:10DCF000020101A8FFF79CFE8DF8080021210720F2
:10DD00008DF8090002AA02A8817002218DF80B107B
:10DD10009DF804108DF80C10BDF802108DF80D1050
:10DD2000090A8DF80E10BDF80010C171090A0172C0
:10DD300041F201000921FFF76FFE002005B000BD90
:10DD400010B582B004460DF1030108F0E4FA00F0CA
:10DD500004F8042141F20540EEE68DF800008DF84C
:10DD60000140200A8DF802006A46704700200080BA
:10DD70000000C000000000E40000002822000000B5
:10DD8000000000040000F7FFFF7F000000303000BB
:10DD90000000000000000000000000000000000083
:10DDA0000000000000000000000000000000000073
:10DDB000002010B5DFF8F0436070207082B000F0F2
:10DDC000E8F8002100F0E2F80098B0F5801F02D1D9
:10DDD00000F0C7F80BE020B900F0C3F800F001F93B
:10DDE00005E000F0A1F800F08FF804206080607872
:10DDF00016BD13B5DFF8B003BDF8021040881C460D
:10DE0000C9B200F0CBF8010009D0DFF8A003049AF2
:10DE10000003A3B2000E08F011FE002016BD012081
:10DE200016BD2DE9FB43DFF8806382B000207070DF
:10DE30001746BDF80A90708898465FFA89F100F09D
:10DE4000ADF80446B8B1002501E0641C6D1CEDB2CC
:10DE5000B9B28D420CD2D5480003012301AAA1B268
:10DE600000F094F89DF8040018F805108842ECD0F2
:10DE7000B8B285423ED0BFB2F81C411000EB9170A1
:10DE8000801087007088BFB23818001DB0F5805F21
:10DE900003DD00F041F800F0A4F874884FF6FF703D
:10DEA000ADF800003D1947F4004000F027F8BDF838
:10DEB0000200C0F30E0000F021F8BA05120E414630
:10DEC000204600F016F95FFA89F141F40040ADF800
:10DED000000000F015F8BDF80000C0F30E00ADF82A
:10DEE000000000F00DF87078010004D17088391D31
:10DEF00008187080002005B0BDE8F083ADF802007E
:10DF000001226946A8B2F4E080B54FF48010009079
:10DF100001226946002004E080B500200090012223
:10DF2000694600F0E6F801BD70B5A1480068804779
:10DF3000044600F023F905469C4800030021000E2A
:10DF400008F09DFD08F0A6FD0646284600F00EF9F3
:10DF50000EB100F006F92046BDE870409549096809
:10DF6000084710B582B040F6FC7400F012F8214664
:10DF700000F00CF8009810F1010F03D1241FA4B297
:10DF8000042CF2DA8849201D488013BD000E08F0E9
:10DF900055BD8648000304236A46704738B50C46D1
:10DFA000051F00E02D1FADB2042D18DBFFF7F1FFB8
:10DFB0002946FFF7EBFFBDF80010BDF80200A142B3
:10DFC00003D1C0B2281A80B232BD0104EAD4011DC7
:10DFD0008D42A8BF281AE3DA002005F092FC002049
:10DFE00032BD2DE9F04F83B000F0C8F86E4FDFF876
:10DFF000BC9183467888041F4FF0FF080025A4B227
:10E000004FEA193A2DE04FF088508119042201A8F7
:10E0100008F056FDBDF804005FFA88F188421BD075
:10E02000BDF80600301A061FB6B2301F40F6FC716C
:10E030008842E8D3BDF802004FF088514A19031D09
:10E04000211A9BB289B25FFA8AF008F0F7FCBDF89A
:10E0500002004019051DADB2BDF80200201A041FD0
:10E06000A4B2042C2ADB04236A4621465FFA8AF014
:10E0700008F0E4FCBDF800004FF6FF71884218BFBD
:10E08000002810D1BDF80200010448BF241FE7D4C6
:10E09000001D8442E0DA002005F033FC584600F011
:10E0A00065F8002023E00004D6D4BDF800005FFA34
:10E0B00088F18842D0D080462E1FB5E7FFF734FFA5
:10E0C00045B12A464FF0885109F1040008F0D2FC0E
:10E0D000FFF71AFF584600F049F8787828B9281D4C
:10E0E0007880C5F5805080B201E000207880BDE8DE
:10E0F000FE8F2DE9F04705462C480E46040B82B0F2
:10E1000017462946E0B208F0BAFC81462848006864
:10E110008047804600F032F88246BA0031464846D1
:10E1200008F0A8FC504600F021F801E02D1D361D36
:10E130003846471EC0B270B104236A46A9B2E0B2A5
:10E1400008F07CFC04223146684608F0F5FC002803
:10E15000ECD000F006F84046164909688847BDE84B
:10E16000F3871148012141700170704728B1124AAC
:10E1700012481268526801211047704738B50F4C99
:10E18000204608F00BFD0546C0B250B10A4A12689D
:10E190005268002120469047204608F0FFFC0028E6
:10E1A000FAD1E8B232BD00004847002000E001008B
:10E1B000A0470020A4470020D801001000400340E1
:10E1C0000020F5E5E0B5ADF806000B460020ADF8FF
:10E1D00008008DF804000092DDE901010022FFF73C
:10E1E00008FE0EBD82B01346ADF802000A460020BC
:10E1F000ADF804008DF80000DDE9000102B010E682
:10E20000DFF800F00158001080B502216846FFF7E2
:10E21000F7FFBDF8000002BD7047704770B5DFF82A
:10E22000385A28780624604305F096FBDFF82C1A4C
:10E23000086008B9132070BD0020FF2206E033807B
:10E24000401C0023F270B2703371C0B22B78984238
:10E250000ADA0B6804FB00F61E4400280CBF4FF6D8
:10E26000FE734FF6FF73EAE70FF2514000F026FD10
:10E270000FF61510FFF7DAFA0FF6551004F005FF48
:10E28000002070BD70B50446208868B160680378CE
:10E29000426800F040F948B9606803784268DFF8E6
:10E2A000C00900F03AF908B9022070BDA078C01F7B
:10E2B0000A2801D3182070BDDFF8A859288801006A
:10E2C00004D02188C0F58030884201DA012070BD79
:10E2D0000C2005F041FB060001D1132070BD002089
:10E2E00008E06268298880B202EB0012401C51816C
:10E2F000491C298081B222889142F2D300203060EB
:10E3000008222146301DFEF7E0FD686810B96E60F6
:10E3100004E0084601680029FBD10660002070BDBA
:10E3200038B502460846DFF83C194C68002301E086
:10E330002346246894B1A5686D899542F8D1226876
:10E34000002B0CBF4A601A6018B10822211DFEF78D
:10E35000BCFD204605F00DFB002032BD012032BD82
:10E36000DFF804190870704710B5044610461422EF
:10E37000114203D000F0DAF8012204E04A0608D581
:10E3800000F0D4F8002201462046BDE8104004F019
:10E390007CBFC80701D4022010BD002010BD70B59D
:10E3A00005460E46B0061C4609D5104600F0BEF8DC
:10E3B00001462846BDE87040012204F066BF88206F
:10E3C000064210D0104600F0B1F8014606F00802EF
:10E3D000284604F05AFF010009D0617A41B1217A40
:10E3E000012904D070BDB00701D4032070BD002006
:10E3F00070BD2DE9F0478146DFF8680844688A4619
:10E4000090461E4600E02468FCB1002700E07F1C17
:10E41000A188B8B28842F6D2A068BFB200EB071557
:10E420006889484528BF8245F1D33EB1297868689C
:10E430003346424605F05DFF0028E8D0089810B149
:10E44000A16849890180284600E00020BDE8F087E6
:10E45000F0B5DFF81028546800E02468E4B1A5683E
:10E460006E89B042F9DBA788BA199042F5DA4FF00D
:10E47000000C01E003F1010C1FFA8CF2BA42ECD25D
:10E480001FFA8CF305EB0312B2F80AE08645F1D1CE
:10E4900001B10E801046F0BD0020F0BD2DE9FC4119
:10E4A00004460027ADF804704FF6FF7860894045B8
:10E4B00015461E4608D001AA0092401C23786268C7
:10E4C00080B2FFF796FF07462378626800F023F8D2
:10E4D00030B923786268DFF8880700F01EF808B1C9
:10E4E00060890CE023786268DFF8800700F015F897
:10E4F00058B11FB1BDF80400A84203D0284600F06F
:10E50000D2F803E07889404400E0608906B13080A9
:10E510003846BDE8F681DFF85807022105F0E9BE6C
:10E5200080B500F0F3FA00B1008802BD80B500F0BC
:10E53000EDFA08B1807802BD102002BD70B5012946
:10E5400082B00446154616D0032918D0052925D0D7
:10E55000072927D0092929D00B292BD00D292DD007
:10E560000F292FD0112931D0132933D0172934D0B6
:10E57000192936D039E02946FFF75BF933E0FFF778
:10E5800070F8ADF8000069462046FFF75BF9060019
:10E590002CD12988204600F073FC27E02946FFF79C
:10E5A0005DF920E02946FFF771F91CE02946FFF7E5
:10E5B0007DF918E02946FFF78FF914E02946FFF7A7
:10E5C00099F910E02946FFF7A3F90CE02946FFF777
:10E5D000AEF908E0FFF7BCF905E02946FFF7BEF900
:10E5E00001E0FFF7C8F9064600E00226304676BD96
:10E5F0002DE9FC410E46054617461C4601A900F0D0
:10E6000092FA804638BB380014D00020ADF80000E4
:10E6100069463088FFF71CFF012FBDF8000018BFC6
:10E620000027FFF783FF01463A46284604F02DFEF7
:10E63000804680B931462846FFF7AEF9804650B98A
:10E64000019DFF2C07D0AB1C1E2229460FF255500E
:10E6500000F0F8FBEC704046BDE8F6817CB50D4655
:10E660000446164601A900F05EFA17281AD03000B9
:10E6700014D00020ADF8000069462888FFF7E8FEB6
:10E68000012EBDF8000018BF0026FFF74FFF01461E
:10E690003246204604F0F9FD010003D12946204608
:10E6A000FFF76FF976BD10B50446FFF739FF01009B
:10E6B0001CBF611E0C18A0B210BD00002DE9F04374
:10E6C0000D4689B08146A87800261E28174614D129
:10E6D000484600F03CFA06001EBFB078FE28FF282E
:10E6E00022D0002000900022AB78F078494600F05C
:10E6F0007EFB304600F040FA16E0122804BF68782E
:10E70000012813D0484600F022FA06000ED03279D4
:10E7100010000BD0100607D4A978484600F0C3FBC0
:10E72000307940F080003071002069E0DFF8384532
:10E730002078FF2812D0A878811E17290ED200F069
:10E740008AF958B1A87800F0B3F938B1287810B92F
:10E750006878012804D1A878122801D006204FE05B
:10E76000A87800F078F9844602A80090AB88AA68DF
:10E7700069782878E0470028804640D1A87800F0E2
:10E7800097F9024602A9484690478046D8B9AB7827
:10E79000042B34D002A8009000222078494600F0D3
:10E7A00026FB804658BBA97802A800F093FB08B16D
:10E7B00000203870A878122804BF697801291ED07B
:10E7C000EEB130711BE06878C8B9A8788DF8000008
:10E7D0008DF804806946A878042818BF0628BDF87B
:10E7E0000800ADF802004846FFF723F828B16B4651
:10E7F00001221621484600F039FB4FF00008404640
:10E8000009B0BDE8F083002070472DE9FE430D46B6
:10E81000804628886988814201D3010001D1012006
:10E820006DE00021ADF8041002914FF6FF7900E091
:10E83000401C0021009100236988002280B2FFF76C
:10E84000D8FD070037D0BDF80400002838D16B464A
:10E850004A460521404600F067FB040001D1112023
:10E860004DE002943878022806D101208DF8060088
:10E87000BDF80000860827E002208DF8060012216E
:10E88000BDF8000090FBF1F63878102813D1788994
:10E8900004F8010B102200F034F81034BDF8040025
:10E8A000401CADF80400B1B2BDF80400884202D2A9
:10E8B00078894845BCD1BDF8040080B90A201EE023
:10E8C0009DF806000128DFD138780228F3D1788935
:10E8D00004F8010B022200F014F8A41CDEE701A9E1
:10E8E0004046FEF7BBFF48B101AB0522162140466A
:10E8F00000F0BCFA10B1029800F067FE0020BDE8FD
:10E90000FE837889000A04F8010B20467968FEF737
:10E91000DCBA10B582B04C880888844201D302006A
:10E9200001D1012016BD00F016F808B90A2016BD65
:10E93000002016BD10B582B04C880888844201D3EF
:10E94000020001D1012016BD00F005F808B90A2027
:10E9500016BD002016BD002200924A1D0B792146EB
:10E9600047E510B5044682B0084669460088FFF7BF
:10E970006FFD08B9012016BD017ABDF800202046C0
:10E98000FFF7F2FC16BD70B582B006460D460024B6
:10E9900001E0641CA4B2A888844229DA286810F82F
:10E9A000142000EB44006946407802EB002080B25E
:10E9B000FFF74EFD50B9286810F814100170286850
:10E9C00000EB440149784170012076BD017ABDF821
:10E9D00000203046FFF7C8FC0100DAD0296811F8A2
:10E9E00014200A70296801EB440252784A7076BDFF
:10E9F000002076BD10B50C4682B020886188814227
:10EA000000D308B9012016BD23799948621DFFF78C
:10EA100084FD08B9102016BD00200090237961887C
:10EA20002088621DFFF7E5FC08B90A2016BD00200A
:10EA300016BD38B504460D4669462888FFF708FD1F
:10EA400008B9012032BD017ABDF800202B462046CE
:10EA5000FFF7A5FC32BD022814D0042814D00628E4
:10EA600014D008281AD00A2812D00C2812D00E2848
:10EA700012D0102812D0122812D0162812D018281E
:10EA800012D013E07B4870477B4870477B48704743
:10EA90007B4870477B4870477B4870477B4870478E
:10EAA0007B4870477B4870477B4870470020704721
:10EAB000022814D0042814D0062814D0082814D012
:10EAC0000A2818BF0C2812D00E2812D0102812D0F5
:10EAD000122818BF162810D0182810D012E06F483E
:10EAE00070476F4870476F4870476F4870476F486E
:10EAF00070476F4870476F4870476F4870470FF214
:10EB00000900704700207047002070475549496848
:10EB100000E0096829B18A6852898242F9D1081D4A
:10EB200070470020704710B50C4600F010F860B137
:10EB300004B120608078FE2801D1172010BDFF2885
:10EB400001D1002010BD162010BD022010BD10B54F
:10EB5000424A1268002100E0491C3F4C2478CBB2A5
:10EB6000A34207D2C9B206234B43D45A8442F3D1FD
:10EB7000D01810BD002010BD10B50446A01C00F038
:10EB800069F9FF20E07010BD10B50C46FFF7DFFFFC
:10EB900030B101794A1C944204BF01F08001017137
:10EBA00010BD000010B582B004001EBFA078FF2881
:10EBB000FE280BD0002000901E232188E078172229
:10EBC00000F015F9FE20A070FF20E07013BD0000DA
:10EBD00070B504464FF6FE70844282B037D008000C
:10EBE0004FF6FF760AD12046FFF7B1FF78BB3046DB
:10EBF000FFF7ADFF05002AD0048073BD012906D1BF
:10EC00002046FFF7A4FF050021D02E800BE002294B
:10EC10001DD10121204604F0F6FAC0B92046FFF7C5
:10EC200096FF050013D0A878FF280ED0FE2807D045
:10EC3000002000901E23E8781422214600F0D7F827
:10EC40002846FFF799FFFF20A8700020287173BDA8
:10EC50000448008870470000D94800201848002068
:10EC6000E0BC01005C46002051470020E8BC0100E8
:10EC7000DCBC0100D53E0100073F0100873F0100D9
:10EC80007D400100ED4001002B4101001B400100CF
:10EC90009D400100914101001142010007E8000080
:10ECA0000BE8000013E9000035E9000063E900000B
:10ECB00087E90000F5E9000033EA000082490860B6
:10ECC0007047814948607047804908707047032247
:10ECD00090FBF2F080B2FEF796BC0178B02904BF39
:10ECE000417800290CD10179122903D1417C0129F5
:10ECF00006D101E01B2903D140880121FEF7A0BC09
:10ED0000704710B5724C607004F0A8FA401C207077
:10ED100004216078FEF706FCBDE81040FFF77EBADC
:10ED200038B50C46200411D569484078FEF79BF9A8
:10ED3000050008D02878A02804BF284600F008F86D
:10ED40002846FEF723F984F4004032BD002032BD8E
:10ED500030B587B0044601208DF8000001A9204697
:10ED600005F072F805002AD19DF806105648C9072B
:10ED70000AD54368180005D060886A4601A99847FB
:10ED800005461CE006251AE00368180006D06088D6
:10ED90006A4601A99847050001D110E006259DF8B3
:10EDA000050060B99DF806008DF810008DF814502C
:10EDB0000020ADF8120004A96088FEF73AFD9DF826
:10EDC000000000281EBFA068002800F0FEFB45B927
:10EDD0009DF80600122806BF9DF8051001291B2882
:10EDE00003D060880121FEF72BFC07B030BD2DE970
:10EDF000F0410446FF2C0D46164698461FD02020B1
:10EE0000FEF7B2F8070018D0B02038707E707D8011
:10EE100087F80480069929B1182207F10800FEF747
:10EE200054F804E0182207F10800FEF780F839468C
:10EE30002046FEF7BAF8002002E0132000E002208E
:10EE4000BDE8F08110B54FF47A746243BDE810401C
:10EE500007F0F3BE10B504001EBF2078FF28FE287F
:10EE600003D007F024FFFF20207010BD80B5009371
:10EE700013460A46014615480078FFF7B8FF02BD61
:10EE800030B583B004460D4605F06FFA50B901A8BD
:10EE90000090ADF804507F230C48007800222146F2
:10EEA000FFF7A5FF37BD00B583B07E238DF80410B2
:10EEB0008DF8052001A90091002201460348007841
:10EEC000FFF795FF07BD00000C4800204F470020CA
:10EED000D9480020052923D006291BD0072918BFAF
:10EEE00009291DD00B2918BF0D2919D00E2913D0BF
:10EEF0000F291CBF1129122912D0162918BF172952
:10EF00000CD01B2918BF1D290AD0522918BFD2299D
:10EF100006D007E0C0687047006870478068704797
:10EF2000406870470020704770B5052914461D469B
:10EF300016D0062912D0092918BF112910D012297C
:10EF400012D0162918BF17290CD01B2918BF1D294C
:10EF50000AD0522918BFD22906D007E0072606E0BA
:10EF6000022604E0052602E0032600E001264FF613
:10EF7000FF72944203D105F00DFA841B02E0D229FE
:10EF800008BF0C34301980B200F0FAFA38B105B17C
:10EF90002C807142BDE8704009B200F03BBB70BDEF
:10EFA00080B5FFF797FF18B1BDE8024000F00DBB38
:10EFB00001BD0000DFF800F0E9940010DFF800F078
:10EFC000A19400100A7802704A7842708A78C97851
:10EFD00002EB0121418070472DE9FC410D461646A8
:10EFE0001F460A9A0999044601AB00F0F8F98046D9
:10EFF00008BB0199089808703346DFF86805017866
:10F00000491CCAB2002A06BF012101220A4601702A
:10F01000294601980271009701980279204600F074
:10F020000DF8804620B901981E2100F01DFA02E07B
:10F03000019800F0FDF94046BDE8F6812DE9F04168
:10F04000044684B00E4617469846172000F098FAFA
:10F05000050026D00A9A100003D04146281D90478B
:10F0600000E00020010A2E70E9706F70A870052181
:10F07000001DADF80800ADF8001001956946DFF8F5
:10F08000E80400780028204602D000F059F801E09A
:10F0900000F00CF80446200004D0284600F095FA51
:10F0A00000E01324204604B0BDE8F08110B50B88C1
:10F0B000DFF8B8240C2463431A44303A536833B958
:10F0C0004B685360098950811181002010BD1620C2
:10F0D00010BD80B5052000F00FF858B9062000F0EB
:10F0E0000BF838B9042000F007F818B9072000F031
:10F0F00003F800B1012002BD0C2210B5DFF86C143A
:10F1000042431144A1F1300484B06168A9B1DFF831
:10F11000582412787AB1ADF800000191694620892F
:10F12000ADF80800608900F00BF810B1606800F0DD
:10F130004CFA00206060012000E0002004B010BD07
:10F1400070B50D4604462889010004D0DFF820146C
:10F150000988814201D21B2070BD6868042100F03B
:10F1600059FA0646288930702889000A7070288864
:10F17000B0702888000AF0702889051D4FF6FE70CF
:10F18000844213D10C20FDF7EFFE01000CD090203B
:10F1900008704C8002200871CD808E60DFF8D403A7
:10F1A0000078FDF702FF18E0132070BD3346AAB2C5
:10F1B00000212046FFF7FEFE010007D002280ED0F6
:10F1C000072810D012280CD01F280DD1DFF8980383
:10F1D00001780A001CBF491E0170002070BD142078
:10F1E00070BD022070BD042070BD38B504460020FB
:10F1F00060600879022821D1CA88042A1EDB886849
:10F2000001784378C57801EB0321837889B203EB59
:10F2100005230D1D95429BB210D1052B18BF042B61
:10F2200003D0062B18BF072B08D1218123806FF054
:10F23000030100F0EFF96060002032BD012032BD13
:10F240000B88037002220B881B0A43700B88012B6A
:10F2500006D14A88827004224988090AC1700CE0EC
:10F26000022B0AD14A8882704A88120AC2708A88A0
:10F27000027106228988090A417110467047022AE4
:10F280001BDB0A784B7802EB032202800288012AFA
:10F2900005D18A78C97802EB012141800BE0022A6E
:10F2A00009D18A78CB7802EB032242800A79497926
:10F2B00002EB0121818000207047012070470A88FD
:10F2C00002700A88120A42704A8882704A88120ABA
:10F2D000C2708A8802718A88120A4271CA88827151
:10F2E000C988090AC17108207047082A18D10A780C
:10F2F0004B7802EB0322028011F8022F4B7802EBCD
:10F300000322428011F8022F4B7802EB0322828005
:10F3100011F8022F497802EB0121C18000207047CB
:10F320000120704704E0022A00D108E00120704764
:10F330000A8802700988090A4170022070470A7819
:10F34000497802EB0121018000207047F8B504469E
:10F350000D4616461020FDF707FE070016D0A02028
:10F3600038707D80002078702EB10C223146381D17
:10F37000FDF7ABFD04E00C220021381DFDF7D7FDA1
:10F3800039462046FDF711FE0020F2BD0120F2BDF6
:10F390002DE9F04180460D4616461F462020FDF718
:10F3A000E3FD040019D0A2202070667065800698E5
:10F3B00020716771079929B1182204F10800FDF73F
:10F3C00084FD04E0182204F10800FDF7B0FD214699
:10F3D0004046BDE8F041FDF7E8BDBDE8F08170B5FD
:10F3E0001E0004460D4621D0012103F00CFFD8B1C8
:10F3F00061480078002100E0491CC9B2814211DA5D
:10F400005E4B1B6803EB01125388002BF4D10020E4
:10F41000107001F14000508022B1D480157232602A
:10F42000002070BD152070BD142070BD012070BD7E
:10F4300010B5044610220021FDF779FD23E00022DB
:10F4400000E0521C4C4909788A420BDA4B490968A2
:10F4500001EB02114B88002BF3D00B798342F0D1E2
:10F4600008467047002070474FF47A724A4300F113
:10F47000090301460FF2190007F0DFBB10B504467F
:10F48000607A07F014FCFF20607210BD00000000DD
:10F4900010B504001CBF6088002807D01721204643
:10F4A00000F005F82046BDE81040C1E710BD1CB5CE
:10F4B0000446207804280FD10020019000900A46CD
:10F4C000E188207A1323FFF763FFE18802B0BDE8EB
:10F4D0001040122205202EE013BD072170B504460E
:10F4E000002539BB18E025480068EDB200EB051691
:10F4F000307800281CBF707AFF280CD0F088A0421A
:10F5000009D13046FFF7BAFF14213046FFF7CFFF8D
:10F510003046FFF78DFF6D1C17490978E8B2884225
:10F52000E1D30425FF222146284600F004F86D1C93
:10F53000082DF7DB70BD10B50C240C4B604318444C
:10F54000A0F13004608988420AD1606840B1FF2A86
:10F550001CBF0178914203D100F037F800206060B1
:10F5600010BD0000DC48002036470020584800202D
:10F570004C47002034470020354700203847002002
:10F5800080B5001D80B2FFF719FD28B1BDE8044029
:10F590006FF0030100F03EB802BD000070B500F04E
:10F5A00035F8054604F1080080B204F0D5F90600EC
:10F5B00005D02A48B48001683160066008362849C1
:10F5C000096828468847304670BD38B500F01EF8F7
:10F5D000224A05461068002101E00146006878B122
:10F5E00000F108039C4221BF8388C3180833A3425B
:10F5F000F3D3036800290CBF13600B6004F0B9F962
:10F600002846BDE8344016490968084704461548AD
:10F610000068004738B504460D4600F00FF80100B9
:10F620000AD06842204401F10803984221BF8B8828
:10F63000C9180831814200D2204632BD0749096805
:10F6400041B101F10802904221BF8A888A1808322C
:10F650008242F4D30846704700000000A84700200B
:10F66000A4470020A04700202DE9F041DFF8945B7B
:10F67000DFF8948B28782824604304F06DF9C8F8EB
:10F68000000008B913202EE00027FF260FE01880A5
:10F690001822002098705E721E72987283F82400FF
:10F6A000002103F10C00FDF742FC7F1CFFB228781B
:10F6B00087420BDAD8F8000004FB07F14318002F4B
:10F6C0000CBF4FF6FE704FF6FF70E0E70FF2D1402F
:10F6D000FFF7F7FA0FF6E930FDF7D6FF0FF63D40DA
:10F6E00003F0D3FC0020BDE8F081DFF8201B087098
:10F6F0007047F0B583B000F0BDF907000DD1294681
:10F700002046FDF7C4FF070007D10198DFF8003B52
:10F7100000960322294600F02CFD3846FEBD70B548
:10F7200088B004460120ADF808000D464FF6FF7082
:10F73000ADF80A0001A902208DF80C00002000F0AD
:10F740007CF900F036FD06000CD102A92046FDF739
:10F75000FBFF060006D10198DFF8B83A00951122A8
:10F7600000F069F9304608B070BD2DE9F041164649
:10F77000022E18BF102E88B080460D461F4622D19B
:10F780000DB301A900F015FD0446E8B90120ADF85C
:10F7900008008DF80C604FF6FF70ADF80A00324695
:10F7A00029460DF10D00FDF790FB02A9404600F03F
:10F7B000E1F8044640B90198DFF85C3A0097072267
:10F7C00000F039F900E00224204631E100B587B0AD
:10F7D00000F01BF88DF80510ADF8022028218DF8F7
:10F7E000061000220CE000B587B000F00EF8ADF86E
:10F7F000022003218DF80510002228218DF8061023
:10F80000694600F0E0F807B000BDADF80010022135
:10F810008DF80410704713460122D4E070B584B00F
:10F820000446ADF80410ADF806201D4602A900F00C
:10F83000C0FC06000DD101A92046FDF73BFF0600E4
:10F8400007D10298DFF8D4390095052201A900F00C
:10F8500090FC304604B070BDF6E013460022B2E0E2
:10F860000DE1F0B583B000F005F907000DD1294690
:10F870002046FDF757FF070007D10198DFF8A039B0
:10F8800000960F22002100F074FC3846FEBD38B50A
:10F8900000F019F8172807D0287A002804BF687AE2
:10F8A000012800D114E0022032BD38B500F00BF879
:10F8B000172807D0287A012804BF687A012800D1C8
:10F8C00006E0022032BD0D460446694600F071BCD8
:10F8D00029462046FDF744FF32BDE6E008E12DE968
:10F8E000F0410E0086B0804617461D4639D03800DC
:10F8F00037D0404604F04EFDC0B20021C9B20C23FF
:10F900004B433344421F9B889A4201DA1B202AE072
:10F91000491CCAB2BA42F1D301A9404600F049FCE1
:10F9200004001FD1B0680090B388728831884046C7
:10F9300000F012F9040015D100208DF811008DF8A7
:10F94000107001208DF8080003968DF812501722D0
:10F950000C98DFF8D038009002A9019800F009FC5B
:10F9600000E00224204606B0BDE8F0816CE086E0AD
:10F970009BE0BDE030B50D4685B02A7904460023F2
:10F980000621FFF7D1FA0390C8B12888ADF800002E
:10F99000691D688800F056FB002000F04DFB2A79B5
:10F9A0000398ADF80820FDF790FA69462046FDF768
:10F9B0008BFE040004D00398FFF707FE00E0132439
:10F9C000204605B030BD2DE9F04188B00D46044613
:10F9D00090461F4601A900F0ECFB064638BB5FEAE3
:10F9E00008000FD02888ADF8080002A96888ADF893
:10F9F0000A0002208DF80C00032000F01EF8FDF72D
:10FA000075FE03E029462046FDF770FE06000ED184
:10FA1000162229460DF10A00FDF757FA0198DFF882
:10FA200008388DF808800097092200F004F8304665
:10FA300008B0BDE8F08102A99BE38DF80D002820F5
:10FA40008DF80E0020467047F0B583B000F012F834
:10FA500007000DD129462046FDF754FE070007D1C7
:10FA60000198DFF8C83700960B22002100F081FBD7
:10FA70003846FEBD0D460446164601A999E3F0B589
:10FA800083B0FFF7F7FF07000DD129462046FDF7A9
:10FA90003FFE070007D10198DFF8943700960D224A
:10FAA000294600F066FB3846FEBDF0B50D4683B032
:10FAB0000446287A002804BF687A0028164614D124
:10FAC00001A9204600F075FB07000FD1294620460A
:10FAD000FDF746FE070009D10198DFF85837009678
:10FAE0001322002100F045FB00E002273846FEBD4E
:10FAF000F0B587B00D460746144601A900F059FB42
:10FB0000060026D1384604F045FCAB88401F8342EE
:10FB100003DB384604F03EFC431FA86800906A8867
:10FB200029889BB2384600F017F8060011D1002052
:10FB30008DF808000C22294603A8FDF7C6F968884D
:10FB4000DFF8E036ADF81800009417220198FFF7AF
:10FB500072FF304607B0F0BDFEB50D4616461F4693
:10FB6000044600233A461621FFF7DEF9029098B1C9
:10FB70000899ADF80050ADF80260ADF804703A464F
:10FB8000FDF7A3F969462046FDF70EFE040004D0F8
:10FB90000298FFF71AFD00E013242046FEBD000086
:10FBA0002DE9F0430E4687B0804630781746002492
:10FBB00060B97078012809D0B0781B2818BF1D28BB
:10FBC0003CD1DFF848562978FF2901D1062091E081
:10FBD0001D2812D1404600F000FB04000DD0A27A8F
:10FBE00010000AD010062ED4B1784046FFF75BF91A
:10FBF000A07A40F08000A07225E001A80090B388B0
:10FC0000B2687178307804F01BFB0028814670D10F
:10FC100001A800900022B37828784146FFF7E7F862
:10FC20000028814665D1029808B100203870B0786C
:10FC30001D285ED1002C5CD0A0725AE0404600F036
:10FC4000CCFA040001D1002054E0B07801281DD185
:10FC5000B188B06801AA04F02DF95FEA000948D123
:10FC6000A078052818BF072808D009281CBF0D2830
:10FC7000112803D0172817D12069A8B1B27801AB99
:10FC80002146404600F037F8387032E0A1788842CB
:10FC900007D16368180004D0B188B06801AA9847FA
:10FCA000DBE74FF0040924E0DFF88C25607A127856
:10FCB00090420FD001A900910022B3784146FFF78E
:10FCC00096F8814630B9B17801A8FFF703F908B179
:10FCD00000203870A078032808D1A189BDF804005D
:10FCE000814288BF01464046FFF7CAF8204600F02F
:10FCF000AFFA484692E12DE9F8450D468246A878CC
:10FD0000052816461F464FF0010847F230540BD025
:10FD100007280FD0092834D00D2839D011285AD0FF
:10FD2000172800F080808DE03A463146284600F0E2
:10FD3000B0F82BE0072E19D195F82400EA89401C71
:10FD400085F824003988786800EB810010F8041DDC
:10FD5000407801EB002081B2914210D2401CA88172
:10FD600005F10C012888FFF705FE56E038790A28CE
:10FD700028D195F82400441EA441E40F23E0002478
:10FD800021E03A463146284600F0B3F804461AE02E
:10FD90000D2E14D195F82400401C85F824002888E5
:10FDA00004F0F8FA3988401E8142E8DBE889081837
:10FDB000E88105F10C012888FDF7AAFC2DE03879CF
:10FDC0000728D6D00124002C08BF012E3BD138795A
:10FDD0000A283DD14CE0112EC8D138887988401EC0
:10FDE000484395F82410491C85F8241080B279689E
:10FDF00008448178C07801EB002080B24FF6FF7193
:10FE00008842BCD0401CA88180B2E9898142B6D327
:10FE1000288805F10C01FDF797FC287A214606F0A9
:10FE200014FF162414E0287B01283A463146284660
:10FE300002D100F04AF901E000F00FF90446012C6C
:10FE4000C1D023E00124092E04BF388800280ED039
:10FE500000973346687A00225146FEF7C8FF30B952
:10FE600031463846FFF736F808B14FF0000844B97C
:10FE7000002000901A22AB78687A5146FEF7B7FF4F
:10FE800001E0162C02D0284600F0E2F94046BDE819
:10FE9000F28510B50529044621D100F0C2F8516859
:10FEA00010889278012A03D101EB8000001F03E043
:10FEB000122250430844123801784078E28901EB5D
:10FEC000002080B2904212D2401CA08104F10C01AB
:10FED0002088FDF7EFFB00F0AAF8162010BD10797E
:10FEE0000A2802D194F8240008B9012010BD00208E
:10FEF00010BD2DE9F043092987B0044615463CD1D1
:10FF000028886988401E484394F82410491C84F8C6
:10FF1000241080B269680A5C0844407802EB00262D
:10FF2000207B012854D128886988002748431FFA7C
:10FF300080F82F80B946C1454ADA6888A17C431F02
:10FF400068684844421D9BB204F1130004F0D1F9E3
:10FF500070B1B94506D068686A8800EB0901384479
:10FF6000FCF7B3FF6888C7192888401CBFB22880F7
:10FF7000688848445FFA80F9DDE728790A2803D1C8
:10FF800094F82400002848D1A37CAC4800F060F825
:10FF9000002837D1A37CAA4800F05AF8002831D1B4
:10FFA000A37CA84800F054F800282BD1A37CA648D5
:10FFB00000F04EF830BB2879022818BF052804D07D
:10FFC00008281CBF0F280C281CD100F02AF86E88C6
:10FFD000B6B24FF6FF7086421FD0218A8E421CD2E5
:10FFE000217B701C0129E0810ED1ADF8000069462B
:10FFF000208A00F027F8032000F01EF82088FDF783
:020000040001F9
:1000000075FB06E0012009E0208804F10E01FDF7F0
:100010006DFB00F00CF8162000E0002007B0BDE8F2
:10002000F08394F82400401C84F824007047207A60
:1000300047F2305106F009BE8DF8050028208DF8F2
:1000400006007047ADF8020002208DF804007047EA
:1000500004F11302022104F04CB9F0B50E46172E3C
:1000600083B0044647F2305522D1208804F092F93B
:10007000A18BA38A421F5118A183A28B618A511AB6
:1000800089B2994212DAA0F1050C5F1ABC45B4BFDF
:10009000431F5B1AA069084400909BB2218A208804
:1000A000FFF75AFD20B900F060F80CE0012000E0F5
:1000B000002000F054F8012E01D10120FEBD00F017
:1000C00054F800F047F81620FEBDF0B50E46044681
:1000D000172E83B0104647F230552ED1627D21692C
:1000E0000C277A438B1802881988914202BF5988DD
:1000F0004288914202BF8288998891421DD18168CD
:100100009868FCF706FFC0B1607D227D401CC1B23B
:10011000914260750FD22169C0B278430F18B86858
:100120000090BB887A8839882088FFF715FD20B9B0
:1001300000F01BF80CE0A07D00E0002000F00FF8BC
:10014000012E01D10120FEBD00F00FF800F002F8F1
:100150001620FEBD1920A0703C48606070478DF8E5
:10016000040001A92088FDF72FBB207A294606F05C
:100170006CBD2DE9F041069CFF2C05460E46174646
:10018000984614D005F108031E2229460FF24D109F
:10019000FEF758FE6C72AF70C5F804803EB1314670
:1001A00005F10C00BDE8F0411822FCF78EBEBDE859
:1001B000F08110B50C4600F010F860B104B1206079
:1001C000007AFE2801D1172010BDFF2801D10020A0
:1001D00010BD162010BD022010BD10B50A4A1268CD
:1001E000002100E0491C074C2478CBB2A34207D27F
:1001F000C9B228234B43D45A8442F3D1D01810BD3E
:10020000002010BDD948002014480020504700208D
:10021000EF3E010063410100D13F0100293F010091
:100220004F410100D7410100594001009B400100AE
:1002300015410100C9400100DA480020DCBC010082
:10024000E0BC0100E4BC0100E8BC01002342010065
:10025000F8B5044604F10800FEF7FCFDA51C04F106
:1002600010062878172818BF19281AD1A87A01284B
:1002700013D13068A8B1002708E00C217943084465
:10028000806808B1FFF7A1F97F1CFFB231793068AF
:100290008F42F2DB03F06DFB03E0B06808B1FFF7BB
:1002A00094F9002028701822FF20E8710021002016
:1002B000307504F10C00BDE8F840FCF738BE0000D2
:1002C00010B50C46FFF789FF30B1817A4A1C944281
:1002D00004BF01F08001817210BD000010B582B032
:1002E00004001CBF207AFF2816D000200090A378BD
:1002F0002188607A1722FEF77AFDA078182806D1A7
:1003000000208DF8000069462088FDF75DFAFE2088
:1003100020722046FFF79CFF13BD000070B5044615
:100320004FF6FE70844282B037D008004FF6FF7659
:100330000AD12046FFF751FF78BB3046FFF74DFF4B
:1003400005002AD0048073BD012906D12046FFF79D
:1003500044FF050021D02E800BE002291DD1012190
:10036000204602F050FFC0B92046FFF736FF0500D7
:1003700013D0287AFF280ED0FE2807D00020009046
:100380001422AB78687A2146FEF731FD2846FFF744
:100390005FFFFF2028720020A87273BD38B5DFF818
:1003A000504CDFF8505C20762878C00003F0D4FA77
:1003B000E061C8B1002108E04FF6FF7220F831205B
:1003C00000EBC10300225A60491C2A789142F3DBFA
:1003D000052000F0AFF8207EFDF7C2FFBDE83240F7
:1003E000DFF8140C02F051BE31BD38B50C462004C4
:1003F00018D5DFF8FC0B007EFCF735FE05000ED0AB
:100400002878B02808D1284600F0FDF820B12979D5
:1004100005F10800FEF7C4FD2846FCF7B7FD84F49B
:10042000004032BD002032BD7CB506001C460DD018
:10043000ADF800108DF8022001966846FDF722FF06
:1004400005001AD1CCB17689300001D1022514E023
:100450000C2003F081FA08B913250EE00021016099
:1004600086808460DFF8941B0A6812B9086004E093
:100470000A4611680029FBD11060284676BD30B5C8
:100480000C46DFF8781B0546086883B0002201E0BF
:100490000246006898B18388AB42F9D10368002A0C
:1004A0000CBF0B60136003F064FA69462846FDF741
:1004B00037FF010002D10CB1019921603EBD01203E
:1004C0003EBD70B550BB012926D1DFF8240BC169B0
:1004D000002300E05B1CDFF81C4B2478A34217DAF2
:1004E00031F833404FF6FF75AC42F3D0002400E002
:1004F000641C467EE5B2B542ECD201EBC305E4B222
:100500006D680C266643AD5B002DF1D0012070BDF7
:100510001078BDE870400DE0182070BD022070BD5D
:100520000022002803BFDFF8C80A407E08700222BC
:10053000104670472DE9F843DFF8B47A04460020EE
:1005400078760C25F869DFF8AC6A406805FB04F89A
:1005500070B103F00EFA002006E0F969C0B201EBB9
:10056000C00100224A60401C3278C1B29142F4D3EB
:10057000307808FB00F080B203F0EEF95FEA000982
:1005800028D0307808FB00F200214846FCF7CFFC69
:1005900000200FE0516805FB0CF34FF0000E21F82E
:1005A00003E019440CF1010CC1F808E0A445F1DBAB
:1005B000C144401C3278C1B2914208D2F969C0B23C
:1005C00001EBC0024FF0000CC2F80490EEE77C761D
:1005D000002000E01320BDE8F28301460020C90797
:1005E00005D5002310220121DFF8140C1CE7704709
:1005F000DFF8081A096821B18A888242FAD188682E
:100600007047002070472DE9F04186B00446002075
:10061000ADF8100001208DF81200DFF8D459286AD7
:1006200038B9FDF71EF803F097F90028286200F0AA
:10063000E280182200212846FCF779FC2079461C2C
:1006400002284FF6FF7817D006282CD008282FD084
:100650000A2833D00C2857D00E2800F08B801028A1
:1006600000F08D80122800F08F80162800F0938013
:10067000182800F09780BBE0FCF7F3FF288029469C
:100680006088FDF7DFF800282189288804D081429E
:1006900028BF01462980A0E0814228BF014660882A
:1006A000FEF7EEFBA4E004A9204600F0AEF87DE0E2
:1006B00004AA0021204600F02CF977E000F0A0F811
:1006C000070052D0608805AB42460B21FEF72CFC98
:1006D00003006B6024D02079BDF8162003900095AC
:1006E0003946BDF8140002900020019000F026FA6F
:1006F000070004D160882946FDF7EEF829E0162F9F
:10070000686808BF00272BE000F07AF807002CD0BB
:10071000608805AB42460D21FEF706FC686020B9F3
:100720002089ADF81000112745E02179BDF8162089
:1007300003910346BDF8141002916189019100955F
:10074000394600F0FBF9070006D160882946FDF71D
:10075000D1F8002841D12AE0162F686808BF002789
:10076000FEF733FF380001D121E001272089ADF8E1
:1007700010001CE004A9204600F06EF916E004A960
:10078000204600F0E9F911E00DF1120204A920461B
:1007900000F086FA0AE00DF1120204A9204600F0EA
:1007A000C0FA03E004A9204600F029FB0746380000
:1007B00011D0162F11D0607814280CD02079287011
:1007C0002F712946BDF8100068806088FDF731F868
:1007D00008B1012601E0162F0AD160882B46F2B23B
:1007E0001621FEF743FB18B1F1B22846FEF7D8FBFD
:1007F0002046FEF772FA9DF8120006B0BDE8F081BF
:1008000020890DF11601FDF723BE2DE9FA470446B4
:1008100086B06088DFF8D85703F0BCFD80460DF144
:10082000120000F0D4F8002781464FF0FF0AB9F11A
:10083000000F5BD009E0BDF810304354BDF8100044
:10084000696892B2000A8854571CBFB2A8F105002B
:1008500087424BDA207903900026A8F1070080B286
:100860000290019605F11A0000902B6ABDF8122043
:100870006088494600F0CAFB002802BF6A8B208AC4
:10088000904214D1296A6069FCF743FB78B168682B
:1008900058B900F055F90721FEF746FB686020B90A
:1008A000069920890880112030E0B9F80A60BDF867
:1008B0001220618904AB4846FDF7F0FD002E814609
:1008C000B5D06868C655781C6A6880B23112115478
:1008D000411C4A1C6868B9F1000F89B2ABD100F81D
:1008E00001A092B2686800F802A0571CB8B248B1E3
:1008F0003F04B80C288029466088FCF7C7FF28B160
:10090000162003E00699208908800A2008B0BDE877
:10091000F0872DE9F043044685B06088884691460B
:1009200003F038FD851EADB2DFF8C47601E0401C4F
:100930002081A81E398988422FDB5FEA08002CD16C
:1009400004A800F044F8060027D070892081BDF883
:100950001020317A6088FDF707FD5FEA00081CD19E
:1009600020793B6ABDF8102003903146A81E80B262
:1009700000F0EBF800F0E2F85FEA00080DD17389AF
:100980007A8B396A608800F02AF85FEA000804D19F
:1009900020894FF6FF718842C9D1388901000AD0F9
:1009A000798890FBF1F0388039466088FCF77EFF4B
:1009B00050B1162008E05FEA08002089A9F800007D
:1009C00008BF4FF00A08404605B0BDE8F08300902C
:1009D000237B6189208904F10D02FDF70ABD2DE911
:1009E000F8468246894615461E4603F0D3FCDFF8DA
:1009F00000460746208990B900F0A3F80921504627
:100A0000FEF792FA606008B9112023E0A81C60800C
:100A10003A1F208901466B189A4206D203E060888B
:100A2000A91C8842F4D0012014E0401C2081606899
:100A300046542089411C2181310A62681154606842
:100A400023892A4649461844FCF73FFA208928188A
:100A500020810020BDE8F2862DE9F047044686B0EB
:100A60006088DFF88C750D4603F094FC0026A0F139
:100A70000109A0F1010814E03888798B0346C918F0
:100A80008845BCBFA9EB0000788378687A8B396A07
:100A90001844FCF71AFA3888798B0818761C3880C5
:100AA000B6B2A0898642BCBF3888404534DAA06817
:100AB00010F8162000EB460004A9407802EB002055
:100AC00080B2FDF7C5FC010009D14FF0010A00F02A
:100AD0002BF8786808B1FEF778FD5046DDE0207904
:100AE000BDF8102003901FFA89F000F02EF83B6A41
:100AF00000F024F800288246E9D178680028BBD1AC
:100B000000F01EF80F21FEF70FFA00287860B3D12D
:100B100000F00AF81120E1E760883946FCF7F8FE9A
:100B20000028DBD01620D9E7A06810F8161000EBDB
:100B30004600407801EB002028807047608865E21D
:100B4000608800234FF6FF727047029000200190EA
:100B500007F11A00009070472DE9F047044686B06F
:100B60006088DFF88C54894603F014FC059004F18A
:100B70000D0204A80090237B61892089FDF739FCD0
:100B80000026B24607464FF0FF0810E0696801F8FA
:100B9000068080B2696801F80080461C68686A8B2C
:100BA000296AB6B28019FCF790F9688B8619B6B23B
:100BB000FFB1BDF81020397A6088FDF7D5FB5FEAF8
:100BC000000A13D12079BDF810200390394605980A
:100BD000801F80B202900020019005F11A00009061
:100BE0002B6AFFF7ABFF5FEA000A10D07889A9F8FB
:100BF0000000002E48D0688896FBF0F02880294637
:100C00006088FCF794FE002847D0162045E07EB9A6
:100C1000FFF796FF1121FEF787F9686020B9788900
:100C2000A9F80000112038E0688B001D688009E0F9
:100C3000688B6988021D9142DDD10599891F801951
:100C40008142D8DB69687889885579896A68701C1F
:100C500080B2090A1154461CBDF8102061890DF1BB
:100C600012033846FDF71AFC0746701C002FB6B277
:100C70008CD06A68BDF81210915580B2BDF8121080
:100C80006A68090A115488E75FEA0A002089A9F80E
:100C9000000008BF4FF00A0A504606B0BDE8F087D2
:100CA000FEB504460D462089164602A9FDF7D0FB85
:100CB00007002ED0387A80060BD5BDF8080000F06A
:100CC0009FF903000BD0608812223946984707002D
:100CD00020D1607C002814BF5220207901E00E272B
:100CE00018E00190002000906389E2682189608803
:100CF00000F088FA070007D1607C68B96088FCF7CB
:100D000027FE48B11620FEBD162F03D100273770ED
:100D100002E0012720892880607C00B10027384646
:100D2000FEBD2DE9F041044682B00D466088904634
:100D3000012102F068FA002718B9142060700E2013
:100D40005BE020896946FDF783FB060051D0307ACD
:100D500080060BD5BDF8000000F052F9030013D057
:100D60006088122231469847070043D16688304692
:100D700000F008F928B94FF6FF7000F003F9A0B3AE
:100D8000068000219A4E02E00E2733E0491C737E54
:100D9000CAB29A4229D24268C9B20C234B431344C7
:100DA0001A88002AF2D10C2204F108011846FCF737
:100DB0008CF8002088F800000C2204F1080130466D
:100DC000FCF783F8A289608800231721FEF7ACF8AE
:100DD000B06060B1A2892169FCF777F8608831467C
:100DE000FCF7BCFD40B1162007E0092702E01127FF
:100DF00000E00127208928803846BDE8F6812DE9EA
:100E0000F043044683B06088894600F0BBF80026B2
:100E10005FEA00084CD0207A012845D1414604F110
:100E2000080000F051F8A0B1D8F804701820019023
:100E300078880090BB88BA683988608800F0E2F949
:100E40000646162E02D10020B8602DE060B3388827
:100E500028E000270EE0019068880090AB88AA681F
:100E6000608800F0CFF90646162E18D10020A86041
:100E70007F1CFFB25E48407E874215DAD8F8041026
:100E80000C227A430A44154629880B000CD07B1C9F
:100E900083421DBF9089002816201820DBE7002E12
:100EA000E6D02888A9F80000404600F080F82EB966
:100EB0006088FCF760FD20B1162003E0162E08BF05
:100EC00000263046BDE8FE832DE9F84F0C46002091
:100ED000002700264FF00C0B45490DE0984202BF59
:100EE000BCF8025093B2AB4224D1BCF80430DF19F5
:100EF000BFB29A1892B2761C4B7E9E420FDA63689C
:100F00000BFB06FC9C44BCF8003043B10028E5D143
:100F1000BCF80470BCF802201846BA18EAE7022EA2
:100F20002DDB38004FF0000904D0FEF737FB5FEAF5
:100F3000000801D1002023E0CA461AE00BFB0AF1A9
:100F40004518A96859B1AA8808EB0900FBF7BDFF4D
:100F5000A88848441FFA80F9A868FEF736FBBAF162
:100F6000000F04D00C2200212846FBF7E0FF0AF115
:100F7000010AB2456068E1DBC0F808808780012083
:100F8000BDE8F28F10B51A4AD269002100E0491C71
:100F9000184C2478CBB2A34207D2C9B232F8313010
:100FA0008342F4D102EBC10010BD002010BD70B52A
:100FB000044600250BE0B06808B1FEF706FB0C22E2
:100FC00000213046FBF7B3FF002030806D1C08493C
:100FD000497EE8B2884207D26068EDB20C216943CD
:100FE000461830880028E6D14FF6FF70208070BD8B
:100FF000E4470020204800208D120100084800200E
:1010000080B5FFF7F5FA00B1806802BD2DE9FE4F0B
:101010000D468046287AC00693461E464FF0000AC9
:101020000CD55846FFF7ECFF030000F0E4800A22DD
:101030002946404698470028824649D128780C9F87
:101040000D9CDDF83890022816D100F018F94FF405
:101050002051401A012810D9801E3AD0401E14D0C9
:10106000FD3876D0401E00F07D80401E6AD0401EC4
:101070006FD0401E00F09180A7E0002C2AD1E868D4
:10108000017839800278416883E0002C22D1012068
:1010900038800021E868007830706889401C80B290
:1010A000FDF7D6F9398860B10278921C5118398061
:1010B000418971704189090AB17002784168F01C58
:1010C00068E0081D388004220021701CFBF72FFF08
:1010D00093E0002C62D1E8680488042038803470E2
:1010E000200A70700DF102012046FDF7B1F90500EC
:1010F0001ED0EC68BDF802204FF6FF786B464146E3
:10110000FDF7CCF940B92B786A688348022103F0D7
:10111000F0F808B9ADF80080207802280AD161689B
:101120000222301DFBF7D1FE3888801C388001E098
:10113000ADF80040BDF80000B070BDF80000000A36
:10114000F0705AE054BBE8680168404605F044FE80
:1011500002E01CBBE8680088022139803070000A78
:1011600070704AE0E868FBF7AEFE82B2A242B8BFF8
:101170004FF0070A41DB944208BF002206D009EB7A
:1011800004019142B2BF4A46121B92B23A80E9680A
:1011900021443046FBF799FE2FE014B14FF00B0AC3
:1011A0002BE0E8680721398001783170417871704F
:1011B0004188B1704188090AF17001793171C188A3
:1011C0007171C088000AB07117E05846FFF710FA35
:1011D00000281CBFD0F800C0BCF1000F0BD00F9846
:1011E0000290CDF8049000943B4632462946404692
:1011F000E047824601E04FF00E0A5046BDE8FE8F00
:101200004C4600202DE9FE438046894617461E467F
:1012100002A94846FDF71CF905002CD0BDF80800CE
:10122000FFF7E6F900281CBFD0F804C0BCF1000F9E
:101230001FD00A980B9C0090019433463A462946E9
:101240004046E0470646B8B9FE2C15D0287802285B
:1012500012D100F014F842F6021188420CD138780D
:10126000797800EB012082B24946404600F038F818
:1012700002E00E2600E001263046BDE8FE836868E5
:101280000178407801EB002080B270477CB50129DD
:10129000044605D0022922D1012101F0B4FFF0B9A2
:1012A0002046FFF76FFE08B1FFF781FE01A800900E
:1012B0004FF6FF750223194A29460120FDF799F8D8
:1012C0000BE0F0680168204605F06CFDBDF80420D5
:1012D000002329463046FDF7E1F80600F1D173BD41
:1012E000F8B50F4F04463878FF280D46164611D042
:1012F0000A20FBF739FE68B1B1210170448000215A
:1013000041700171C580068101463878BDE8F4401E
:10131000FBF74BBEF1BD0000E0BC0100ECBC0100DE
:101320004E470020F8B50C460227491E03291546F2
:101330001E4606D9491F04D0891E012901D9091F5B
:101340001CD1214600F02AFF070017D10799069803
:1013500000F038FF304600F042FF012C14BF042C8F
:101360000025284600F072F800F032FB05F054FD2D
:1013700000F015FD01F0F7FD05F0FEFF3846F2BD67
:10138000DFF800F015990010DFF800F04199001027
:1013900070B5DFF810550446286882B008B11120F6
:1013A00076BD00F087F801D1122076BD042002F04E
:1013B000D3FA286078B3022001F09DFD286804224A
:1013C0002146FBF782FD02F00BF828B10C2000F05B
:1013D000DCFE05460D200DE06078022805D11220C4
:1013E00000F0D3FE0546132004E0102000F0CDFEEF
:1013F0000546112000F0C9FE0646DFF8AC0400786F
:1014000000F0D5FF0346E07800903246A0782946E8
:10141000FFF7B6FF76BD132076BD80B5DFF88414E4
:10142000096809B9122002BD0978814201D0032060
:1014300002BDDFF878040078012102F07DFB302046
:1014400000F0C8F9BDE80240002035E238B5DFF809
:10145000604405462078012100F0CDF800F02AF81C
:1014600022D0257004F1080002F0A4F86068C8B921
:10147000207801001CD00501284602F06DFA60605A
:1014800080B12A460021FBF752FD002005E062688A
:10149000C0B20301FF21D154401C2278C1B2914255
:1014A000F5D305E0132032BD0020207002F082F851
:1014B000002032BDDFF8FC0300780A2108427047A3
:1014C00070B5012442F20B02801A09D0401E2FD1C0
:1014D0008868007820B9DFF8CC03006848BB23E0B7
:1014E00088680578DFF8BC03006808B32900DFF8D6
:1014F000BC6310D1407802280CBF0320022000F00A
:1015000044FE020003D03078012102F0E3FA01200A
:1015100000F0D2F9054628000BD03078012102F006
:101520000BFB284600F056F9022001F0E9FC00E030
:101530000024204670BD80B528B9DFF86803006834
:1015400020B100207CE7BDE8024000E001BD2DE9AC
:10155000F8430446E07800281CBF6568002D48D099
:10156000242000F012FE4FFA80F80026DFF83493B2
:1015700008E03861D9F8000000783946FBF715FD1E
:101580002935761CE178F0B2884232D295F92800EC
:101590004045F5DB284600F09EF800281CBFD9F82E
:1015A00000000028ECD0287A143080B2FBF7DCFC75
:1015B0000700E5D0D0203870062200207870A91CE2
:1015C0000D20B8702878F87095F82800F8726878BF
:1015D0003871781DFBF779FC287A38730028C8D059
:1015E00007F11400386105F109013A7BFBF76DFC46
:1015F000C0E7BDE8F183F8B5AD4E044670680D460E
:1016000080B3002717E000EB0710806830B102F0CC
:10161000B0F9716801EB071100208860706800EB79
:101620000710C06830B102F0A4F9716801EB07112E
:101630000020C8607F1CA7427068E4DB25B102F07F
:1016400098F900207060F1BD60B122010021FBF724
:101650006EFC0027FF2003E071683A017F1C88546C
:10166000A742F9DBF1BD10B59148416869B100228C
:1016700000E0521C0478D3B2A34206D2D2B21301C6
:10168000CC5CFF2CF5D1C81810BD002010BD2DE991
:10169000F041874E044670688846C8B1002701E0D3
:1016A0007F1CFFB23078874212DA70683D01415DDD
:1016B000FF29F5D040194178A142F1D106224146D7
:1016C000801CFBF726FC0028EAD07068401900E077
:1016D0000020BDE8F08170B5724E3168044682B0DA
:1016E00000250020D9B1217801290BD0227A04F1FC
:1016F00009036946012001F0D4FB00B10578217887
:10170000042912D031684978032918BF55EA01022B
:101710000BD020B1012904D115F0030005D1002020
:1017200076BD0229FBD1E807F9D56078A11CFFF747
:10173000AEFF0500207826D0042814BFA868E8680A
:1017400080B3227A017891420CD104F10901401C46
:10175000FBF7DFFB012805D1232000F016FD002850
:1017600036D0DCE72078042806D0A868D0B102F093
:1017700000F90020A86015E0E86898B102F0F9F8D7
:101780000020E8600EE00428C9D0FFF76CFF0500D8
:10179000C5D020782870062260786870A11CA81C2B
:1017A000FBF793FB207A401C80B202F0D5F860B1C1
:1017B0002178042914BFA860E860217A00F8011B91
:1017C00004F10901227AFBF780FB207A0028A6D0D9
:1017D000012076BD2DE9F843DFF8C8800546D8F82A
:1017E0000000002600281EBFDFF8C490D9F80400CE
:1017F000002855D05DB9002705E03901415CFF297B
:1018000018BF761C7F1C99F800108F42F5DBF6B2EA
:10181000F000083080B2FBF7A7FB040005D10820D8
:10182000FBF7A2FB0446002613256CB3D0202070E2
:1018300065700120A070E67030001DD004F108052D
:101840006560002799F80000874217DAF0B2A8B166
:10185000D9F8041038010A5CFF2A0AD008442A701B
:10186000062241786970761E811CA81CFBF72DFBAF
:1018700008357F1CFFB2E5E7002060602146D8F8FC
:1018800000000078FBF791FB99F800000021FFF7BA
:10189000B2FED8F8000002F06CF80020C8F8000092
:1018A000BDE8F183DC470020AA4500203C4600202B
:1018B00008460020A945002010B50446232000F06A
:1018C00064FC01002046BDE8104018BF0121C9B2E8
:1018D000FFF75ABDDFF800F05D990010DFF800F067
:1018E0009D9900102DE9F04F05466F4800780007DC
:1018F00089B058BF122068D501F0C4FA08B1102091
:1019000063E001F06DFD69490978884228BF152020
:101910005BD2674C206808B1112056E00A2002F023
:101920001BF8002820604ED0042001F0E4FA206863
:101930000A222946FBF7C9FA2068407828B10E2010
:1019400000F023FC80460F2004E00C2000F01DFC7A
:1019500080460D2000F019FC81461C2000F015FC8B
:10196000ADF820001B2000F010FC0746192000F005
:101970000CFC05461A2000F008FC0646162000F074
:1019800004FC8246152000F000FC8346494800789C
:1019900000F00DFDBDF820202168079206970595FF
:1019A00004960190CDF80CA0081DCDF808B0009069
:1019B000CB788A7849464046FFF78CFF040003D075
:1019C00001F018F900E01324204609B0BDE8F08FBB
:1019D0003548007800074CBF3748002001F03ABA7C
:1019E00010B50124C01E19D042F20A02801A0DD08F
:1019F000401E08D0401F0DD0801F17D04DF6E67254
:101A0000801A0FD018E001F0F5F816E0887800F0A1
:101A10002FF812E0887800F051F80EE0084600F048
:101A200056F80AE0084600F05CF806E08878010005
:101A300003D006F0C7FA00E00024204610BD10B520
:101A400002461B4B12204FF6FE741B68A14205D1C3
:101A50006BB11878904206D0032010BD4FF6FF728C
:101A6000914204D11BB1BDE81040FFF737BF10BD54
:101A7000010000D170470E4900B5096887B081B1F7
:101A800000220592049203920292019200920B1D91
:101A9000CA78097800F0B2FF07B05DF804EB01F0F6
:101AA000A9B807B000BD0000A945002020480020CB
:101AB00080450020AA45002034460020010000D1C6
:101AC000704780B5002100910023002206E080B518
:101AD000418900910389C2888188C07800F0D0FFD5
:101AE00001BD1FB50446607912281FD1E389A28980
:101AF00061892089FBF7A0FF18B1252000F045FB84
:101B000000B10120ADF80C0003AA21796088FBF731
:101B100071FDBDF80C0048B902900190E089009079
:101B2000A389628921896088FCF789F81FBD0000BC
:101B3000DFF800F0A1980010DFF800F0BD98001069
:101B4000DFF800F0D9980010DFF800F06D98001071
:101B500070B5DFF8F065054630680C4608B1112015
:101B600070BD00F0E7F801D1122070BDDFF8D80594
:101B7000806800281CBF0078002801D1102070BDAB
:101B80000C2001F0E9FE306040B3012001F0B3F910
:101B9000306805700021306841700A222146801C9F
:101BA000FBF793F900F0C4F9040002D000F0A9FAA1
:101BB00015E0DFF898050078032810D11D2000F00B
:101BC000E4FADFF88C15088048B1DFF88805007862
:101BD0004EF66022042101F095FF00E01324204618
:101BE00070BDF8B50C46DFF870150978154605226A
:101BF00011421E4627D0012CDFF84C1502D18F6808
:101C00000FB301E0CF68F7B1202D02DA2A0002D02D
:101C10000EB90220F2BD08701F220021781CFBF7CC
:101C200086F92A463146781CFBF74FF93D70284665
:101C300024B1791CBDE8F440FFF77ABF791CBDE8F8
:101C4000F440FFF779BF1220F2BD38B5DFF8F44455
:101C5000216809B9122032BD0978814201D00320E0
:101C600032BDDFF8F0542878022101F065FFDFF87B
:101C7000D814002048800421287801F05DFFDFF8A7
:101C8000D014002008800320216848700020BDE89F
:101C90003240FFF755BFF8B5044600F04BF801D1CC
:101CA0001220F2BD1CB1207801F0F1F808B9022031
:101CB000F2BD6078801C202823DA207800F0A3F998
:101CC00008B11820F2BDDFF880546B6800210022B3
:101CD00002E0B61C71181B685BB15E68767828B9A3
:101CE000C9B27718BF1C202FF3DB0120B61CB21835
:101CF000F1E7D0B238B16078D2B28018801C2028C9
:101D000001DB0B20F2BD082001F026FE06000FD0FB
